{"abi":[{"type":"function","name":"allowance","inputs":[{"name":"owner","type":"address","internalType":"address"},{"name":"spender","type":"address","internalType":"address"},{"name":"id","type":"uint256","internalType":"uint256"}],"outputs":[{"name":"","type":"uint256","internalType":"uint256"}],"stateMutability":"view"},{"type":"function","name":"approve","inputs":[{"name":"spender","type":"address","internalType":"address"},{"name":"id","type":"uint256","internalType":"uint256"},{"name":"amount","type":"uint256","internalType":"uint256"}],"outputs":[{"name":"","type":"bool","internalType":"bool"}],"stateMutability":"nonpayable"},{"type":"function","name":"balanceOf","inputs":[{"name":"owner","type":"address","internalType":"address"},{"name":"id","type":"uint256","internalType":"uint256"}],"outputs":[{"name":"","type":"uint256","internalType":"uint256"}],"stateMutability":"view"},{"type":"function","name":"isOperator","inputs":[{"name":"owner","type":"address","internalType":"address"},{"name":"spender","type":"address","internalType":"address"}],"outputs":[{"name":"","type":"bool","internalType":"bool"}],"stateMutability":"view"},{"type":"function","name":"setOperator","inputs":[{"name":"spender","type":"address","internalType":"address"},{"name":"approved","type":"bool","internalType":"bool"}],"outputs":[{"name":"","type":"bool","internalType":"bool"}],"stateMutability":"nonpayable"},{"type":"function","name":"supportsInterface","inputs":[{"name":"interfaceId","type":"bytes4","internalType":"bytes4"}],"outputs":[{"name":"","type":"bool","internalType":"bool"}],"stateMutability":"view"},{"type":"function","name":"totalSupply","inputs":[{"name":"id","type":"uint256","internalType":"uint256"}],"outputs":[{"name":"","type":"uint256","internalType":"uint256"}],"stateMutability":"view"},{"type":"function","name":"transfer","inputs":[{"name":"receiver","type":"address","internalType":"address"},{"name":"id","type":"uint256","internalType":"uint256"},{"name":"amount","type":"uint256","internalType":"uint256"}],"outputs":[{"name":"","type":"bool","internalType":"bool"}],"stateMutability":"nonpayable"},{"type":"function","name":"transferFrom","inputs":[{"name":"sender","type":"address","internalType":"address"},{"name":"receiver","type":"address","internalType":"address"},{"name":"id","type":"uint256","internalType":"uint256"},{"name":"amount","type":"uint256","internalType":"uint256"}],"outputs":[{"name":"","type":"bool","internalType":"bool"}],"stateMutability":"nonpayable"},{"type":"event","name":"Approval","inputs":[{"name":"owner","type":"address","indexed":true,"internalType":"address"},{"name":"spender","type":"address","indexed":true,"internalType":"address"},{"name":"id","type":"uint256","indexed":true,"internalType":"uint256"},{"name":"amount","type":"uint256","indexed":false,"internalType":"uint256"}],"anonymous":false},{"type":"event","name":"OperatorSet","inputs":[{"name":"owner","type":"address","indexed":true,"internalType":"address"},{"name":"spender","type":"address","indexed":true,"internalType":"address"},{"name":"approved","type":"bool","indexed":false,"internalType":"bool"}],"anonymous":false},{"type":"event","name":"Transfer","inputs":[{"name":"caller","type":"address","indexed":false,"internalType":"address"},{"name":"sender","type":"address","indexed":true,"internalType":"address"},{"name":"receiver","type":"address","indexed":true,"internalType":"address"},{"name":"id","type":"uint256","indexed":true,"internalType":"uint256"},{"name":"amount","type":"uint256","indexed":false,"internalType":"uint256"}],"anonymous":false},{"type":"error","name":"ERC6909InsufficientAllowance","inputs":[{"name":"spender","type":"address","internalType":"address"},{"name":"allowance","type":"uint256","internalType":"uint256"},{"name":"needed","type":"uint256","internalType":"uint256"},{"name":"id","type":"uint256","internalType":"uint256"}]},{"type":"error","name":"ERC6909InsufficientBalance","inputs":[{"name":"sender","type":"address","internalType":"address"},{"name":"balance","type":"uint256","internalType":"uint256"},{"name":"needed","type":"uint256","internalType":"uint256"},{"name":"id","type":"uint256","internalType":"uint256"}]},{"type":"error","name":"ERC6909InvalidApprover","inputs":[{"name":"approver","type":"address","internalType":"address"}]},{"type":"error","name":"ERC6909InvalidReceiver","inputs":[{"name":"receiver","type":"address","internalType":"address"}]},{"type":"error","name":"ERC6909InvalidSender","inputs":[{"name":"sender","type":"address","internalType":"address"}]},{"type":"error","name":"ERC6909InvalidSpender","inputs":[{"name":"spender","type":"address","internalType":"address"}]}],"bytecode":{"object":"0x6080806040523461001657610612908161001b8239f35b5f80fdfe6080604081815260049182361015610015575f80fd5b5f3560e01c908162fdd58e146104305750806301ffc9a7146103dc578063095bcdb6146103c0578063426a84931461031c578063558a72971461025f578063598af9e71461020b578063b6363cf2146101bd578063bd85b039146101965763fe99049a14610081575f80fd5b346101925760803660031901126101925761009a61046c565b6100a2610482565b6064359160443591906001600160a01b0381163381141580610173575b6100da575b6020866100d3878787876104c2565b5160018152f35b805f5260209060028252865f20335f528252865f20855f528252865f2054975f198910610109575b50506100c4565b86891061014157505f908152600282528681203382528252868120858252909152858120968590039096556020956100d39080610102565b8751632c51fead60e11b815233918101918252602082018a905260408201889052606082018790529081906080010390fd5b50805f526001602052855f20335f5260205260ff865f205416156100bf565b5f80fd5b503461019257602036600319011261019257602091355f5260038252805f20549051908152f35b50346101925780600319360112610192576020906101d961046c565b6101e1610482565b9060018060a01b038091165f5260018452825f2091165f52825260ff815f20541690519015158152f35b50346101925760603660031901126101925760209061022861046c565b610230610482565b9060018060a01b038091165f5260028452825f2091165f528252805f206044355f528252805f20549051908152f35b503461019257806003193601126101925761027861046c565b60243590811515809203610192573315610306576001600160a01b03169081156102f05760209350335f5260018452825f20825f528452825f2060ff1981541660ff831617905582519081527fceb576d9f15e4e200fdb5096d64d5dfd667e16def20c1eefd14256d8e3faa267843392a35160018152f35b8251636f65f46560e01b81525f81860152602490fd5b825163198ecd5360e31b81525f81860152602490fd5b50346101925761032b36610498565b909133156103aa576001600160a01b03169081156103945760209450335f5260028552835f20825f528552835f20835f52855280845f205583519081527fb3fd5071835887567a0671151121894ddccc2842f1d10bedad13e0d17cace9a7853392a45160018152f35b8351636f65f46560e01b81525f81870152602490fd5b835163198ecd5360e31b81525f81870152602490fd5b5034610192576020906100d36103d536610498565b91336104c2565b509034610192576020366003190112610192573563ffffffff60e01b811680910361019257602091630f632fb360e01b821491821561041f575b50519015158152f35b6301ffc9a760e01b1491505f610416565b9050346101925781600319360112610192576020916001600160a01b0361045561046c565b165f525f8352805f206024355f5283525f20548152f35b600435906001600160a01b038216820361019257565b602435906001600160a01b038216820361019257565b6060906003190112610192576004356001600160a01b038116810361019257906024359060443590565b91926001600160a01b038084169283156105c457169283156105ac57825f5260205f8152604091825f20875f528252825f20549084821061057457508390855f525f8352835f20885f52835203825f2055845f525f8152815f20865f528152815f20928354818101809111610560577f1b3d7edb2e9c0b0e7c525b20aaaef0f5940d2ed71663c7d39266ecafac7288599455825191338352820152a4565b634e487b7160e01b5f52601160045260245ffd5b83516302c6d3fb60e61b81526001600160a01b0391909116600482015260248101919091526044810184905260648101879052608490fd5b604051630b8bbd6160e41b81525f6004820152602490fd5b6040516301486a4160e71b81525f6004820152602490fdfea26469706673582212204f232d5072359c1f2a1cc5f85425c5e18ed2a0b0feb8e24d195d6b303fac001064736f6c63430008180033","linkReferences":{}},"methodIdentifiers":{"allowance(address,address,uint256)":"598af9e7","approve(address,uint256,uint256)":"426a8493","balanceOf(address,uint256)":"00fdd58e","isOperator(address,address)":"b6363cf2","setOperator(address,bool)":"558a7297","supportsInterface(bytes4)":"01ffc9a7","totalSupply(uint256)":"bd85b039","transfer(address,uint256,uint256)":"095bcdb6","transferFrom(address,address,uint256,uint256)":"fe99049a"},"id":178}