{"abi":[{"type":"function","name":"setUp","inputs":[],"outputs":[],"stateMutability":"nonpayable"},{"type":"function","name":"test_pass","inputs":[],"outputs":[],"stateMutability":"pure"}],"bytecode":{"object":"0x60808060405234601457607690816100198239f35b5f80fdfe608060405260043610156010575f80fd5b5f3560e01c80630a9254e414602c57638ab6815214602c575f80fd5b34603c575f366003190112603c57005b5f80fdfea26469706673582212206c3a27d06467b11633afff6a4bddcfd4823776e1d9c19145e0bf3075cfdea7a664736f6c63430008180033","linkReferences":{}},"methodIdentifiers":{"setUp()":"0a9254e4","test_pass()":"8ab68152"},"id":253}