{"abi":[{"type":"constructor","inputs":[],"stateMutability":"nonpayable"},{"type":"function","name":"approve","inputs":[{"name":"to","type":"address","internalType":"address"},{"name":"tokenId","type":"uint256","internalType":"uint256"}],"outputs":[],"stateMutability":"nonpayable"},{"type":"function","name":"balanceOf","inputs":[{"name":"owner","type":"address","internalType":"address"}],"outputs":[{"name":"","type":"uint256","internalType":"uint256"}],"stateMutability":"view"},{"type":"function","name":"getApproved","inputs":[{"name":"tokenId","type":"uint256","internalType":"uint256"}],"outputs":[{"name":"","type":"address","internalType":"address"}],"stateMutability":"view"},{"type":"function","name":"isApprovedForAll","inputs":[{"name":"owner","type":"address","internalType":"address"},{"name":"operator","type":"address","internalType":"address"}],"outputs":[{"name":"","type":"bool","internalType":"bool"}],"stateMutability":"view"},{"type":"function","name":"mint","inputs":[{"name":"to","type":"address","internalType":"address"}],"outputs":[{"name":"","type":"uint256","internalType":"uint256"}],"stateMutability":"nonpayable"},{"type":"function","name":"name","inputs":[],"outputs":[{"name":"","type":"string","internalType":"string"}],"stateMutability":"view"},{"type":"function","name":"ownerOf","inputs":[{"name":"tokenId","type":"uint256","internalType":"uint256"}],"outputs":[{"name":"","type":"address","internalType":"address"}],"stateMutability":"view"},{"type":"function","name":"safeTransferFrom","inputs":[{"name":"from","type":"address","internalType":"address"},{"name":"to","type":"address","internalType":"address"},{"name":"tokenId","type":"uint256","internalType":"uint256"}],"outputs":[],"stateMutability":"nonpayable"},{"type":"function","name":"safeTransferFrom","inputs":[{"name":"from","type":"address","internalType":"address"},{"name":"to","type":"address","internalType":"address"},{"name":"tokenId","type":"uint256","internalType":"uint256"},{"name":"data","type":"bytes","internalType":"bytes"}],"outputs":[],"stateMutability":"nonpayable"},{"type":"function","name":"setApprovalForAll","inputs":[{"name":"operator","type":"address","internalType":"address"},{"name":"approved","type":"bool","internalType":"bool"}],"outputs":[],"stateMutability":"nonpayable"},{"type":"function","name":"supportsInterface","inputs":[{"name":"interfaceId","type":"bytes4","internalType":"bytes4"}],"outputs":[{"name":"","type":"bool","internalType":"bool"}],"stateMutability":"view"},{"type":"function","name":"symbol","inputs":[],"outputs":[{"name":"","type":"string","internalType":"string"}],"stateMutability":"view"},{"type":"function","name":"tokenURI","inputs":[{"name":"tokenId","type":"uint256","internalType":"uint256"}],"outputs":[{"name":"","type":"string","internalType":"string"}],"stateMutability":"view"},{"type":"function","name":"transferFrom","inputs":[{"name":"from","type":"address","internalType":"address"},{"name":"to","type":"address","internalType":"address"},{"name":"tokenId","type":"uint256","internalType":"uint256"}],"outputs":[],"stateMutability":"nonpayable"},{"type":"event","name":"Approval","inputs":[{"name":"owner","type":"address","indexed":true,"internalType":"address"},{"name":"approved","type":"address","indexed":true,"internalType":"address"},{"name":"tokenId","type":"uint256","indexed":true,"internalType":"uint256"}],"anonymous":false},{"type":"event","name":"ApprovalForAll","inputs":[{"name":"owner","type":"address","indexed":true,"internalType":"address"},{"name":"operator","type":"address","indexed":true,"internalType":"address"},{"name":"approved","type":"bool","indexed":false,"internalType":"bool"}],"anonymous":false},{"type":"event","name":"Transfer","inputs":[{"name":"from","type":"address","indexed":true,"internalType":"address"},{"name":"to","type":"address","indexed":true,"internalType":"address"},{"name":"tokenId","type":"uint256","indexed":true,"internalType":"uint256"}],"anonymous":false},{"type":"error","name":"ERC721IncorrectOwner","inputs":[{"name":"sender","type":"address","internalType":"address"},{"name":"tokenId","type":"uint256","internalType":"uint256"},{"name":"owner","type":"address","internalType":"address"}]},{"type":"error","name":"ERC721InsufficientApproval","inputs":[{"name":"operator","type":"address","internalType":"address"},{"name":"tokenId","type":"uint256","internalType":"uint256"}]},{"type":"error","name":"ERC721InvalidApprover","inputs":[{"name":"approver","type":"address","internalType":"address"}]},{"type":"error","name":"ERC721InvalidOperator","inputs":[{"name":"operator","type":"address","internalType":"address"}]},{"type":"error","name":"ERC721InvalidOwner","inputs":[{"name":"owner","type":"address","internalType":"address"}]},{"type":"error","name":"ERC721InvalidReceiver","inputs":[{"name":"receiver","type":"address","internalType":"address"}]},{"type":"error","name":"ERC721InvalidSender","inputs":[{"name":"sender","type":"address","internalType":"address"}]},{"type":"error","name":"ERC721NonexistentToken","inputs":[{"name":"tokenId","type":"uint256","internalType":"uint256"}]}],"bytecode":{"object":"0x608034620002de576001600160401b039060409080820183811182821017620001fc5782526007815260209266135bd8dad3919560ca1b8483015282519383850185811083821117620001fc57845260048552631353919560e21b81860152825190828211620001fc575f54916001948584811c94168015620002d3575b83851014620001dd578190601f9485811162000280575b5083908583116001146200021c575f9262000210575b50505f19600383901b1c191690851b175f555b8551928311620001fc5783548481811c91168015620001f1575b82821014620001dd5782811162000195575b5080918311600114620001305750819293945f9262000124575b50505f19600383901b1c191690821b1790555b51610d649081620002e38239f35b015190505f8062000103565b90601f19831695845f52825f20925f905b8882106200017d575050838596971062000164575b505050811b01905562000116565b01515f1960f88460031b161c191690555f808062000156565b80878596829496860151815501950193019062000141565b845f52815f208380860160051c820192848710620001d3575b0160051c019085905b828110620001c7575050620000e9565b5f8155018590620001b7565b92508192620001ae565b634e487b7160e01b5f52602260045260245ffd5b90607f1690620000d7565b634e487b7160e01b5f52604160045260245ffd5b015190505f80620000aa565b90879350601f198316915f8052855f20925f5b8782821062000269575050841162000250575b505050811b015f55620000bd565b01515f1960f88460031b161c191690555f808062000242565b8385015186558b979095019493840193016200022f565b9091505f8052835f208580850160051c820192868610620002c9575b918991869594930160051c01915b828110620002ba57505062000094565b5f8155859450899101620002aa565b925081926200029c565b93607f16936200007d565b5f80fdfe6080604090808252600480361015610015575f80fd5b5f3560e01c91826301ffc9a7146108985750816306fdde03146107d2578163081812fc1461079a578163095ea7b3146106ba57816323b872dd146106a357816342842e0e146106755781636352211e146106465781636a627842146103ed57816370a082311461039957816395d89b411461028a578163a22cb465146101ef578163b88d4fde1461015d578163c87b56dd1461010b575063e985e9c5146100ba575f80fd5b346101075780600319360112610107576020906100d5610940565b6100dd610956565b9060018060a01b038091165f5260058452825f2091165f52825260ff815f20541690519015158152f35b5f80fd5b82346101075760203660031901126101075761012a6101599235610baa565b505f8151610137816109a1565b52805190610144826109a1565b5f825251918291602083526020830190610902565b0390f35b823461010757608036600319011261010757610177610940565b61017f610956565b604435916064359467ffffffffffffffff86116101075736602387011215610107578501356101b96101b0826109f3565b955195866109d1565b8085523660248288010111610107576020815f9260246101ed990183890137860101526101e7838383610a0f565b33610be4565b005b8234610107578060031936011261010757610208610940565b9060243591821515809303610107576001600160a01b03169283156102755750335f526005602052805f20835f52602052805f2060ff1981541660ff8416179055519081527f17307eab39ab6107e8899845ad3d59bd9653f200f220920489ca2b5937696c3160203392a3005b836024925191630b61174360e31b8352820152fd5b8234610107575f366003190112610107578051905f90600191600154928360011c906001851694851561038f575b602095868410811461037c5783885287949392918790821561035a5750506001146102ff575b505061015992916102f09103856109d1565b51928284938452830190610902565b9085925060015f527fb10e2d527612073b26eecdfd717e6a320cf44b4afac2b0732d9fcbe2b7fa0cf6915f925b82841061034257505050820101816102f06102de565b8054848a01860152889550879490930192810161032c565b60ff19168682015292151560051b850190920192508391506102f090506102de565b602289634e487b7160e01b5f525260245ffd5b91607f16916102b8565b8234610107576020366003190112610107576001600160a01b036103bb610940565b1680156103d757602092505f5260038252805f20549051908152f35b81516322718ad960e21b81525f81850152602490fd5b90503461010757602091826003193601126101075761040a610940565b60065492905f1990818514610633576001850160065583519061042c826109a1565b5f82526001600160a01b038181169390841561061d57848891825f5260028b52885f20541680151593846105ec575b505f82815260038c528981208054600101905583815260028c5289812080546001600160a01b031916841790557fddf252ad1be2c89b69c2b068fc378daa952ba7f163c4a11628f55a4df523b3ef9080a46105d6573b6104bf575b50505051908152f35b8392949193518681806104f9630a85bd0160e11b95868352338b8401525f6024840152876044840152608060648401526084830190610902565b03815f895af15f9181610596575b50610564575050503d5f1461055c573d93610521856109f3565b9461052e835196876109d1565b85523d5f8287013e5b8451948561055657505051633250574960e11b81529182015260249150fd5b85925001fd5b606093610537565b91949293916001600160e01b031916036105825750505f80806104b6565b6024925191633250574960e11b8352820152fd5b9091508781813d83116105cf575b6105ae81836109d1565b8101031261010757516001600160e01b03198116810361010757905f610507565b503d6105a4565b84516339e3563760e11b81525f81860152602490fd5b5f84815260046020526040902080546001600160a01b0319169055815f5260038c52895f209081540190555f61045b565b8651633250574960e11b81525f81880152602490fd5b601183634e487b7160e01b5f525260245ffd5b82346101075760203660031901126101075761066460209235610baa565b90516001600160a01b039091168152f35b8234610107576101ed906106883661096c565b91925192610695846109a1565b5f84526101e7838383610a0f565b34610107576101ed6106b43661096c565b91610a0f565b82346101075780600319360112610107576106d3610940565b916024356106e081610baa565b33151580610787575b80610760575b61074a576001600160a01b039485169482918691167f8c5be1e5ebec7d5bd14f71427d1e84f3dd0314c0f7b2291e5b200ac8c7c3b9255f80a45f526020525f20906bffffffffffffffffffffffff60a01b8254161790555f80f35b835163a9fbf51f60e01b81523381850152602490fd5b5060018060a01b0381165f526005602052835f20335f5260205260ff845f205416156106ef565b506001600160a01b0381163314156106e9565b82346101075760203660031901126101075781602092356107ba81610baa565b505f52825260018060a01b03815f2054169051908152f35b8234610107575f366003190112610107578051905f905f549160018360011c906001851694851561088e575b602095868410811461037c5783885287949392918790821561035a57505060011461083557505061015992916102f09103856109d1565b5f80805286935091907f290decd9548b62a8d60345a988386fc84ba6bc95484008f6362f93160ef3e5635b82841061087657505050820101816102f06102de565b8054848a018601528895508794909301928101610860565b91607f16916107fe565b903461010757602036600319011261010757359063ffffffff60e01b8216809203610107576020916380ac58cd60e01b81149081156108f1575b81156108e0575b5015158152f35b6301ffc9a760e01b149050836108d9565b635b5e139f60e01b811491506108d2565b91908251928382525f5b84811061092c575050825f602080949584010152601f8019910116010190565b60208183018101518483018201520161090c565b600435906001600160a01b038216820361010757565b602435906001600160a01b038216820361010757565b6060906003190112610107576001600160a01b0390600435828116810361010757916024359081168103610107579060443590565b6020810190811067ffffffffffffffff8211176109bd57604052565b634e487b7160e01b5f52604160045260245ffd5b90601f8019910116810190811067ffffffffffffffff8211176109bd57604052565b67ffffffffffffffff81116109bd57601f01601f191660200190565b6001600160a01b039182169290918315610b9257815f52602092600284528260409583875f2054169533151580610b00575b5060029087610acf575b825f5260038152885f2060018154019055835f5252865f20816bffffffffffffffffffffffff60a01b825416179055857fddf252ad1be2c89b69c2b068fc378daa952ba7f163c4a11628f55a4df523b3ef5f80a41692838303610aae5750505050565b6064945051926364283d7b60e01b8452600484015260248301526044820152fd5b5f84815260046020526040812080546001600160a01b03191690558881526003825289902080545f19019055610a4b565b9192509080610b51575b15610b18579084915f610a41565b868587610b35576024915190637e27328960e01b82526004820152fd5b604491519063177e802f60e01b82523360048301526024820152fd5b503386148015610b76575b80610b0a5750845f52600481523384885f20541614610b0a565b50855f5260058152865f20335f52815260ff875f205416610b5c565b604051633250574960e11b81525f6004820152602490fd5b5f818152600260205260409020546001600160a01b0316908115610bcc575090565b60249060405190637e27328960e01b82526004820152fd5b9293909193843b610bf7575b5050505050565b604051630a85bd0160e11b8082526001600160a01b039586166004830152938516602482015260448101919091526080606482015260209594909316939290859082908190610c4a906084830190610902565b03815f885af15f9181610cee575b50610cb7575050503d5f14610caf573d91610c72836109f3565b92610c8060405194856109d1565b83523d5f8285013e5b82519283610caa57604051633250574960e11b815260048101849052602490fd5b019050fd5b606091610c89565b9193506001600160e01b031990911603610cd657505f80808080610bf0565b60249060405190633250574960e11b82526004820152fd5b9091508581813d8311610d27575b610d0681836109d1565b8101031261010757516001600160e01b03198116810361010757905f610c58565b503d610cfc56fea2646970667358221220f4f4ca214e717d4d2e1f7dc360b299d187caec9c31baef9bd8fcdb131b64302764736f6c63430008180033","linkReferences":{}},"methodIdentifiers":{"approve(address,uint256)":"095ea7b3","balanceOf(address)":"70a08231","getApproved(uint256)":"081812fc","isApprovedForAll(address,address)":"e985e9c5","mint(address)":"6a627842","name()":"06fdde03","ownerOf(uint256)":"6352211e","safeTransferFrom(address,address,uint256)":"42842e0e","safeTransferFrom(address,address,uint256,bytes)":"b88d4fde","setApprovalForAll(address,bool)":"a22cb465","supportsInterface(bytes4)":"01ffc9a7","symbol()":"95d89b41","tokenURI(uint256)":"c87b56dd","transferFrom(address,address,uint256)":"23b872dd"},"id":46}