{"abi":[{"type":"constructor","inputs":[{"name":"_feeRecipient","type":"address","internalType":"address"},{"name":"_initialOwner","type":"address","internalType":"address"}],"stateMutability":"nonpayable"},{"type":"function","name":"claimPrize","inputs":[{"name":"_raffleId","type":"uint256","internalType":"uint256"},{"name":"_prizeIndex","type":"uint256","internalType":"uint256"}],"outputs":[],"stateMutability":"nonpayable"},{"type":"function","name":"createRaffle","inputs":[{"name":"_title","type":"string","internalType":"string"},{"name":"_description","type":"string","internalType":"string"},{"name":"_prizes","type":"tuple[9]","internalType":"struct RaffleContract.Prize[9]","components":[{"name":"name","type":"string","internalType":"string"},{"name":"description","type":"string","internalType":"string"},{"name":"imageUrl","type":"string","internalType":"string"},{"name":"value","type":"uint256","internalType":"uint256"}]},{"name":"_prizeCount","type":"uint256","internalType":"uint256"},{"name":"_ticketPrice","type":"uint256","internalType":"uint256"},{"name":"_maxParticipants","type":"uint256","internalType":"uint256"},{"name":"_duration","type":"uint256","internalType":"uint256"},{"name":"_paymentToken","type":"uint8","internalType":"enum RaffleContract.PaymentToken"}],"outputs":[{"name":"","type":"uint256","internalType":"uint256"}],"stateMutability":"nonpayable"},{"type":"function","name":"drawWinners","inputs":[{"name":"_raffleId","type":"uint256","internalType":"uint256"}],"outputs":[],"stateMutability":"nonpayable"},{"type":"function","name":"feeRecipient","inputs":[],"outputs":[{"name":"","type":"address","internalType":"address"}],"stateMutability":"view"},{"type":"function","name":"getParticipantCount","inputs":[{"name":"_raffleId","type":"uint256","internalType":"uint256"}],"outputs":[{"name":"","type":"uint256","internalType":"uint256"}],"stateMutability":"view"},{"type":"function","name":"getRaffle","inputs":[{"name":"_raffleId","type":"uint256","internalType":"uint256"}],"outputs":[{"name":"","type":"tuple","internalType":"struct RaffleContract.Raffle","components":[{"name":"id","type":"uint256","internalType":"uint256"},{"name":"title","type":"string","internalType":"string"},{"name":"description","type":"string","internalType":"string"},{"name":"prizes","type":"tuple[9]","internalType":"struct RaffleContract.Prize[9]","components":[{"name":"name","type":"string","internalType":"string"},{"name":"description","type":"string","internalType":"string"},{"name":"imageUrl","type":"string","internalType":"string"},{"name":"value","type":"uint256","internalType":"uint256"}]},{"name":"prizeCount","type":"uint256","internalType":"uint256"},{"name":"ticketPrice","type":"uint256","internalType":"uint256"},{"name":"maxParticipants","type":"uint256","internalType":"uint256"},{"name":"endTime","type":"uint256","internalType":"uint256"},{"name":"creator","type":"address","internalType":"address"},{"name":"participants","type":"address[]","internalType":"address[]"},{"name":"isActive","type":"bool","internalType":"bool"},{"name":"isDrawn","type":"bool","internalType":"bool"},{"name":"winners","type":"address[9]","internalType":"address[9]"},{"name":"createdAt","type":"uint256","internalType":"uint256"},{"name":"paymentToken","type":"uint8","internalType":"enum RaffleContract.PaymentToken"}]}],"stateMutability":"view"},{"type":"function","name":"getSupportedTokens","inputs":[],"outputs":[{"name":"","type":"uint8[]","internalType":"enum RaffleContract.PaymentToken[]"},{"name":"","type":"address[]","internalType":"address[]"}],"stateMutability":"view"},{"type":"function","name":"getUserRaffles","inputs":[{"name":"_user","type":"address","internalType":"address"}],"outputs":[{"name":"","type":"uint256[]","internalType":"uint256[]"}],"stateMutability":"view"},{"type":"function","name":"hasParticipated","inputs":[{"name":"","type":"uint256","internalType":"uint256"},{"name":"","type":"address","internalType":"address"}],"outputs":[{"name":"","type":"bool","internalType":"bool"}],"stateMutability":"view"},{"type":"function","name":"joinRaffle","inputs":[{"name":"_raffleId","type":"uint256","internalType":"uint256"}],"outputs":[],"stateMutability":"payable"},{"type":"function","name":"nextRaffleId","inputs":[],"outputs":[{"name":"","type":"uint256","internalType":"uint256"}],"stateMutability":"view"},{"type":"function","name":"owner","inputs":[],"outputs":[{"name":"","type":"address","internalType":"address"}],"stateMutability":"view"},{"type":"function","name":"pause","inputs":[],"outputs":[],"stateMutability":"nonpayable"},{"type":"function","name":"paused","inputs":[],"outputs":[{"name":"","type":"bool","internalType":"bool"}],"stateMutability":"view"},{"type":"function","name":"platformFeePercentage","inputs":[],"outputs":[{"name":"","type":"uint256","internalType":"uint256"}],"stateMutability":"view"},{"type":"function","name":"raffles","inputs":[{"name":"","type":"uint256","internalType":"uint256"}],"outputs":[{"name":"id","type":"uint256","internalType":"uint256"},{"name":"title","type":"string","internalType":"string"},{"name":"description","type":"string","internalType":"string"},{"name":"prizeCount","type":"uint256","internalType":"uint256"},{"name":"ticketPrice","type":"uint256","internalType":"uint256"},{"name":"maxParticipants","type":"uint256","internalType":"uint256"},{"name":"endTime","type":"uint256","internalType":"uint256"},{"name":"creator","type":"address","internalType":"address"},{"name":"isActive","type":"bool","internalType":"bool"},{"name":"isDrawn","type":"bool","internalType":"bool"},{"name":"createdAt","type":"uint256","internalType":"uint256"},{"name":"paymentToken","type":"uint8","internalType":"enum RaffleContract.PaymentToken"}],"stateMutability":"view"},{"type":"function","name":"renounceOwnership","inputs":[],"outputs":[],"stateMutability":"nonpayable"},{"type":"function","name":"setTokenAddress","inputs":[{"name":"_token","type":"uint8","internalType":"enum RaffleContract.PaymentToken"},{"name":"_tokenAddress","type":"address","internalType":"address"}],"outputs":[],"stateMutability":"nonpayable"},{"type":"function","name":"tokenAddresses","inputs":[{"name":"","type":"uint8","internalType":"enum RaffleContract.PaymentToken"}],"outputs":[{"name":"","type":"address","internalType":"address"}],"stateMutability":"view"},{"type":"function","name":"transferOwnership","inputs":[{"name":"newOwner","type":"address","internalType":"address"}],"outputs":[],"stateMutability":"nonpayable"},{"type":"function","name":"unpause","inputs":[],"outputs":[],"stateMutability":"nonpayable"},{"type":"function","name":"updateFeeRecipient","inputs":[{"name":"_newFeeRecipient","type":"address","internalType":"address"}],"outputs":[],"stateMutability":"nonpayable"},{"type":"function","name":"updatePlatformFee","inputs":[{"name":"_newFeePercentage","type":"uint256","internalType":"uint256"}],"outputs":[],"stateMutability":"nonpayable"},{"type":"function","name":"userRaffles","inputs":[{"name":"","type":"address","internalType":"address"},{"name":"","type":"uint256","internalType":"uint256"}],"outputs":[{"name":"","type":"uint256","internalType":"uint256"}],"stateMutability":"view"},{"type":"function","name":"withdrawFees","inputs":[{"name":"_raffleId","type":"uint256","internalType":"uint256"}],"outputs":[],"stateMutability":"nonpayable"},{"type":"event","name":"OwnershipTransferred","inputs":[{"name":"previousOwner","type":"address","indexed":true,"internalType":"address"},{"name":"newOwner","type":"address","indexed":true,"internalType":"address"}],"anonymous":false},{"type":"event","name":"ParticipantJoined","inputs":[{"name":"raffleId","type":"uint256","indexed":true,"internalType":"uint256"},{"name":"participant","type":"address","indexed":true,"internalType":"address"},{"name":"participantCount","type":"uint256","indexed":false,"internalType":"uint256"}],"anonymous":false},{"type":"event","name":"Paused","inputs":[{"name":"account","type":"address","indexed":false,"internalType":"address"}],"anonymous":false},{"type":"event","name":"PrizeClaimed","inputs":[{"name":"raffleId","type":"uint256","indexed":true,"internalType":"uint256"},{"name":"winner","type":"address","indexed":true,"internalType":"address"},{"name":"prizeIndex","type":"uint256","indexed":false,"internalType":"uint256"},{"name":"amount","type":"uint256","indexed":false,"internalType":"uint256"}],"anonymous":false},{"type":"event","name":"RaffleCreated","inputs":[{"name":"raffleId","type":"uint256","indexed":true,"internalType":"uint256"},{"name":"creator","type":"address","indexed":true,"internalType":"address"},{"name":"title","type":"string","indexed":false,"internalType":"string"},{"name":"ticketPrice","type":"uint256","indexed":false,"internalType":"uint256"},{"name":"maxParticipants","type":"uint256","indexed":false,"internalType":"uint256"},{"name":"endTime","type":"uint256","indexed":false,"internalType":"uint256"},{"name":"paymentToken","type":"uint8","indexed":false,"internalType":"enum RaffleContract.PaymentToken"}],"anonymous":false},{"type":"event","name":"RaffleDrawn","inputs":[{"name":"raffleId","type":"uint256","indexed":true,"internalType":"uint256"},{"name":"winners","type":"address[9]","indexed":false,"internalType":"address[9]"},{"name":"prizeCount","type":"uint256","indexed":false,"internalType":"uint256"},{"name":"timestamp","type":"uint256","indexed":false,"internalType":"uint256"}],"anonymous":false},{"type":"event","name":"TokenAddressUpdated","inputs":[{"name":"token","type":"uint8","indexed":true,"internalType":"enum RaffleContract.PaymentToken"},{"name":"tokenAddress","type":"address","indexed":true,"internalType":"address"}],"anonymous":false},{"type":"event","name":"Unpaused","inputs":[{"name":"account","type":"address","indexed":false,"internalType":"address"}],"anonymous":false},{"type":"error","name":"EnforcedPause","inputs":[]},{"type":"error","name":"ExpectedPause","inputs":[]},{"type":"error","name":"OwnableInvalidOwner","inputs":[{"name":"owner","type":"address","internalType":"address"}]},{"type":"error","name":"OwnableUnauthorizedAccount","inputs":[{"name":"account","type":"address","internalType":"address"}]},{"type":"error","name":"ReentrancyGuardReentrantCall","inputs":[]},{"type":"error","name":"SafeERC20FailedOperation","inputs":[{"name":"token","type":"address","internalType":"address"}]}],"bytecode":{"object":"0x6080346200010757601f62002a4138819003918201601f19168301916001600160401b038311848410176200010b57808492604094855283398101031262000107576200005a602062000052836200011f565b92016200011f565b60017f9b779b17422d0df92223018b32b4d1fa46e071723d6817e2486d003becc55f00556001600160a01b03908116908115620000ef575f549260018060a01b03199280848616175f558260405195167f8be0079c531659141344cd1fd0a4f28419497f9722a3daafe3b4186f6b6457e05f80a3600160055560fa6006551690600754161760075561290c9081620001358239f35b604051631e4fbdf760e01b81525f6004820152602490fd5b5f80fd5b634e487b7160e01b5f52604160045260245ffd5b51906001600160a01b0382168203620001075756fe60806040526004361015610011575f80fd5b5f3560e01c8063290060ac146101a45780633f4ba83a1461019f578063469048401461019a5780634758eca9146101955780635c975abb146101905780635d4bc0ce1461018b5780635e318e071461018657806368277c5114610181578063715018a61461017c5780637b154140146101775780638456cb59146101725780638458e3e41461016d57806386ae5fec146101685780638da5cb5b1461016357806398d711381461015e578063a34398a214610159578063aa0b598814610154578063cdd78cfc1461014f578063cf0d74371461014a578063d1d06b2e14610145578063d3c7c2c714610140578063d51075c11461013b578063e4dafec914610136578063f160d369146101315763f2fde38b1461012c575f80fd5b6116ef565b61166c565b6115ba565b6113a5565b611268565b611015565b610fe5565b610fb1565b610f4a565b610efc565b610e7a565b610e18565b610deb565b610dce565b610d6e565b610b28565b610ad1565b610a38565b610812565b61077b565b610535565b610375565b61034d565b6102de565b6101f7565b6004359060038210156101b857565b5f80fd5b60e4359060038210156101b857565b602435906001600160a01b03821682036101b857565b600435906001600160a01b03821682036101b857565b346101b85760403660031901126101b8576102106101a9565b6102186101cb565b9061022161270f565b6001600160a01b0382169182156102a15761025e9061023f83610fce565b80546001600160a01b0319166001600160a01b03909216919091179055565b600381101561028d577f94ef69703cba20a59301db32d4340e0e7770a4b3f3e4985582152e3caa75789c5f80a3005b634e487b7160e01b5f52602160045260245ffd5b60405162461bcd60e51b8152602060048201526015602482015274496e76616c696420746f6b656e206164647265737360581b6044820152606490fd5b346101b8575f3660031901126101b8576102f661270f565b5f5460ff8160a01c161561033b5760ff60a01b19165f556040513381527f5db9ee0a495bf2e6ff9c91a7834c1ba4fdd244a5e8aa4e537bd38aeae4b073aa90602090a1005b604051638dfc202b60e01b8152600490fd5b346101b8575f3660031901126101b8576007546040516001600160a01b039091168152602090f35b60203660031901126101b85760043561038c61273a565b61039461277c565b6103a6815f52600160205260405f2090565b6103bc6103b7602d83015460ff1690565b611779565b6103cb602a82015442106117b9565b61040b6104066104026103fb6103e9865f52600360205260405f2090565b335f9081526020919091526040902090565b5460ff1690565b1590565b6117f8565b602c8101906104208254602983015411611850565b603881015460ff16610431816106e5565b806104eb5750602861044691015434146118e3565b6104503382611927565b61048b61047e33610469855f52600360205260405f2090565b9060018060a01b03165f5260205260405f2090565b805460ff19166001179055565b546040519081523391907f338e0cd33c4e120afcd73f43f082fd8940ed67ac35180d278d2eb4f3ed51d92e9080602081015b0390a36104e960017f9b779b17422d0df92223018b32b4d1fa46e071723d6817e2486d003becc55f0055565b005b90602861052361051761050a61053095610505341561188d565b610fce565b546001600160a01b031690565b6001600160a01b031690565b910154903090339061279c565b610446565b346101b8575f3660031901126101b857602060ff5f5460a01c166040519015158152f35b90600182811c92168015610587575b602083101461057357565b634e487b7160e01b5f52602260045260245ffd5b91607f1691610568565b634e487b7160e01b5f52604160045260245ffd5b6080810190811067ffffffffffffffff8211176105c157604052565b610591565b610120810190811067ffffffffffffffff8211176105c157604052565b90601f8019910116810190811067ffffffffffffffff8211176105c157604052565b9060405191825f825461061781610559565b908184526020946001916001811690815f146106855750600114610647575b505050610645925003836105e3565b565b5f90815285812095935091905b81831061066d57505061064593508201015f8080610636565b85548884018501529485019487945091830191610654565b9250505061064594925060ff191682840152151560051b8201015f8080610636565b91908251928382525f5b8481106106d1575050825f602080949584010152601f8019910116010190565b6020818301810151848301820152016106b1565b6003111561028d57565b90600382101561028d5752565b97939c9b9995916106459b979361072b610739928b6101609d99956020610180928392815201528c01906106a7565b908a820360408c01526106a7565b606089019d909d52608088015260a087015260c08601526001600160a01b031660e08501521515610100840152151561012083015261014082015201906106ef565b346101b85760203660031901126101b8576004355f52600160205260405f20805461080e6107ab60018401610605565b916107b860028501610605565b936027810154916028820154906029830154602a84015460018060a01b03602b8601541691602d860154946107f66038603789015498015460ff1690565b976040519b8c9b60ff808a60081c169916978d6106fc565b0390f35b346101b85760203660031901126101b85761082b61270f565b61083f6004355f52600160205260405f2090565b602d8101546108539060081c60ff1661194a565b61088b603861088261087a610871602c860154602887015490611a2a565b60065490611a2a565b612710900490565b92015460ff1690565b610894816106e5565b806108c357505f8080806104e9946108b360075460018060a01b031690565b5af16108bd611a62565b50611a91565b906108d661051761050a6104e994610fce565b6007546001600160a01b03169061282d565b604051906101e0820182811067ffffffffffffffff8211176105c157604052565b67ffffffffffffffff81116105c157601f01601f191660200190565b81601f820112156101b85780359061093c82610909565b9261094a60405194856105e3565b828452602083830101116101b857815f926020809301838601378301015290565b9080601f830112156101b8576040805192610985846105c6565b836101208201928484116101b85782915b8483106109a65750505050505090565b67ffffffffffffffff9083358281116101b8578501906080828903126101b85783516109d1816105a5565b82358481116101b857896109e6918501610925565b8152602092838101358581116101b8578a610a02918301610925565b84830152858101359485116101b857610a1f8a6020968301610925565b8683015260608091013590820152815201920191610996565b346101b8576101003660031901126101b85767ffffffffffffffff6004358181116101b857610a6b903690600401610925565b906024358181116101b857610a84903690600401610925565b6044359182116101b85761080e92610aa3610ac193369060040161096b565b610aab6101bc565b9260c4359260a435926084359260643592611ad3565b6040519081529081906020820190565b346101b8575f3660031901126101b857610ae961270f565b5f80546001600160a01b0319811682556001600160a01b03167f8be0079c531659141344cd1fd0a4f28419497f9722a3daafe3b4186f6b6457e08280a3005b346101b85760403660031901126101b857602435600435610b4761273a565b7f64da964e036dd66a7be792791f60a47ec5378950b9d12795de3f453aa3940eb06104bd610b7d835f52600160205260405f2090565b602d810154610b919060081c60ff1661217b565b610c5b603860278301610ba6815489106121bf565b610c1b610c0689602e8701610c01610bd6610bc18484612201565b905460039190911b1c6001600160a01b031690565b6001600160a01b0390610bec9082163314612210565b610bf9610bc18585612201565b16151561224b565b612201565b81549060018060a01b039060031b1b19169055565b610c46610c31602c860154602887015490611a2a565b610c4061087a60065483611a2a565b906122ab565b905460018103610cbc5750925b015460ff1690565b610c64816106e5565b8181610c9e57610c8591505f80808093335af1610c7f611a62565b506122b8565b6040805195865260208601919091523394918291820190565b610cb791610cb261051761050a3393610fce565b61282d565b610c85565b60028103610cf4575087610ce357610cd6610cdd91611a14565b6064900490565b92610c53565b610cd6610cef916119fe565b610cdd565b60038103610d2e575087610d0e57610cd6610cdd916119e8565b60018803610d2257610cd6610cdd916119d2565b610cd6610cdd916119bc565b610cdd91610d61610d41610cd693611a51565b60038c1015610d6757610d5b610d568d6119a1565b61228f565b90611e98565b90611a2a565b5f90611e98565b346101b8575f3660031901126101b857610d8661270f565b610d8e61277c565b5f805460ff60a01b1916600160a01b1790556040513381527f62e78cea01bee320cd4e420270b5ea74000d11b0c9f74754ebdbfc544b05a25890602090a1005b346101b8575f3660031901126101b8576020600554604051908152f35b346101b85760203660031901126101b8576004355f5260016020526020602c60405f200154604051908152f35b346101b8575f3660031901126101b8575f546040516001600160a01b039091168152602090f35b60209060206040818301928281528551809452019301915f5b828110610e66575050505090565b835185529381019392810192600101610e58565b346101b8576020806003193601126101b8576001600160a01b03610e9c6101e1565b165f52600260205260405f20906040519081602084549182815201935f5260205f20915f905b828210610ee55761080e85610ed9818903826105e3565b60405191829182610e3f565b835486529485019460019384019390910190610ec2565b346101b85760403660031901126101b857602060ff610f3e610f1c6101cb565b6004355f526003845260405f209060018060a01b03165f5260205260405f2090565b54166040519015158152f35b346101b85760203660031901126101b857600435610f6661270f565b6103e88111610f7457600655005b60405162461bcd60e51b81526020600482015260156024820152744665652063616e6e6f74206578636565642031302560581b6044820152606490fd5b346101b8575f3660031901126101b8576020600654604051908152f35b600381101561028d575f52600460205260405f2090565b346101b85760203660031901126101b85760206001600160a01b0361100b6105056101a9565b5416604051908152f35b346101b85760203660031901126101b85760043561103161273a565b611043815f52600160205260405f2090565b602d81019061107460ff835461105a828216611779565b61106a602a8501544210156122fc565b60081c1615612348565b602c810161109e81549361108f60278501958654111561238c565b805461ffff1916610100179055565b8054916110aa836123f0565b925f5b8181106111bb5750505f5b84548110156111565760019084516110d1575b016110b8565b6110e66110de828961288c565b865190612463565b61112b611100610bc16110f9848a61244f565b518861138b565b61110d84602e8801612201565b90919060018060a01b038084549260031b9316831b921b1916179055565b61114961114161113b885161229d565b8861244f565b51918761244f565b5284515f190185526110cb565b857f72bd9bc9c36d3ba05a21c09bc04253e96e35f3d3a1b894df83dac0841f01926983875461118f604051928392602e4292018461249e565b0390a26104e960017f9b779b17422d0df92223018b32b4d1fa46e071723d6817e2486d003becc55f0055565b80806111c96001938861244f565b52016110ad565b9081518082526020808093019301915f5b8281106111ef575050505090565b83516001600160a01b0316855293810193928101926001016111e1565b909291604082019160408152845180935260608101926020809601905f5b81811061124a5750505061124793945060208184039101526111d0565b90565b90919487808261125d6001948a516106ef565b01960192910161122a565b346101b8575f3660031901126101b857604051611284816105a5565b6003815260603660208301376040519061129d826105a5565b6003825260603660208401375f6112b382612422565b525f6112be83612422565b5260016112ca8261242f565b5260015f5260046020526113186113007fabd6e7cb50984ff9c2f3e18a2660c3353dadf4e3291deeb275dae2cd1e44fe0561050a565b6113098461242f565b6001600160a01b039091169052565b61132a6113248261243f565b60029052565b60025f52600460205261136861135f7f91da3fd0782e51c6b3986e9e672fd566868e71f3dbc2d6c2cd6fbb3e361af2a761050a565b6113098461243f565b61080e6040519283928361120c565b634e487b7160e01b5f52603260045260245ffd5b80548210156113a0575f5260205f2001905f90565b611377565b346101b85760403660031901126101b8576113be6101e1565b6001600160a01b03165f908152600260205260409020805460243591908210156101b8576020916113ee9161138b565b90546040519160031b1c8152f35b6101208201915f815b60098210611414575050505090565b909192936114518185600193038452865161143860808251908085528401906106a7565b91611464602094859485850151848203878601526106a7565b60408085015190848303908501526106a7565b91606080910151910152960192019201909291611405565b5f915b6009831061148c57505050565b81516001600160a01b03168152600192909201916020918201910161147f565b61124790602081528251602082015260208301516101c06114db6102e0928360408601526103008501906106a7565b9461156b6115126114fe604084015198601f19998a8983030160608a01526106a7565b6060840151898883030160808901526113fc565b608083015160a087015260a083015160c087015260c083015160e087015260e08301516101009081880152830151611557610120918289019060018060a01b03169052565b8301516101409887830301898801526111d0565b95810151611580610160918287019015159052565b810151611594610180918287019015159052565b8101516115a76101a0918287019061147c565b8101516102c085015201519101906106ef565b346101b85760203660031901126101b8575f6101c06115d76108e8565b82815260606020820152606060408201526115f06124ca565b60608201528260808201528260a08201528260c08201528260e08201528261010082015260606101208201528261014082015282610160820152611632612516565b610180820152826101a0820152015261080e61166061165b6004355f52600160205260405f2090565b612625565b604051918291826114ac565b346101b85760203660031901126101b8576116856101e1565b61168d61270f565b6001600160a01b031680156116b8576bffffffffffffffffffffffff60a01b60075416176007555f80f35b60405162461bcd60e51b815260206004820152600f60248201526e496e76616c6964206164647265737360881b6044820152606490fd5b346101b85760203660031901126101b8576117086101e1565b61171061270f565b6001600160a01b03908116908115611761575f54826bffffffffffffffffffffffff60a01b8216175f55167f8be0079c531659141344cd1fd0a4f28419497f9722a3daafe3b4186f6b6457e05f80a3005b604051631e4fbdf760e01b81525f6004820152602490fd5b1561178057565b60405162461bcd60e51b8152602060048201526011602482015270526166666c65206e6f742061637469766560781b6044820152606490fd5b156117c057565b60405162461bcd60e51b815260206004820152601060248201526f149859999b19481a185cc8195b99195960821b6044820152606490fd5b156117ff57565b60405162461bcd60e51b8152602060048201526024808201527f416c72656164792070617274696369706174696e6720696e207468697320726160448201526366666c6560e01b6064820152608490fd5b1561185757565b60405162461bcd60e51b815260206004820152600e60248201526d149859999b19481a5cc8199d5b1b60921b6044820152606490fd5b1561189457565b60405162461bcd60e51b815260206004820152602160248201527f436f696e206e6f7420616363657074656420666f72207468697320726166666c6044820152606560f81b6064820152608490fd5b156118ea57565b60405162461bcd60e51b8152602060048201526015602482015274496e636f727265637420656e74727920707269636560581b6044820152606490fd5b90815491600160401b8310156105c1578261110d9160016106459501815561138b565b1561195157565b60405162461bcd60e51b8152602060048201526014602482015273149859999b19481b9bdd0818dbdb5c1b195d195960621b6044820152606490fd5b634e487b7160e01b5f52601160045260245ffd5b906005820291808304600514901517156119b757565b61198d565b90600f820291808304600f14901517156119b757565b906019820291808304601914901517156119b757565b90603c820291808304603c14901517156119b757565b90601e820291808304601e14901517156119b757565b906046820291808304604614901517156119b757565b818102929181159184041417156119b757565b634e487b7160e01b5f52601260045260245ffd5b8015611a5d5760640490565b611a3d565b3d15611a8c573d90611a7382610909565b91611a8160405193846105e3565b82523d5f602084013e565b606090565b15611a9857565b60405162461bcd60e51b8152602060048201526013602482015272119959481d1c985b9cd9995c8819985a5b1959606a1b6044820152606490fd5b959692919091611ae161277c565b611aec851515611caf565b611af7818711611d07565b80151580611ca4575b611b0990611d6d565b611b14881515611db8565b611b2087511515611e04565b611b29846106e5565b83611c80575b90611b56979492959391600554988996611b50611b4b89611e8a565b600555565b42611e98565b96611b69875f52600160205260405f2090565b92878455611b89600192611b808c60018801611ef4565b60028601611ef4565b600384015f5b60098110611c45575050505060278201556028810183905560298101849055602a8101869055602b810180546001600160a01b03191633179055602d8101805461ffff1916600117905593947f5a8a1ae9ad460c82e72822c530f5c894e9e40fea7f07bd9ec01c0f392615866c94611c3f929190611c18908390603890426037820155016120fb565b335f908152600260205260409020611c31908890612113565b604051948594339986612147565b0390a390565b83949596989a979950611c6f611c5e8285969495611fc4565b51611c698386611fd5565b90611fe8565b01908b989699979594939291611b8f565b611c9f6001600160a01b03611c9761050a87610fce565b161515611e48565b611b2f565b506009811115611b00565b15611cb657565b60405162461bcd60e51b815260206004820152602360248201527f5469636b6574207072696365206d75737420626520677265617465722074686160448201526206e20360ec1b6064820152608490fd5b15611d0e57565b60405162461bcd60e51b815260206004820152603160248201527f4d7573742068617665206174206c656173742031206d6f7265207061727469636044820152706970616e74207468616e207072697a657360781b6064820152608490fd5b15611d7457565b606460405162461bcd60e51b815260206004820152602060248201527f4d7573742068617665206265747765656e203120616e642039207072697a65736044820152fd5b15611dbf57565b60405162461bcd60e51b815260206004820152601f60248201527f4475726174696f6e206d7573742062652067726561746572207468616e2030006044820152606490fd5b15611e0b57565b60405162461bcd60e51b81526020600482015260156024820152745469746c652063616e6e6f7420626520656d70747960581b6044820152606490fd5b15611e4f57565b60405162461bcd60e51b8152602060048201526013602482015272151bdad95b881b9bdd081cdd5c1c1bdc9d1959606a1b6044820152606490fd5b5f1981146119b75760010190565b919082018092116119b757565b601f8211611eb257505050565b5f5260205f20906020601f840160051c83019310611eea575b601f0160051c01905b818110611edf575050565b5f8155600101611ed4565b9091508190611ecb565b919091825167ffffffffffffffff81116105c157611f1c81611f168454610559565b84611ea5565b602080601f8311600114611f5d57508190611f4e9394955f92611f52575b50508160011b915f199060031b1c19161790565b9055565b015190505f80611f3a565b90601f19831695611f71855f5260205f2090565b925f905b888210611fac57505083600195969710611f94575b505050811b019055565b01515f1960f88460031b161c191690555f8080611f8a565b80600185968294968601518155019501930190611f75565b9060098110156113a05760051b0190565b9060098110156113a05760021b01905f90565b91906120e857805180519067ffffffffffffffff82116105c157612016826120108654610559565b86611ea5565b602090816001601f8511146120785750826060936003959361204c935f92611f525750508160011b915f199060031b1c19161790565b84555b612060602082015160018601611ef4565b612071604082015160028601611ef4565b0151910155565b9190601f19841661208c875f5260205f2090565b935f905b8282106120d057505092600192859260609660039896106120b9575b505050811b01845561204f565b01515f1983881b60f8161c191690555f80806120ac565b80600186978294978701518155019601940190612090565b634e487b7160e01b5f525f60045260245ffd5b90600381101561028d5760ff80198354169116179055565b8054600160401b8110156105c1576121309160018201815561138b565b819291549060031b91821b915f19901b1916179055565b90936080929695936121646106459660a0855260a08501906106a7565b9760208401526040830152606082015201906106ef565b1561218257565b60405162461bcd60e51b815260206004820152601560248201527415da5b9b995c9cc81b9bdd08191c985ddb881e595d605a1b6044820152606490fd5b156121c657565b60405162461bcd60e51b8152602060048201526013602482015272092dcecc2d8d2c840e0e4d2f4ca40d2dcc8caf606b1b6044820152606490fd5b60098210156113a05701905f90565b1561221757565b60405162461bcd60e51b815260206004820152600c60248201526b2737ba1030903bb4b73732b960a11b6044820152606490fd5b1561225257565b60405162461bcd60e51b8152602060048201526015602482015274141c9a5e9948185b1c9958591e4818db185a5b5959605a1b6044820152606490fd5b60140390601482116119b757565b5f198101919082116119b757565b919082039182116119b757565b156122bf57565b60405162461bcd60e51b8152602060048201526015602482015274141c9a5e99481d1c985b9cd9995c8819985a5b1959605a1b6044820152606490fd5b1561230357565b60405162461bcd60e51b815260206004820152601860248201527f526166666c6520686173206e6f7420656e6465642079657400000000000000006044820152606490fd5b1561234f57565b60405162461bcd60e51b81526020600482015260156024820152742bb4b73732b9399030b63932b0b23c90323930bbb760591b6044820152606490fd5b1561239357565b60405162461bcd60e51b815260206004820152601760248201527f4e6f7420656e6f756768207061727469636970616e74730000000000000000006044820152606490fd5b67ffffffffffffffff81116105c15760051b60200190565b906123fa826123d8565b61240760405191826105e3565b8281528092612418601f19916123d8565b0190602036910137565b8051156113a05760200190565b8051600110156113a05760400190565b8051600210156113a05760600190565b80518210156113a05760209160051b010190565b8115611a5d570690565b905f905b6009821061247e57505050565b82546001600160a01b031681526001928301929190910190602001612471565b610140919493926124b48261016081019761246d565b6101208201520152565b600382101561028d5752565b6040906040516124d9816105c6565b80925f5b61012081106124eb57505050565b60209082516124f9816105a5565b5f60608083528085840152808684015282015281850152016124dd565b60405190612523826105c6565b610120368337565b9060409160405192610120840184811067ffffffffffffffff8211176105c1576040525f90845b600983106125605750505050565b6004600191835190612571826105a5565b61257a87610605565b8252612587848801610605565b916020928382015261259b60028901610605565b8682015260038801546060820152815201940192019192612552565b90604051918281549182825260209260208301915f5260205f20935f905b8282106125eb57505050610645925003836105e3565b85546001600160a01b0316845260019586019588955093810193909101906125d5565b9061261c604051809361246d565b610645826105c6565b9061064561270560386126366108e8565b948054865261264760018201610605565b602087015261265860028201610605565b60408701526126696003820161252b565b606087015260278101546080870152602881015460a0870152602981015460c0870152602a81015460e0870152602b8101546001600160a01b03166101008701526126b6602c82016125b7565b610120870152602d81015460ff81811615156101408901526126e09160081c161515610160880152565b6126ec602e820161260e565b61018087015260378101546101a0870152015460ff1690565b6101c084016124be565b5f546001600160a01b0316330361272257565b60405163118cdaa760e01b8152336004820152602490fd5b7f9b779b17422d0df92223018b32b4d1fa46e071723d6817e2486d003becc55f00600281541461276a5760029055565b604051633ee5aeb560e01b8152600490fd5b60ff5f5460a01c1661278a57565b60405163d93c066560e01b8152600490fd5b6040516323b872dd60e01b5f9081526001600160a01b03938416600452938316602452604494909452909160209060648180855af160015f511481161561280e575b836040525f606052156127f057505050565b635274afe760e01b8352166001600160a01b03166004820152602490fd5b600181151661282457813b15153d1516166127de565b833d5f823e3d90fd5b60405163a9059cbb60e01b5f9081526001600160a01b039384166004526024949094529260209060448180855af160015f5114811615612876575b83604052156127f057505050565b600181151661282457813b15153d151616612868565b90604051906020820192428452446040840152606083015260808201523360601b60a08201526094815260c0810181811067ffffffffffffffff8211176105c1576040525190209056fea26469706673582212202c251f4cd3454966546253f47ffaefb3a17c1e4c299c7837e0747d9035bd86ec64736f6c63430008180033","linkReferences":{}},"methodIdentifiers":{"claimPrize(uint256,uint256)":"7b154140","createRaffle(string,string,(string,string,string,uint256)[9],uint256,uint256,uint256,uint256,uint8)":"68277c51","drawWinners(uint256)":"d1d06b2e","feeRecipient()":"46904840","getParticipantCount(uint256)":"86ae5fec","getRaffle(uint256)":"e4dafec9","getSupportedTokens()":"d3c7c2c7","getUserRaffles(address)":"98d71138","hasParticipated(uint256,address)":"a34398a2","joinRaffle(uint256)":"4758eca9","nextRaffleId()":"8458e3e4","owner()":"8da5cb5b","pause()":"8456cb59","paused()":"5c975abb","platformFeePercentage()":"cdd78cfc","raffles(uint256)":"5d4bc0ce","renounceOwnership()":"715018a6","setTokenAddress(uint8,address)":"290060ac","tokenAddresses(uint8)":"cf0d7437","transferOwnership(address)":"f2fde38b","unpause()":"3f4ba83a","updateFeeRecipient(address)":"f160d369","updatePlatformFee(uint256)":"aa0b5988","userRaffles(address,uint256)":"d51075c1","withdrawFees(uint256)":"5e318e07"},"id":0}