{"abi":[{"type":"function","name":"verify","inputs":[{"name":"key","type":"bytes","internalType":"bytes"},{"name":"hash","type":"bytes32","internalType":"bytes32"},{"name":"signature","type":"bytes","internalType":"bytes"}],"outputs":[{"name":"","type":"bytes4","internalType":"bytes4"}],"stateMutability":"view"}],"bytecode":{"object":"0x60808060405234610016576104f4908161001b8239f35b5f80fdfe6040608081526004361015610012575f80fd5b5f3560e01c63024ad31814610025575f80fd5b346101525760603660031901126101525767ffffffffffffffff60043581811161015257610057903690600401610156565b9160443581811161015257610070903690600401610156565b919093830192858185031261015257803582811161015257846100949183016101ec565b936020820135838111610152576100ab92016101ec565b93855192602435602085015260208452868401928484109084111761013e576100df5f926100eb926020958a5236916101a6565b9387519182809261020a565b039060025afa15610134579161010691602094935f51610233565b156101255762495a6360e31b905b516001600160e01b03199091168152f35b6001600160e01b031990610114565b83513d5f823e3d90fd5b634e487b7160e01b5f52604160045260245ffd5b5f80fd5b9181601f840112156101525782359167ffffffffffffffff8311610152576020838186019501011161015257565b90601f8019910116810190811067ffffffffffffffff82111761013e57604052565b92919267ffffffffffffffff821161013e57604051916101d0601f8201601f191660200184610184565b829481845281830111610152578281602093845f960137010152565b9080601f8301121561015257816020610207933591016101a6565b90565b908151915f5b838110610220575050015f815290565b8060208092840101518185015201610210565b9092805192610100841080156103df575b61036d57601f198401945f5b858110610388575b50610265939495506103ea565b9290156103765780830160111981015190916001600160f81b0319918216603160f81b0361032c57720181898068304b0432400b281820100828002160651b916bffffffffffffffffffffffff19916034905b039060025b82811061030957505060208601516001600160f01b031916600160f01b1495866102f7575b50505050826102f057505090565b5114919050565b0160200151161492505f8080806102e2565b81806020838b0101511603610320576001016102bd565b50505050505050505f90565b600f198301518216602f60f81b0361036d57700181798058304b0432400b28182010082160751b916dffffffffffffffffffffffffffff19916032906102b8565b50505050505f90565b634e487b715f5260126020526024601cfd5b8681108782180287186020808285010151908287010151908181105f146103b157505050610258565b1190889082156103d5575b50506103ca57602001610250565b505050505050505f90565b149050875f6103bc565b508451841415610244565b92906103f583610489565b61045b576020906104468451916104388751966104328351936104326040519b8c968a88019c8d526040880152886060880152608087019061020a565b9061020a565b03601f198101875286610184565b80859486518160055afa948181520101604052565b50915050604051906020820182811067ffffffffffffffff82111761013e576040525f82525f3681375f9190565b5f5b81518110156104b757818101602001516001600160f81b0319166104b15760010161048b565b50505f90565b505060019056fea2646970667358221220e1f312333f97b95b923959a7aef12a0c78adc283c17bc97df35f6e3475d9790164736f6c63430008180033","linkReferences":{}},"methodIdentifiers":{"verify(bytes,bytes32,bytes)":"024ad318"},"id":233}