{
  "_format": "hh-sol-artifact-1",
  "contractName": "RaffleContract",
  "sourceName": "contracts/RaffleContract.sol",
  "abi": [
    {
      "inputs": [
        {
          "internalType": "address",
          "name": "_feeRecipient",
          "type": "address"
        }
      ],
      "stateMutability": "nonpayable",
      "type": "constructor"
    },
    {
      "anonymous": false,
      "inputs": [
        {
          "indexed": true,
          "internalType": "address",
          "name": "previousOwner",
          "type": "address"
        },
        {
          "indexed": true,
          "internalType": "address",
          "name": "newOwner",
          "type": "address"
        }
      ],
      "name": "OwnershipTransferred",
      "type": "event"
    },
    {
      "anonymous": false,
      "inputs": [
        {
          "indexed": true,
          "internalType": "uint256",
          "name": "raffleId",
          "type": "uint256"
        },
        {
          "indexed": true,
          "internalType": "address",
          "name": "participant",
          "type": "address"
        },
        {
          "indexed": false,
          "internalType": "uint256",
          "name": "participantCount",
          "type": "uint256"
        }
      ],
      "name": "ParticipantJoined",
      "type": "event"
    },
    {
      "anonymous": false,
      "inputs": [
        {
          "indexed": false,
          "internalType": "address",
          "name": "account",
          "type": "address"
        }
      ],
      "name": "Paused",
      "type": "event"
    },
    {
      "anonymous": false,
      "inputs": [
        {
          "indexed": true,
          "internalType": "uint256",
          "name": "raffleId",
          "type": "uint256"
        },
        {
          "indexed": true,
          "internalType": "address",
          "name": "winner",
          "type": "address"
        },
        {
          "indexed": false,
          "internalType": "uint256",
          "name": "prizeIndex",
          "type": "uint256"
        },
        {
          "indexed": false,
          "internalType": "uint256",
          "name": "amount",
          "type": "uint256"
        }
      ],
      "name": "PrizeClaimed",
      "type": "event"
    },
    {
      "anonymous": false,
      "inputs": [
        {
          "indexed": true,
          "internalType": "uint256",
          "name": "raffleId",
          "type": "uint256"
        },
        {
          "indexed": true,
          "internalType": "address",
          "name": "creator",
          "type": "address"
        },
        {
          "indexed": false,
          "internalType": "string",
          "name": "title",
          "type": "string"
        },
        {
          "indexed": false,
          "internalType": "uint256",
          "name": "ticketPrice",
          "type": "uint256"
        },
        {
          "indexed": false,
          "internalType": "uint256",
          "name": "maxParticipants",
          "type": "uint256"
        },
        {
          "indexed": false,
          "internalType": "uint256",
          "name": "endTime",
          "type": "uint256"
        },
        {
          "indexed": false,
          "internalType": "enum RaffleContract.PaymentToken",
          "name": "paymentToken",
          "type": "uint8"
        }
      ],
      "name": "RaffleCreated",
      "type": "event"
    },
    {
      "anonymous": false,
      "inputs": [
        {
          "indexed": true,
          "internalType": "uint256",
          "name": "raffleId",
          "type": "uint256"
        },
        {
          "indexed": false,
          "internalType": "address[9]",
          "name": "winners",
          "type": "address[9]"
        },
        {
          "indexed": false,
          "internalType": "uint256",
          "name": "prizeCount",
          "type": "uint256"
        },
        {
          "indexed": false,
          "internalType": "uint256",
          "name": "timestamp",
          "type": "uint256"
        }
      ],
      "name": "RaffleDrawn",
      "type": "event"
    },
    {
      "anonymous": false,
      "inputs": [
        {
          "indexed": true,
          "internalType": "enum RaffleContract.PaymentToken",
          "name": "token",
          "type": "uint8"
        },
        {
          "indexed": true,
          "internalType": "address",
          "name": "tokenAddress",
          "type": "address"
        }
      ],
      "name": "TokenAddressUpdated",
      "type": "event"
    },
    {
      "anonymous": false,
      "inputs": [
        {
          "indexed": false,
          "internalType": "address",
          "name": "account",
          "type": "address"
        }
      ],
      "name": "Unpaused",
      "type": "event"
    },
    {
      "inputs": [
        {
          "internalType": "uint256",
          "name": "_raffleId",
          "type": "uint256"
        },
        {
          "internalType": "uint256",
          "name": "_prizeIndex",
          "type": "uint256"
        }
      ],
      "name": "claimPrize",
      "outputs": [],
      "stateMutability": "nonpayable",
      "type": "function"
    },
    {
      "inputs": [
        {
          "internalType": "string",
          "name": "_title",
          "type": "string"
        },
        {
          "internalType": "string",
          "name": "_description",
          "type": "string"
        },
        {
          "components": [
            {
              "internalType": "string",
              "name": "name",
              "type": "string"
            },
            {
              "internalType": "string",
              "name": "description",
              "type": "string"
            },
            {
              "internalType": "string",
              "name": "imageUrl",
              "type": "string"
            },
            {
              "internalType": "uint256",
              "name": "value",
              "type": "uint256"
            }
          ],
          "internalType": "struct RaffleContract.Prize[9]",
          "name": "_prizes",
          "type": "tuple[9]"
        },
        {
          "internalType": "uint256",
          "name": "_prizeCount",
          "type": "uint256"
        },
        {
          "internalType": "uint256",
          "name": "_ticketPrice",
          "type": "uint256"
        },
        {
          "internalType": "uint256",
          "name": "_maxParticipants",
          "type": "uint256"
        },
        {
          "internalType": "uint256",
          "name": "_duration",
          "type": "uint256"
        },
        {
          "internalType": "enum RaffleContract.PaymentToken",
          "name": "_paymentToken",
          "type": "uint8"
        }
      ],
      "name": "createRaffle",
      "outputs": [
        {
          "internalType": "uint256",
          "name": "",
          "type": "uint256"
        }
      ],
      "stateMutability": "nonpayable",
      "type": "function"
    },
    {
      "inputs": [
        {
          "internalType": "uint256",
          "name": "_raffleId",
          "type": "uint256"
        }
      ],
      "name": "drawWinners",
      "outputs": [],
      "stateMutability": "nonpayable",
      "type": "function"
    },
    {
      "inputs": [],
      "name": "feeRecipient",
      "outputs": [
        {
          "internalType": "address",
          "name": "",
          "type": "address"
        }
      ],
      "stateMutability": "view",
      "type": "function"
    },
    {
      "inputs": [
        {
          "internalType": "uint256",
          "name": "_raffleId",
          "type": "uint256"
        }
      ],
      "name": "getParticipantCount",
      "outputs": [
        {
          "internalType": "uint256",
          "name": "",
          "type": "uint256"
        }
      ],
      "stateMutability": "view",
      "type": "function"
    },
    {
      "inputs": [
        {
          "internalType": "uint256",
          "name": "_raffleId",
          "type": "uint256"
        }
      ],
      "name": "getRaffle",
      "outputs": [
        {
          "components": [
            {
              "internalType": "uint256",
              "name": "id",
              "type": "uint256"
            },
            {
              "internalType": "string",
              "name": "title",
              "type": "string"
            },
            {
              "internalType": "string",
              "name": "description",
              "type": "string"
            },
            {
              "components": [
                {
                  "internalType": "string",
                  "name": "name",
                  "type": "string"
                },
                {
                  "internalType": "string",
                  "name": "description",
                  "type": "string"
                },
                {
                  "internalType": "string",
                  "name": "imageUrl",
                  "type": "string"
                },
                {
                  "internalType": "uint256",
                  "name": "value",
                  "type": "uint256"
                }
              ],
              "internalType": "struct RaffleContract.Prize[9]",
              "name": "prizes",
              "type": "tuple[9]"
            },
            {
              "internalType": "uint256",
              "name": "prizeCount",
              "type": "uint256"
            },
            {
              "internalType": "uint256",
              "name": "ticketPrice",
              "type": "uint256"
            },
            {
              "internalType": "uint256",
              "name": "maxParticipants",
              "type": "uint256"
            },
            {
              "internalType": "uint256",
              "name": "endTime",
              "type": "uint256"
            },
            {
              "internalType": "address",
              "name": "creator",
              "type": "address"
            },
            {
              "internalType": "address[]",
              "name": "participants",
              "type": "address[]"
            },
            {
              "internalType": "bool",
              "name": "isActive",
              "type": "bool"
            },
            {
              "internalType": "bool",
              "name": "isDrawn",
              "type": "bool"
            },
            {
              "internalType": "address[9]",
              "name": "winners",
              "type": "address[9]"
            },
            {
              "internalType": "uint256",
              "name": "createdAt",
              "type": "uint256"
            },
            {
              "internalType": "enum RaffleContract.PaymentToken",
              "name": "paymentToken",
              "type": "uint8"
            }
          ],
          "internalType": "struct RaffleContract.Raffle",
          "name": "",
          "type": "tuple"
        }
      ],
      "stateMutability": "view",
      "type": "function"
    },
    {
      "inputs": [],
      "name": "getSupportedTokens",
      "outputs": [
        {
          "internalType": "enum RaffleContract.PaymentToken[]",
          "name": "",
          "type": "uint8[]"
        },
        {
          "internalType": "address[]",
          "name": "",
          "type": "address[]"
        }
      ],
      "stateMutability": "view",
      "type": "function"
    },
    {
      "inputs": [
        {
          "internalType": "address",
          "name": "_user",
          "type": "address"
        }
      ],
      "name": "getUserRaffles",
      "outputs": [
        {
          "internalType": "uint256[]",
          "name": "",
          "type": "uint256[]"
        }
      ],
      "stateMutability": "view",
      "type": "function"
    },
    {
      "inputs": [
        {
          "internalType": "uint256",
          "name": "",
          "type": "uint256"
        },
        {
          "internalType": "address",
          "name": "",
          "type": "address"
        }
      ],
      "name": "hasParticipated",
      "outputs": [
        {
          "internalType": "bool",
          "name": "",
          "type": "bool"
        }
      ],
      "stateMutability": "view",
      "type": "function"
    },
    {
      "inputs": [
        {
          "internalType": "uint256",
          "name": "_raffleId",
          "type": "uint256"
        }
      ],
      "name": "joinRaffle",
      "outputs": [],
      "stateMutability": "payable",
      "type": "function"
    },
    {
      "inputs": [],
      "name": "nextRaffleId",
      "outputs": [
        {
          "internalType": "uint256",
          "name": "",
          "type": "uint256"
        }
      ],
      "stateMutability": "view",
      "type": "function"
    },
    {
      "inputs": [],
      "name": "owner",
      "outputs": [
        {
          "internalType": "address",
          "name": "",
          "type": "address"
        }
      ],
      "stateMutability": "view",
      "type": "function"
    },
    {
      "inputs": [],
      "name": "pause",
      "outputs": [],
      "stateMutability": "nonpayable",
      "type": "function"
    },
    {
      "inputs": [],
      "name": "paused",
      "outputs": [
        {
          "internalType": "bool",
          "name": "",
          "type": "bool"
        }
      ],
      "stateMutability": "view",
      "type": "function"
    },
    {
      "inputs": [],
      "name": "platformFeePercentage",
      "outputs": [
        {
          "internalType": "uint256",
          "name": "",
          "type": "uint256"
        }
      ],
      "stateMutability": "view",
      "type": "function"
    },
    {
      "inputs": [
        {
          "internalType": "uint256",
          "name": "",
          "type": "uint256"
        }
      ],
      "name": "raffles",
      "outputs": [
        {
          "internalType": "uint256",
          "name": "id",
          "type": "uint256"
        },
        {
          "internalType": "string",
          "name": "title",
          "type": "string"
        },
        {
          "internalType": "string",
          "name": "description",
          "type": "string"
        },
        {
          "internalType": "uint256",
          "name": "prizeCount",
          "type": "uint256"
        },
        {
          "internalType": "uint256",
          "name": "ticketPrice",
          "type": "uint256"
        },
        {
          "internalType": "uint256",
          "name": "maxParticipants",
          "type": "uint256"
        },
        {
          "internalType": "uint256",
          "name": "endTime",
          "type": "uint256"
        },
        {
          "internalType": "address",
          "name": "creator",
          "type": "address"
        },
        {
          "internalType": "bool",
          "name": "isActive",
          "type": "bool"
        },
        {
          "internalType": "bool",
          "name": "isDrawn",
          "type": "bool"
        },
        {
          "internalType": "uint256",
          "name": "createdAt",
          "type": "uint256"
        },
        {
          "internalType": "enum RaffleContract.PaymentToken",
          "name": "paymentToken",
          "type": "uint8"
        }
      ],
      "stateMutability": "view",
      "type": "function"
    },
    {
      "inputs": [],
      "name": "renounceOwnership",
      "outputs": [],
      "stateMutability": "nonpayable",
      "type": "function"
    },
    {
      "inputs": [
        {
          "internalType": "enum RaffleContract.PaymentToken",
          "name": "_token",
          "type": "uint8"
        },
        {
          "internalType": "address",
          "name": "_tokenAddress",
          "type": "address"
        }
      ],
      "name": "setTokenAddress",
      "outputs": [],
      "stateMutability": "nonpayable",
      "type": "function"
    },
    {
      "inputs": [
        {
          "internalType": "enum RaffleContract.PaymentToken",
          "name": "",
          "type": "uint8"
        }
      ],
      "name": "tokenAddresses",
      "outputs": [
        {
          "internalType": "address",
          "name": "",
          "type": "address"
        }
      ],
      "stateMutability": "view",
      "type": "function"
    },
    {
      "inputs": [
        {
          "internalType": "address",
          "name": "newOwner",
          "type": "address"
        }
      ],
      "name": "transferOwnership",
      "outputs": [],
      "stateMutability": "nonpayable",
      "type": "function"
    },
    {
      "inputs": [],
      "name": "unpause",
      "outputs": [],
      "stateMutability": "nonpayable",
      "type": "function"
    },
    {
      "inputs": [
        {
          "internalType": "address",
          "name": "_newFeeRecipient",
          "type": "address"
        }
      ],
      "name": "updateFeeRecipient",
      "outputs": [],
      "stateMutability": "nonpayable",
      "type": "function"
    },
    {
      "inputs": [
        {
          "internalType": "uint256",
          "name": "_newFeePercentage",
          "type": "uint256"
        }
      ],
      "name": "updatePlatformFee",
      "outputs": [],
      "stateMutability": "nonpayable",
      "type": "function"
    },
    {
      "inputs": [
        {
          "internalType": "address",
          "name": "",
          "type": "address"
        },
        {
          "internalType": "uint256",
          "name": "",
          "type": "uint256"
        }
      ],
      "name": "userRaffles",
      "outputs": [
        {
          "internalType": "uint256",
          "name": "",
          "type": "uint256"
        }
      ],
      "stateMutability": "view",
      "type": "function"
    },
    {
      "inputs": [
        {
          "internalType": "uint256",
          "name": "_raffleId",
          "type": "uint256"
        }
      ],
      "name": "withdrawFees",
      "outputs": [],
      "stateMutability": "nonpayable",
      "type": "function"
    }
  ],
  "bytecode": "0x6080604052600160065560fa6007553480156200001b57600080fd5b50604051620033ef380380620033ef8339810160408190526200003e91620000d3565b60016000556200004e3362000081565b6001805460ff60a01b19169055600880546001600160a01b0319166001600160a01b039290921691909117905562000105565b600180546001600160a01b038381166001600160a01b0319831681179093556040519116919082907f8be0079c531659141344cd1fd0a4f28419497f9722a3daafe3b4186f6b6457e090600090a35050565b600060208284031215620000e657600080fd5b81516001600160a01b0381168114620000fe57600080fd5b9392505050565b6132da80620001156000396000f3fe6080604052600436106101665760003560e01c806386ae5fec116100d1578063cf0d74371161008a578063d51075c111610064578063d51075c114610468578063e4dafec914610488578063f160d369146104b5578063f2fde38b146104d557600080fd5b8063cf0d7437146103ef578063d1d06b2e14610425578063d3c7c2c71461044557600080fd5b806386ae5fec146103035780638da5cb5b1461033357806398d7113814610351578063a34398a21461037e578063aa0b5988146103b9578063cdd78cfc146103d957600080fd5b80635e318e07116101235780635e318e071461025557806368277c5114610275578063715018a6146102a35780637b154140146102b85780638456cb59146102d85780638458e3e4146102ed57600080fd5b8063290060ac1461016b5780633f4ba83a1461018d57806346904840146101a25780634758eca9146101df5780635c975abb146101f25780635d4bc0ce1461021d575b600080fd5b34801561017757600080fd5b5061018b610186366004612841565b6104f5565b005b34801561019957600080fd5b5061018b6105e3565b3480156101ae57600080fd5b506008546101c2906001600160a01b031681565b6040516001600160a01b0390911681526020015b60405180910390f35b61018b6101ed366004612874565b6105f5565b3480156101fe57600080fd5b50600154600160a01b900460ff165b60405190151581526020016101d6565b34801561022957600080fd5b5061023d610238366004612874565b61091e565b6040516101d69c9b9a99989796959493929190612915565b34801561026157600080fd5b5061018b610270366004612874565b610a9e565b34801561028157600080fd5b50610295610290366004612b93565b610c62565b6040519081526020016101d6565b3480156102af57600080fd5b5061018b6110cc565b3480156102c457600080fd5b5061018b6102d3366004612c53565b6110de565b3480156102e457600080fd5b5061018b61154b565b3480156102f957600080fd5b5061029560065481565b34801561030f57600080fd5b5061029561031e366004612874565b6000908152600260205260409020602c015490565b34801561033f57600080fd5b506001546001600160a01b03166101c2565b34801561035d57600080fd5b5061037161036c366004612c75565b61155b565b6040516101d69190612c97565b34801561038a57600080fd5b5061020d610399366004612cdb565b600460209081526000928352604080842090915290825290205460ff1681565b3480156103c557600080fd5b5061018b6103d4366004612874565b6115c7565b3480156103e557600080fd5b5061029560075481565b3480156103fb57600080fd5b506101c261040a366004612cfe565b6005602052600090815260409020546001600160a01b031681565b34801561043157600080fd5b5061018b610440366004612874565b61161e565b34801561045157600080fd5b5061045a611972565b6040516101d6929190612d5d565b34801561047457600080fd5b50610295610483366004612dbb565b611b98565b34801561049457600080fd5b506104a86104a3366004612874565b611bc9565b6040516101d69190612e98565b3480156104c157600080fd5b5061018b6104d0366004612c75565b612089565b3480156104e157600080fd5b5061018b6104f0366004612c75565b6120fb565b6104fd612171565b6001600160a01b0381166105505760405162461bcd60e51b8152602060048201526015602482015274496e76616c696420746f6b656e206164647265737360581b60448201526064015b60405180910390fd5b8060056000846002811115610567576105676128dd565b6002811115610578576105786128dd565b8152602081019190915260400160002080546001600160a01b0319166001600160a01b0392831617905581168260028111156105b6576105b66128dd565b6040517f94ef69703cba20a59301db32d4340e0e7770a4b3f3e4985582152e3caa75789c90600090a35050565b6105eb612171565b6105f36121cb565b565b6105fd612220565b610605612279565b6000818152600260205260409020602d81015460ff1661065b5760405162461bcd60e51b8152602060048201526011602482015270526166666c65206e6f742061637469766560781b6044820152606401610547565b80602a015442106106a15760405162461bcd60e51b815260206004820152601060248201526f149859999b19481a185cc8195b99195960821b6044820152606401610547565b600082815260046020908152604080832033845290915290205460ff16156107175760405162461bcd60e51b8152602060048201526024808201527f416c72656164792070617274696369706174696e6720696e207468697320726160448201526366666c6560e01b6064820152608401610547565b6029810154602c8201541061075f5760405162461bcd60e51b815260206004820152600e60248201526d149859999b19481a5cc8199d5b1b60921b6044820152606401610547565b6000603882015460ff16600281111561077a5761077a6128dd565b036107cf57806028015434146107ca5760405162461bcd60e51b8152602060048201526015602482015274496e636f727265637420656e74727920707269636560581b6044820152606401610547565b61088d565b34156108275760405162461bcd60e51b815260206004820152602160248201527f436f696e206e6f7420616363657074656420666f72207468697320726166666c6044820152606560f81b6064820152608401610547565b6038810154600090600590829060ff166002811115610848576108486128dd565b6002811115610859576108596128dd565b815260208101919091526040016000205460288301546001600160a01b03909116915061088b908290339030906122c6565b505b602c81018054600180820183556000838152602080822090930180546001600160a01b03191633908117909155868252600484526040808320828452855291829020805460ff1916909317909255925492519283529184917f338e0cd33c4e120afcd73f43f082fd8940ed67ac35180d278d2eb4f3ed51d92e910160405180910390a35061091b6001600055565b50565b6002602052600090815260409020805460018201805491929161094090612fcf565b80601f016020809104026020016040519081016040528092919081815260200182805461096c90612fcf565b80156109b95780601f1061098e576101008083540402835291602001916109b9565b820191906000526020600020905b81548152906001019060200180831161099c57829003601f168201915b5050505050908060020180546109ce90612fcf565b80601f01602080910402602001604051908101604052809291908181526020018280546109fa90612fcf565b8015610a475780601f10610a1c57610100808354040283529160200191610a47565b820191906000526020600020905b815481529060010190602001808311610a2a57829003601f168201915b505050602784015460288501546029860154602a870154602b880154602d89015460378a01546038909a01549899959894975092955090936001600160a01b039091169260ff80841693610100900481169291168c565b610aa6612171565b6000818152600260205260409020602d810154610100900460ff16610b045760405162461bcd60e51b8152602060048201526014602482015273149859999b19481b9bdd0818dbdb5c1b195d195960621b6044820152606401610547565b6028810154602c820154600091610b1a9161301f565b9050600061271060075483610b2f919061301f565b610b39919061304c565b90506000603884015460ff166002811115610b5657610b566128dd565b03610bfa576008546040516000916001600160a01b03169083908381818185875af1925050503d8060008114610ba8576040519150601f19603f3d011682016040523d82523d6000602084013e610bad565b606091505b5050905080610bf45760405162461bcd60e51b8152602060048201526013602482015272119959481d1c985b9cd9995c8819985a5b1959606a1b6044820152606401610547565b50610c5c565b6038830154600090600590829060ff166002811115610c1b57610c1b6128dd565b6002811115610c2c57610c2c6128dd565b81526020810191909152604001600020546008546001600160a01b039182169250610c5a9183911684612331565b505b50505050565b6000610c6c612279565b60008511610cc85760405162461bcd60e51b815260206004820152602360248201527f5469636b6574207072696365206d75737420626520677265617465722074686160448201526206e20360ec1b6064820152608401610547565b858411610d315760405162461bcd60e51b815260206004820152603160248201527f4d7573742068617665206174206c656173742031206d6f7265207061727469636044820152706970616e74207468616e207072697a657360781b6064820152608401610547565b600086118015610d42575060098611155b610d8e5760405162461bcd60e51b815260206004820181905260248201527f4d7573742068617665206265747765656e203120616e642039207072697a65736044820152606401610547565b60008311610dde5760405162461bcd60e51b815260206004820152601f60248201527f4475726174696f6e206d7573742062652067726561746572207468616e2030006044820152606401610547565b6000895111610e275760405162461bcd60e51b81526020600482015260156024820152745469746c652063616e6e6f7420626520656d70747960581b6044820152606401610547565b6000826002811115610e3b57610e3b6128dd565b14610ec5576000600581846002811115610e5757610e576128dd565b6002811115610e6857610e686128dd565b81526020810191909152604001600020546001600160a01b031603610ec55760405162461bcd60e51b8152602060048201526013602482015272151bdad95b881b9bdd081cdd5c1c1bdc9d1959606a1b6044820152606401610547565b6006805460009182610ed683613060565b9091555090506000610ee88542613079565b600083815260026020526040902083815590915060018101610f0a8d826130da565b5060028101610f198c826130da565b5060005b6009811015610fb5578a8160098110610f3857610f3861319a565b6020020151826003018260098110610f5257610f5261319a565b600402016000820151816000019081610f6b91906130da565b5060208201516001820190610f8090826130da565b5060408201516002820190610f9590826130da565b506060919091015160039091015580610fad81613060565b915050610f1d565b50602781018990556028810188905560298101879055602a8101829055602b810180546001600160a01b03191633179055602d8101805461ffff19166001908117909155426037830155603882018054879260ff199190911690836002811115611021576110216128dd565b021790555060036000336001600160a01b03166001600160a01b03168152602001908152602001600020839080600181540180825580915050600190039060005260206000200160009091909190915055336001600160a01b0316837f5a8a1ae9ad460c82e72822c530f5c894e9e40fea7f07bd9ec01c0f392615866c8e8b8b878b6040516110b49594939291906131b0565b60405180910390a350909a9950505050505050505050565b6110d4612171565b6105f36000612366565b6110e6612220565b6000828152600260205260409020602d810154610100900460ff166111455760405162461bcd60e51b815260206004820152601560248201527415da5b9b995c9cc81b9bdd08191c985ddb881e595d605a1b6044820152606401610547565b8060270154821061118e5760405162461bcd60e51b8152602060048201526013602482015272092dcecc2d8d2c840e0e4d2f4ca40d2dcc8caf606b1b6044820152606401610547565b33602e820183600981106111a4576111a461319a565b01546001600160a01b0316146111eb5760405162461bcd60e51b815260206004820152600c60248201526b2737ba1030903bb4b73732b960a11b6044820152606401610547565b6000602e820183600981106112025761120261319a565b01546001600160a01b0316036112525760405162461bcd60e51b8152602060048201526015602482015274141c9a5e9948185b1c9958591e4818db185a5b5959605a1b6044820152606401610547565b336000602e8301846009811061126a5761126a61319a565b0180546001600160a01b0319166001600160a01b03929092169190911790556028820154602c83015460009161129f9161301f565b90506000612710600754836112b4919061301f565b6112be919061304c565b905060006112cc82846131e4565b9050600085602701546001036112e35750806113d5565b856027015460020361132f57861561131157606461130283601e61301f565b61130c919061304c565b611328565b606461131e83604661301f565b611328919061304c565b90506113d5565b8560270154600303611372578660000361135057606461131e83603c61301f565b8660010361136557606461131e83601961301f565b606461131e83600f61301f565b600086602701546064611385919061304c565b90506000600389106113985760006113ae565b6113a389600561301f565b6113ae9060146131e4565b905060646113bc8284613079565b6113c6908661301f565b6113d0919061304c565b925050505b6000603887015460ff1660028111156113f0576113f06128dd565b03611496576000856001600160a01b03168260405160006040518083038185875af1925050503d8060008114611442576040519150601f19603f3d011682016040523d82523d6000602084013e611447565b606091505b50509050806114905760405162461bcd60e51b8152602060048201526015602482015274141c9a5e99481d1c985b9cd9995c8819985a5b1959605a1b6044820152606401610547565b506114f1565b6038860154600090600590829060ff1660028111156114b7576114b76128dd565b60028111156114c8576114c86128dd565b81526020810191909152604001600020546001600160a01b031690506114ef818784612331565b505b60408051888152602081018390526001600160a01b038716918a917f64da964e036dd66a7be792791f60a47ec5378950b9d12795de3f453aa3940eb0910160405180910390a35050505050506115476001600055565b5050565b611553612171565b6105f36123b8565b6001600160a01b0381166000908152600360209081526040918290208054835181840281018401909452808452606093928301828280156115bb57602002820191906000526020600020905b8154815260200190600101908083116115a7575b50505050509050919050565b6115cf612171565b6103e88111156116195760405162461bcd60e51b81526020600482015260156024820152744665652063616e6e6f74206578636565642031302560581b6044820152606401610547565b600755565b611626612220565b6000818152600260205260409020602d81015460ff1661167c5760405162461bcd60e51b8152602060048201526011602482015270526166666c65206e6f742061637469766560781b6044820152606401610547565b80602a01544210156116d05760405162461bcd60e51b815260206004820152601860248201527f526166666c6520686173206e6f7420656e6465642079657400000000000000006044820152606401610547565b602d810154610100900460ff16156117225760405162461bcd60e51b81526020600482015260156024820152742bb4b73732b9399030b63932b0b23c90323930bbb760591b6044820152606401610547565b6027810154602c820154101561177a5760405162461bcd60e51b815260206004820152601760248201527f4e6f7420656e6f756768207061727469636970616e74730000000000000000006044820152606401610547565b602d8101805461ffff1916610100179055602c81015460008167ffffffffffffffff8111156117ab576117ab6129a4565b6040519080825280602002602001820160405280156117d4578160200160208202803683370190505b50905060005b8281101561181257808282815181106117f5576117f561319a565b60209081029190910101528061180a81613060565b9150506117da565b5060005b83602701548110156119215781511561190f576000825161183787846123fb565b61184191906131f7565b905060008382815181106118575761185761319a565b6020026020010151905085602c0181815481106118765761187661319a565b6000918252602090912001546001600160a01b0316602e870184600981106118a0576118a061319a565b0180546001600160a01b0319166001600160a01b0392909216919091179055835184906118cf906001906131e4565b815181106118df576118df61319a565b60200260200101518483815181106118f9576118f961319a565b6020026020010181815250506001845103845250505b8061191981613060565b915050611816565b50837f72bd9bc9c36d3ba05a21c09bc04253e96e35f3d3a1b894df83dac0841f01926984602e0185602701544260405161195d9392919061320b565b60405180910390a250505061091b6001600055565b6040805160038082526080820190925260609182916000916020820184803683375050604080516003808252608082019092529293506000929150602082016060803683370190505090506000826000815181106119d2576119d261319a565b602002602001019060028111156119eb576119eb6128dd565b908160028111156119fe576119fe6128dd565b81525050600081600081518110611a1757611a1761319a565b60200260200101906001600160a01b031690816001600160a01b031681525050600182600181518110611a4c57611a4c61319a565b60200260200101906002811115611a6557611a656128dd565b90816002811115611a7857611a786128dd565b9052506001600081905260056020527f1471eb6eb2c5e789fc3de43f8ce62938c7d1836ec861730447e2ada8fd81017b5482516001600160a01b039091169183918110611ac757611ac761319a565b60200260200101906001600160a01b031690816001600160a01b031681525050600282600281518110611afc57611afc61319a565b60200260200101906002811115611b1557611b156128dd565b90816002811115611b2857611b286128dd565b9052506002600081905260056020527f89832631fb3c3307a103ba2c84ab569c64d6182a18893dcd163f0f1c2090733a5482516001600160a01b039091169183918110611b7757611b7761319a565b6001600160a01b039092166020928302919091019091015290939092509050565b60036020528160005260406000208181548110611bb457600080fd5b90600052602060002001600091509150505481565b611bd1612707565b60026000838152602001908152602001600020604051806101e001604052908160008201548152602001600182018054611c0a90612fcf565b80601f0160208091040260200160405190810160405280929190818152602001828054611c3690612fcf565b8015611c835780601f10611c5857610100808354040283529160200191611c83565b820191906000526020600020905b815481529060010190602001808311611c6657829003601f168201915b50505050508152602001600282018054611c9c90612fcf565b80601f0160208091040260200160405190810160405280929190818152602001828054611cc890612fcf565b8015611d155780601f10611cea57610100808354040283529160200191611d15565b820191906000526020600020905b815481529060010190602001808311611cf857829003601f168201915b50505091835250506040805161012081019091526020909101906003830160096000835b82821015611f2157838260040201604051806080016040529081600082018054611d6290612fcf565b80601f0160208091040260200160405190810160405280929190818152602001828054611d8e90612fcf565b8015611ddb5780601f10611db057610100808354040283529160200191611ddb565b820191906000526020600020905b815481529060010190602001808311611dbe57829003601f168201915b50505050508152602001600182018054611df490612fcf565b80601f0160208091040260200160405190810160405280929190818152602001828054611e2090612fcf565b8015611e6d5780601f10611e4257610100808354040283529160200191611e6d565b820191906000526020600020905b815481529060010190602001808311611e5057829003601f168201915b50505050508152602001600282018054611e8690612fcf565b80601f0160208091040260200160405190810160405280929190818152602001828054611eb290612fcf565b8015611eff5780601f10611ed457610100808354040283529160200191611eff565b820191906000526020600020905b815481529060010190602001808311611ee257829003601f168201915b5050505050815260200160038201548152505081526020019060010190611d39565b505050508152602001602782015481526020016028820154815260200160298201548152602001602a8201548152602001602b820160009054906101000a90046001600160a01b03166001600160a01b03166001600160a01b03168152602001602c8201805480602002602001604051908101604052809291908181526020018280548015611fd957602002820191906000526020600020905b81546001600160a01b03168152600190910190602001808311611fbb575b5050509183525050602d82015460ff80821615156020840152610100909104161515604080830191909152805161012081019182905260609092019190602e84019060099082845b81546001600160a01b0316815260019091019060200180831161202157505050918352505060378201546020820152603882015460409091019060ff16600281111561206f5761206f6128dd565b6002811115612080576120806128dd565b90525092915050565b612091612171565b6001600160a01b0381166120d95760405162461bcd60e51b815260206004820152600f60248201526e496e76616c6964206164647265737360881b6044820152606401610547565b600880546001600160a01b0319166001600160a01b0392909216919091179055565b612103612171565b6001600160a01b0381166121685760405162461bcd60e51b815260206004820152602660248201527f4f776e61626c653a206e6577206f776e657220697320746865207a65726f206160448201526564647265737360d01b6064820152608401610547565b61091b81612366565b6001546001600160a01b031633146105f35760405162461bcd60e51b815260206004820181905260248201527f4f776e61626c653a2063616c6c6572206973206e6f7420746865206f776e65726044820152606401610547565b6121d3612452565b6001805460ff60a01b191690557f5db9ee0a495bf2e6ff9c91a7834c1ba4fdd244a5e8aa4e537bd38aeae4b073aa335b6040516001600160a01b03909116815260200160405180910390a1565b6002600054036122725760405162461bcd60e51b815260206004820152601f60248201527f5265656e7472616e637947756172643a207265656e7472616e742063616c6c006044820152606401610547565b6002600055565b600154600160a01b900460ff16156105f35760405162461bcd60e51b815260206004820152601060248201526f14185d5cd8589b194e881c185d5cd95960821b6044820152606401610547565b6040516001600160a01b0380851660248301528316604482015260648101829052610c5c9085906323b872dd60e01b906084015b60408051601f198184030181529190526020810180516001600160e01b03166001600160e01b0319909316929092179091526124a2565b6040516001600160a01b03831660248201526044810182905261236190849063a9059cbb60e01b906064016122fa565b505050565b600180546001600160a01b038381166001600160a01b0319831681179093556040519116919082907f8be0079c531659141344cd1fd0a4f28419497f9722a3daafe3b4186f6b6457e090600090a35050565b6123c0612279565b6001805460ff60a01b1916600160a01b1790557f62e78cea01bee320cd4e420270b5ea74000d11b0c9f74754ebdbfc544b05a2586122033390565b6040805142602080830191909152448284015260608083018690526080830185905233901b6bffffffffffffffffffffffff191660a08301528251808303609401815260b490920190925280519101205b92915050565b600154600160a01b900460ff166105f35760405162461bcd60e51b815260206004820152601460248201527314185d5cd8589b194e881b9bdd081c185d5cd95960621b6044820152606401610547565b60006124f7826040518060400160405280602081526020017f5361666545524332303a206c6f772d6c6576656c2063616c6c206661696c6564815250856001600160a01b03166125779092919063ffffffff16565b90508051600014806125185750808060200190518101906125189190613253565b6123615760405162461bcd60e51b815260206004820152602a60248201527f5361666545524332303a204552433230206f7065726174696f6e20646964206e6044820152691bdd081cdd58d8d9595960b21b6064820152608401610547565b6060612586848460008561258e565b949350505050565b6060824710156125ef5760405162461bcd60e51b815260206004820152602660248201527f416464726573733a20696e73756666696369656e742062616c616e636520666f6044820152651c8818d85b1b60d21b6064820152608401610547565b600080866001600160a01b0316858760405161260b9190613275565b60006040518083038185875af1925050503d8060008114612648576040519150601f19603f3d011682016040523d82523d6000602084013e61264d565b606091505b509150915061265e87838387612669565b979650505050505050565b606083156126d85782516000036126d1576001600160a01b0385163b6126d15760405162461bcd60e51b815260206004820152601d60248201527f416464726573733a2063616c6c20746f206e6f6e2d636f6e74726163740000006044820152606401610547565b5081612586565b61258683838151156126ed5781518083602001fd5b8060405162461bcd60e51b81526004016105479190613291565b604051806101e001604052806000815260200160608152602001606081526020016127306127a6565b81526020016000815260200160008152602001600081526020016000815260200160006001600160a01b03168152602001606081526020016000151581526020016000151581526020016127826127f7565b815260200160008152602001600060028111156127a1576127a16128dd565b905290565b6040518061012001604052806009905b6127e16040518060800160405280606081526020016060815260200160608152602001600081525090565b8152602001906001900390816127b65790505090565b6040518061012001604052806009906020820280368337509192915050565b80356003811061282557600080fd5b919050565b80356001600160a01b038116811461282557600080fd5b6000806040838503121561285457600080fd5b61285d83612816565b915061286b6020840161282a565b90509250929050565b60006020828403121561288657600080fd5b5035919050565b60005b838110156128a8578181015183820152602001612890565b50506000910152565b600081518084526128c981602086016020860161288d565b601f01601f19169290920160200192915050565b634e487b7160e01b600052602160045260246000fd5b6003811061291157634e487b7160e01b600052602160045260246000fd5b9052565b60006101808e835280602084015261292f8184018f6128b1565b90508281036040840152612943818e6128b1565b9150508a60608301528960808301528860a08301528760c083015260018060a01b03871660e0830152851515610100830152841515610120830152836101408301526129936101608301846128f3565b9d9c50505050505050505050505050565b634e487b7160e01b600052604160045260246000fd5b604051610120810167ffffffffffffffff811182821017156129de576129de6129a4565b60405290565b6040516080810167ffffffffffffffff811182821017156129de576129de6129a4565b600082601f830112612a1857600080fd5b813567ffffffffffffffff80821115612a3357612a336129a4565b604051601f8301601f19908116603f01168101908282118183101715612a5b57612a5b6129a4565b81604052838152866020858801011115612a7457600080fd5b836020870160208301376000602085830101528094505050505092915050565b600082601f830112612aa557600080fd5b612aad6129ba565b80610120840185811115612ac057600080fd5b845b81811015612b8857803567ffffffffffffffff80821115612ae35760008081fd5b908701906080828a031215612af85760008081fd5b612b006129e4565b823582811115612b105760008081fd5b612b1c8b828601612a07565b82525060208084013583811115612b335760008081fd5b612b3f8c828701612a07565b828401525060408085013584811115612b585760008081fd5b612b648d828801612a07565b91840191909152506060938401359382019390935286525090930192602001612ac2565b509095945050505050565b600080600080600080600080610100898b031215612bb057600080fd5b883567ffffffffffffffff80821115612bc857600080fd5b612bd48c838d01612a07565b995060208b0135915080821115612bea57600080fd5b612bf68c838d01612a07565b985060408b0135915080821115612c0c57600080fd5b50612c198b828c01612a94565b965050606089013594506080890135935060a0890135925060c08901359150612c4460e08a01612816565b90509295985092959890939650565b60008060408385031215612c6657600080fd5b50508035926020909101359150565b600060208284031215612c8757600080fd5b612c908261282a565b9392505050565b6020808252825182820181905260009190848201906040850190845b81811015612ccf57835183529284019291840191600101612cb3565b50909695505050505050565b60008060408385031215612cee57600080fd5b8235915061286b6020840161282a565b600060208284031215612d1057600080fd5b612c9082612816565b600081518084526020808501945080840160005b83811015612d525781516001600160a01b031687529582019590820190600101612d2d565b509495945050505050565b604080825283519082018190526000906020906060840190828701845b82811015612d9d57612d8d8483516128f3565b9284019290840190600101612d7a565b50505083810382850152612db18186612d19565b9695505050505050565b60008060408385031215612dce57600080fd5b612dd78361282a565b946020939093013593505050565b60008261012081018360005b6009811015612b88578383038752815160808151818652612e14828701826128b1565b91505060208083015186830382880152612e2e83826128b1565b92505060408084015187840382890152612e4884826128b1565b60609586015198909501979097525098890198919450509190910190600101612df1565b8060005b6009811015610c5c5781516001600160a01b0316845260209384019390910190600101612e70565b6020815281516020820152600060208301516102e0806040850152612ec16103008501836128b1565b91506040850151601f1980868503016060870152612edf84836128b1565b93506060870151915080868503016080870152612efc8483612de5565b9350608087015160a087015260a087015160c087015260c087015160e087015260e08701519150610100828188015280880151925050610120612f49818801846001600160a01b03169052565b80880151925050610140818786030181880152612f668584612d19565b94508088015192505050610160612f808187018315159052565b8601519050610180612f958682018315159052565b86015190506101a0612fa986820183612e6c565b8601516102c0860152506101c0850151612fc5828601826128f3565b5090949350505050565b600181811c90821680612fe357607f821691505b60208210810361300357634e487b7160e01b600052602260045260246000fd5b50919050565b634e487b7160e01b600052601160045260246000fd5b808202811582820484141761244c5761244c613009565b634e487b7160e01b600052601260045260246000fd5b60008261305b5761305b613036565b500490565b60006001820161307257613072613009565b5060010190565b8082018082111561244c5761244c613009565b601f82111561236157600081815260208120601f850160051c810160208610156130b35750805b601f850160051c820191505b818110156130d2578281556001016130bf565b505050505050565b815167ffffffffffffffff8111156130f4576130f46129a4565b613108816131028454612fcf565b8461308c565b602080601f83116001811461313d57600084156131255750858301515b600019600386901b1c1916600185901b1785556130d2565b600085815260208120601f198616915b8281101561316c5788860151825594840194600190910190840161314d565b508582101561318a5787850151600019600388901b60f8161c191681555b5050505050600190811b01905550565b634e487b7160e01b600052603260045260246000fd5b60a0815260006131c360a08301886128b1565b9050856020830152846040830152836060830152612db160808301846128f3565b8181038181111561244c5761244c613009565b60008261320657613206613036565b500690565b6101608101818560005b600981101561323d5781546001600160a01b0316835260209092019160019182019101613215565b5050506101208201939093526101400152919050565b60006020828403121561326557600080fd5b81518015158114612c9057600080fd5b6000825161328781846020870161288d565b9190910192915050565b602081526000612c9060208301846128b156fea2646970667358221220364b4473d5e6ebbbc9769cf1b0adae226a9d465a8381db9768521ff8f4adfc0664736f6c63430008130033",
  "linkReferences": {},
  "deployedLinkReferences": {}
}