{"abi":[{"type":"function","name":"allowance","inputs":[{"name":"owner","type":"address","internalType":"address"},{"name":"spender","type":"address","internalType":"address"},{"name":"id","type":"uint256","internalType":"uint256"}],"outputs":[{"name":"","type":"uint256","internalType":"uint256"}],"stateMutability":"view"},{"type":"function","name":"approve","inputs":[{"name":"spender","type":"address","internalType":"address"},{"name":"id","type":"uint256","internalType":"uint256"},{"name":"amount","type":"uint256","internalType":"uint256"}],"outputs":[{"name":"","type":"bool","internalType":"bool"}],"stateMutability":"nonpayable"},{"type":"function","name":"balanceOf","inputs":[{"name":"owner","type":"address","internalType":"address"},{"name":"id","type":"uint256","internalType":"uint256"}],"outputs":[{"name":"","type":"uint256","internalType":"uint256"}],"stateMutability":"view"},{"type":"function","name":"decimals","inputs":[{"name":"id","type":"uint256","internalType":"uint256"}],"outputs":[{"name":"","type":"uint8","internalType":"uint8"}],"stateMutability":"view"},{"type":"function","name":"isOperator","inputs":[{"name":"owner","type":"address","internalType":"address"},{"name":"spender","type":"address","internalType":"address"}],"outputs":[{"name":"","type":"bool","internalType":"bool"}],"stateMutability":"view"},{"type":"function","name":"name","inputs":[{"name":"id","type":"uint256","internalType":"uint256"}],"outputs":[{"name":"","type":"string","internalType":"string"}],"stateMutability":"view"},{"type":"function","name":"setOperator","inputs":[{"name":"spender","type":"address","internalType":"address"},{"name":"approved","type":"bool","internalType":"bool"}],"outputs":[{"name":"","type":"bool","internalType":"bool"}],"stateMutability":"nonpayable"},{"type":"function","name":"supportsInterface","inputs":[{"name":"interfaceId","type":"bytes4","internalType":"bytes4"}],"outputs":[{"name":"","type":"bool","internalType":"bool"}],"stateMutability":"view"},{"type":"function","name":"symbol","inputs":[{"name":"id","type":"uint256","internalType":"uint256"}],"outputs":[{"name":"","type":"string","internalType":"string"}],"stateMutability":"view"},{"type":"function","name":"transfer","inputs":[{"name":"receiver","type":"address","internalType":"address"},{"name":"id","type":"uint256","internalType":"uint256"},{"name":"amount","type":"uint256","internalType":"uint256"}],"outputs":[{"name":"","type":"bool","internalType":"bool"}],"stateMutability":"nonpayable"},{"type":"function","name":"transferFrom","inputs":[{"name":"sender","type":"address","internalType":"address"},{"name":"receiver","type":"address","internalType":"address"},{"name":"id","type":"uint256","internalType":"uint256"},{"name":"amount","type":"uint256","internalType":"uint256"}],"outputs":[{"name":"","type":"bool","internalType":"bool"}],"stateMutability":"nonpayable"},{"type":"event","name":"Approval","inputs":[{"name":"owner","type":"address","indexed":true,"internalType":"address"},{"name":"spender","type":"address","indexed":true,"internalType":"address"},{"name":"id","type":"uint256","indexed":true,"internalType":"uint256"},{"name":"amount","type":"uint256","indexed":false,"internalType":"uint256"}],"anonymous":false},{"type":"event","name":"ERC6909DecimalsUpdated","inputs":[{"name":"id","type":"uint256","indexed":true,"internalType":"uint256"},{"name":"newDecimals","type":"uint8","indexed":false,"internalType":"uint8"}],"anonymous":false},{"type":"event","name":"ERC6909NameUpdated","inputs":[{"name":"id","type":"uint256","indexed":true,"internalType":"uint256"},{"name":"newName","type":"string","indexed":false,"internalType":"string"}],"anonymous":false},{"type":"event","name":"ERC6909SymbolUpdated","inputs":[{"name":"id","type":"uint256","indexed":true,"internalType":"uint256"},{"name":"newSymbol","type":"string","indexed":false,"internalType":"string"}],"anonymous":false},{"type":"event","name":"OperatorSet","inputs":[{"name":"owner","type":"address","indexed":true,"internalType":"address"},{"name":"spender","type":"address","indexed":true,"internalType":"address"},{"name":"approved","type":"bool","indexed":false,"internalType":"bool"}],"anonymous":false},{"type":"event","name":"Transfer","inputs":[{"name":"caller","type":"address","indexed":false,"internalType":"address"},{"name":"sender","type":"address","indexed":true,"internalType":"address"},{"name":"receiver","type":"address","indexed":true,"internalType":"address"},{"name":"id","type":"uint256","indexed":true,"internalType":"uint256"},{"name":"amount","type":"uint256","indexed":false,"internalType":"uint256"}],"anonymous":false},{"type":"error","name":"ERC6909InsufficientAllowance","inputs":[{"name":"spender","type":"address","internalType":"address"},{"name":"allowance","type":"uint256","internalType":"uint256"},{"name":"needed","type":"uint256","internalType":"uint256"},{"name":"id","type":"uint256","internalType":"uint256"}]},{"type":"error","name":"ERC6909InsufficientBalance","inputs":[{"name":"sender","type":"address","internalType":"address"},{"name":"balance","type":"uint256","internalType":"uint256"},{"name":"needed","type":"uint256","internalType":"uint256"},{"name":"id","type":"uint256","internalType":"uint256"}]},{"type":"error","name":"ERC6909InvalidApprover","inputs":[{"name":"approver","type":"address","internalType":"address"}]},{"type":"error","name":"ERC6909InvalidReceiver","inputs":[{"name":"receiver","type":"address","internalType":"address"}]},{"type":"error","name":"ERC6909InvalidSender","inputs":[{"name":"sender","type":"address","internalType":"address"}]},{"type":"error","name":"ERC6909InvalidSpender","inputs":[{"name":"spender","type":"address","internalType":"address"}]}],"bytecode":{"object":"0x6080806040523461001657610857908161001b8239f35b5f80fdfe6080604081815260049182361015610015575f80fd5b5f3560e01c908162ad800c146105a057508062fdd58e1461056157806301ffc9a71461050d578063095bcdb6146104f15780633f47e662146104c4578063426a8493146104205780634e41a1fb1461030a578063558a72971461024d578063598af9e7146101f9578063b6363cf2146101ab5763fe99049a14610096575f80fd5b346101a75760803660031901126101a7576100af6106b1565b6100b76106c7565b6064359160443591906001600160a01b0381163381141580610188575b6100ef575b6020866100e887878787610707565b5160018152f35b805f5260209060028252865f20335f528252865f20855f528252865f2054975f19891061011e575b50506100d9565b86891061015657505f908152600282528681203382528252868120858252909152858120968590039096556020956100e89080610117565b8751632c51fead60e11b815233918101918252602082018a905260408201889052606082018790529081906080010390fd5b50805f526001602052855f20335f5260205260ff865f205416156100d4565b5f80fd5b50346101a757806003193601126101a7576020906101c76106b1565b6101cf6106c7565b9060018060a01b038091165f5260018452825f2091165f52825260ff815f20541690519015158152f35b50346101a75760603660031901126101a7576020906102166106b1565b61021e6106c7565b9060018060a01b038091165f5260028452825f2091165f528252805f206044355f528252805f20549051908152f35b50346101a757806003193601126101a7576102666106b1565b602435908115158092036101a75733156102f4576001600160a01b03169081156102de5760209350335f5260018452825f20825f528452825f2060ff1981541660ff831617905582519081527fceb576d9f15e4e200fdb5096d64d5dfd667e16def20c1eefd14256d8e3faa267843392a35160018152f35b8251636f65f46560e01b81525f81860152602490fd5b825163198ecd5360e31b81525f81860152602490fd5b50346101a757602090816003193601126101a75782355f5260038252600180825f2001928251935f928154918260011c92600181168015610416575b8585108114610403578489529081156103e557506001146103ac575b50505050829003601f01601f191682019267ffffffffffffffff841183851017610399575082918261039592528261066a565b0390f35b604190634e487b7160e01b5f525260245ffd5b909293505f52825f2091835f935b8385106103d157505050508301015f808080610362565b8054888601830152930192849082016103ba565b60ff191688860152505050151560051b84010190505f808080610362565b60228a634e487b7160e01b5f525260245ffd5b93607f1693610346565b50346101a75761042f366106dd565b909133156104ae576001600160a01b03169081156104985760209450335f5260028552835f20825f528552835f20835f52855280845f205583519081527fb3fd5071835887567a0671151121894ddccc2842f1d10bedad13e0d17cace9a7853392a45160018152f35b8351636f65f46560e01b81525f81870152602490fd5b835163198ecd5360e31b81525f81870152602490fd5b50346101a75760203660031901126101a757602091355f526003825260ff6002825f200154169051908152f35b50346101a7576020906100e8610506366106dd565b9133610707565b5090346101a75760203660031901126101a7573563ffffffff60e01b81168091036101a757602091630f632fb360e01b8214918215610550575b50519015158152f35b6301ffc9a760e01b1491505f610547565b50346101a757806003193601126101a7576020906001600160a01b036105856106b1565b165f525f8252805f206024355f528252805f20549051908152f35b919050346101a7576020806003193601126101a75783355f5260038152815f20905f918054906001908260011c92600181168015610660575b8585108114610403578489529081156103e557506001146106275750505050829003601f01601f191682019267ffffffffffffffff841183851017610399575082918261039592528261066a565b909293505f52825f2091835f935b83851061064c57505050508301015f808080610362565b805488860183015293019284908201610635565b93607f16936105d9565b602080825282518183018190529093925f5b82811061069d57505060409293505f838284010152601f8019910116010190565b81810186015184820160400152850161067c565b600435906001600160a01b03821682036101a757565b602435906001600160a01b03821682036101a757565b60609060031901126101a7576004356001600160a01b03811681036101a757906024359060443590565b91926001600160a01b0380841692831561080957169283156107f157825f5260205f8152604091825f20875f528252825f2054908482106107b957508390855f525f8352835f20885f52835203825f2055845f525f8152815f20865f528152815f209283548181018091116107a5577f1b3d7edb2e9c0b0e7c525b20aaaef0f5940d2ed71663c7d39266ecafac7288599455825191338352820152a4565b634e487b7160e01b5f52601160045260245ffd5b83516302c6d3fb60e61b81526001600160a01b0391909116600482015260248101919091526044810184905260648101879052608490fd5b604051630b8bbd6160e41b81525f6004820152602490fd5b6040516301486a4160e71b81525f6004820152602490fdfea26469706673582212200d99d662afcb020ed1b0b67b27bb420272ecc07edbb790adc1dc54faea76125464736f6c63430008180033","linkReferences":{}},"methodIdentifiers":{"allowance(address,address,uint256)":"598af9e7","approve(address,uint256,uint256)":"426a8493","balanceOf(address,uint256)":"00fdd58e","decimals(uint256)":"3f47e662","isOperator(address,address)":"b6363cf2","name(uint256)":"00ad800c","setOperator(address,bool)":"558a7297","supportsInterface(bytes4)":"01ffc9a7","symbol(uint256)":"4e41a1fb","transfer(address,uint256,uint256)":"095bcdb6","transferFrom(address,address,uint256,uint256)":"fe99049a"},"id":177}