{"abi":[{"type":"constructor","inputs":[{"name":"_feeRecipient","type":"address","internalType":"address"},{"name":"_treasury","type":"address","internalType":"address"},{"name":"_initialOwner","type":"address","internalType":"address"}],"stateMutability":"nonpayable"},{"type":"receive","stateMutability":"payable"},{"type":"function","name":"cancelRaffle","inputs":[{"name":"_raffleId","type":"uint256","internalType":"uint256"}],"outputs":[],"stateMutability":"nonpayable"},{"type":"function","name":"claimPrize","inputs":[{"name":"_raffleId","type":"uint256","internalType":"uint256"},{"name":"_prizeIndex","type":"uint256","internalType":"uint256"}],"outputs":[],"stateMutability":"nonpayable"},{"type":"function","name":"createRaffle","inputs":[{"name":"_title","type":"string","internalType":"string"},{"name":"_description","type":"string","internalType":"string"},{"name":"_prizes","type":"tuple[]","internalType":"struct RaffleContractV2.Prize[]","components":[{"name":"name","type":"string","internalType":"string"},{"name":"description","type":"string","internalType":"string"},{"name":"imageUrl","type":"string","internalType":"string"},{"name":"value","type":"uint256","internalType":"uint256"},{"name":"prizeType","type":"uint8","internalType":"enum RaffleContractV2.PrizeType"},{"name":"nftContract","type":"address","internalType":"address"},{"name":"nftTokenId","type":"uint256","internalType":"uint256"},{"name":"isClaimed","type":"bool","internalType":"bool"}]},{"name":"_ticketPrice","type":"uint256","internalType":"uint256"},{"name":"_maxParticipants","type":"uint256","internalType":"uint256"},{"name":"_duration","type":"uint256","internalType":"uint256"},{"name":"_paymentToken","type":"uint8","internalType":"enum RaffleContractV2.PaymentToken"},{"name":"_raffleType","type":"uint8","internalType":"enum RaffleContractV2.RaffleType"},{"name":"_customTokenAddress","type":"address","internalType":"address"},{"name":"_allowedAddresses","type":"string[]","internalType":"string[]"},{"name":"_recurringInterval","type":"uint256","internalType":"uint256"},{"name":"_maxRecurrences","type":"uint256","internalType":"uint256"}],"outputs":[{"name":"","type":"uint256","internalType":"uint256"}],"stateMutability":"payable"},{"type":"function","name":"creatorFeePercentage","inputs":[],"outputs":[{"name":"","type":"uint256","internalType":"uint256"}],"stateMutability":"view"},{"type":"function","name":"drawWinners","inputs":[{"name":"_raffleId","type":"uint256","internalType":"uint256"}],"outputs":[],"stateMutability":"nonpayable"},{"type":"function","name":"fee","inputs":[],"outputs":[{"name":"","type":"uint256","internalType":"uint256"}],"stateMutability":"view"},{"type":"function","name":"feeRecipient","inputs":[],"outputs":[{"name":"","type":"address","internalType":"address"}],"stateMutability":"view"},{"type":"function","name":"getRaffle","inputs":[{"name":"_raffleId","type":"uint256","internalType":"uint256"}],"outputs":[{"name":"","type":"tuple","internalType":"struct RaffleContractV2.Raffle","components":[{"name":"id","type":"uint256","internalType":"uint256"},{"name":"title","type":"string","internalType":"string"},{"name":"description","type":"string","internalType":"string"},{"name":"prizes","type":"tuple[]","internalType":"struct RaffleContractV2.Prize[]","components":[{"name":"name","type":"string","internalType":"string"},{"name":"description","type":"string","internalType":"string"},{"name":"imageUrl","type":"string","internalType":"string"},{"name":"value","type":"uint256","internalType":"uint256"},{"name":"prizeType","type":"uint8","internalType":"enum RaffleContractV2.PrizeType"},{"name":"nftContract","type":"address","internalType":"address"},{"name":"nftTokenId","type":"uint256","internalType":"uint256"},{"name":"isClaimed","type":"bool","internalType":"bool"}]},{"name":"ticketPrice","type":"uint256","internalType":"uint256"},{"name":"maxParticipants","type":"uint256","internalType":"uint256"},{"name":"endTime","type":"uint256","internalType":"uint256"},{"name":"creator","type":"address","internalType":"address"},{"name":"raffleType","type":"uint8","internalType":"enum RaffleContractV2.RaffleType"},{"name":"isActive","type":"bool","internalType":"bool"},{"name":"isDrawn","type":"bool","internalType":"bool"},{"name":"isCancelled","type":"bool","internalType":"bool"},{"name":"createdAt","type":"uint256","internalType":"uint256"},{"name":"drawnAt","type":"uint256","internalType":"uint256"},{"name":"paymentToken","type":"uint8","internalType":"enum RaffleContractV2.PaymentToken"},{"name":"customTokenAddress","type":"address","internalType":"address"},{"name":"totalParticipants","type":"uint256","internalType":"uint256"},{"name":"totalPool","type":"uint256","internalType":"uint256"},{"name":"platformFee","type":"uint256","internalType":"uint256"},{"name":"creatorFee","type":"uint256","internalType":"uint256"},{"name":"allowedAddresses","type":"string[]","internalType":"string[]"},{"name":"recurringInterval","type":"uint256","internalType":"uint256"},{"name":"maxRecurrences","type":"uint256","internalType":"uint256"},{"name":"currentRecurrence","type":"uint256","internalType":"uint256"}]}],"stateMutability":"view"},{"type":"function","name":"getRaffleParticipants","inputs":[{"name":"_raffleId","type":"uint256","internalType":"uint256"}],"outputs":[{"name":"","type":"address[]","internalType":"address[]"}],"stateMutability":"view"},{"type":"function","name":"getRaffleWinners","inputs":[{"name":"_raffleId","type":"uint256","internalType":"uint256"}],"outputs":[{"name":"","type":"address[]","internalType":"address[]"}],"stateMutability":"view"},{"type":"function","name":"getTotalRaffles","inputs":[],"outputs":[{"name":"","type":"uint256","internalType":"uint256"}],"stateMutability":"view"},{"type":"function","name":"getUserRaffles","inputs":[{"name":"_user","type":"address","internalType":"address"}],"outputs":[{"name":"","type":"uint256[]","internalType":"uint256[]"}],"stateMutability":"view"},{"type":"function","name":"getUserStats","inputs":[{"name":"_user","type":"address","internalType":"address"}],"outputs":[{"name":"","type":"tuple","internalType":"struct RaffleContractV2.UserStats","components":[{"name":"totalRafflesCreated","type":"uint256","internalType":"uint256"},{"name":"totalRafflesWon","type":"uint256","internalType":"uint256"},{"name":"totalRafflesParticipated","type":"uint256","internalType":"uint256"},{"name":"totalWinnings","type":"uint256","internalType":"uint256"},{"name":"reputation","type":"uint256","internalType":"uint256"},{"name":"isVerified","type":"bool","internalType":"bool"}]}],"stateMutability":"view"},{"type":"function","name":"hasParticipated","inputs":[{"name":"","type":"uint256","internalType":"uint256"},{"name":"","type":"address","internalType":"address"}],"outputs":[{"name":"","type":"bool","internalType":"bool"}],"stateMutability":"view"},{"type":"function","name":"joinRaffle","inputs":[{"name":"_raffleId","type":"uint256","internalType":"uint256"},{"name":"_referrer","type":"address","internalType":"address"}],"outputs":[],"stateMutability":"payable"},{"type":"function","name":"keyHash","inputs":[],"outputs":[{"name":"","type":"bytes32","internalType":"bytes32"}],"stateMutability":"view"},{"type":"function","name":"maxParticipantsPerRaffle","inputs":[],"outputs":[{"name":"","type":"uint256","internalType":"uint256"}],"stateMutability":"view"},{"type":"function","name":"maxPrizesPerRaffle","inputs":[],"outputs":[{"name":"","type":"uint256","internalType":"uint256"}],"stateMutability":"view"},{"type":"function","name":"maxTicketPrice","inputs":[],"outputs":[{"name":"","type":"uint256","internalType":"uint256"}],"stateMutability":"view"},{"type":"function","name":"minTicketPrice","inputs":[],"outputs":[{"name":"","type":"uint256","internalType":"uint256"}],"stateMutability":"view"},{"type":"function","name":"owner","inputs":[],"outputs":[{"name":"","type":"address","internalType":"address"}],"stateMutability":"view"},{"type":"function","name":"participants","inputs":[{"name":"","type":"uint256","internalType":"uint256"},{"name":"","type":"uint256","internalType":"uint256"}],"outputs":[{"name":"","type":"address","internalType":"address"}],"stateMutability":"view"},{"type":"function","name":"pause","inputs":[],"outputs":[],"stateMutability":"nonpayable"},{"type":"function","name":"paused","inputs":[],"outputs":[{"name":"","type":"bool","internalType":"bool"}],"stateMutability":"view"},{"type":"function","name":"platformFeePercentage","inputs":[],"outputs":[{"name":"","type":"uint256","internalType":"uint256"}],"stateMutability":"view"},{"type":"function","name":"raffles","inputs":[{"name":"","type":"uint256","internalType":"uint256"}],"outputs":[{"name":"id","type":"uint256","internalType":"uint256"},{"name":"title","type":"string","internalType":"string"},{"name":"description","type":"string","internalType":"string"},{"name":"ticketPrice","type":"uint256","internalType":"uint256"},{"name":"maxParticipants","type":"uint256","internalType":"uint256"},{"name":"endTime","type":"uint256","internalType":"uint256"},{"name":"creator","type":"address","internalType":"address"},{"name":"raffleType","type":"uint8","internalType":"enum RaffleContractV2.RaffleType"},{"name":"isActive","type":"bool","internalType":"bool"},{"name":"isDrawn","type":"bool","internalType":"bool"},{"name":"isCancelled","type":"bool","internalType":"bool"},{"name":"createdAt","type":"uint256","internalType":"uint256"},{"name":"drawnAt","type":"uint256","internalType":"uint256"},{"name":"paymentToken","type":"uint8","internalType":"enum RaffleContractV2.PaymentToken"},{"name":"customTokenAddress","type":"address","internalType":"address"},{"name":"totalParticipants","type":"uint256","internalType":"uint256"},{"name":"totalPool","type":"uint256","internalType":"uint256"},{"name":"platformFee","type":"uint256","internalType":"uint256"},{"name":"creatorFee","type":"uint256","internalType":"uint256"},{"name":"recurringInterval","type":"uint256","internalType":"uint256"},{"name":"maxRecurrences","type":"uint256","internalType":"uint256"},{"name":"currentRecurrence","type":"uint256","internalType":"uint256"}],"stateMutability":"view"},{"type":"function","name":"referralData","inputs":[{"name":"","type":"address","internalType":"address"}],"outputs":[{"name":"referrer","type":"address","internalType":"address"},{"name":"totalReferrals","type":"uint256","internalType":"uint256"},{"name":"totalEarnings","type":"uint256","internalType":"uint256"},{"name":"isActive","type":"bool","internalType":"bool"}],"stateMutability":"view"},{"type":"function","name":"referralFeePercentage","inputs":[],"outputs":[{"name":"","type":"uint256","internalType":"uint256"}],"stateMutability":"view"},{"type":"function","name":"renounceOwnership","inputs":[],"outputs":[],"stateMutability":"nonpayable"},{"type":"function","name":"setTokenAddress","inputs":[{"name":"_token","type":"uint8","internalType":"enum RaffleContractV2.PaymentToken"},{"name":"_tokenAddress","type":"address","internalType":"address"}],"outputs":[],"stateMutability":"nonpayable"},{"type":"function","name":"setVRFConfig","inputs":[{"name":"_vrfCoordinator","type":"address","internalType":"address"},{"name":"_keyHash","type":"bytes32","internalType":"bytes32"},{"name":"_fee","type":"uint256","internalType":"uint256"}],"outputs":[],"stateMutability":"nonpayable"},{"type":"function","name":"tokenAddresses","inputs":[{"name":"","type":"uint8","internalType":"enum RaffleContractV2.PaymentToken"}],"outputs":[{"name":"","type":"address","internalType":"address"}],"stateMutability":"view"},{"type":"function","name":"transferOwnership","inputs":[{"name":"newOwner","type":"address","internalType":"address"}],"outputs":[],"stateMutability":"nonpayable"},{"type":"function","name":"treasury","inputs":[],"outputs":[{"name":"","type":"address","internalType":"address"}],"stateMutability":"view"},{"type":"function","name":"unpause","inputs":[],"outputs":[],"stateMutability":"nonpayable"},{"type":"function","name":"updatePlatformConfig","inputs":[{"name":"_platformFee","type":"uint256","internalType":"uint256"},{"name":"_creatorFee","type":"uint256","internalType":"uint256"},{"name":"_referralFee","type":"uint256","internalType":"uint256"}],"outputs":[],"stateMutability":"nonpayable"},{"type":"function","name":"userRaffles","inputs":[{"name":"","type":"address","internalType":"address"},{"name":"","type":"uint256","internalType":"uint256"}],"outputs":[{"name":"","type":"uint256","internalType":"uint256"}],"stateMutability":"view"},{"type":"function","name":"userStats","inputs":[{"name":"","type":"address","internalType":"address"}],"outputs":[{"name":"totalRafflesCreated","type":"uint256","internalType":"uint256"},{"name":"totalRafflesWon","type":"uint256","internalType":"uint256"},{"name":"totalRafflesParticipated","type":"uint256","internalType":"uint256"},{"name":"totalWinnings","type":"uint256","internalType":"uint256"},{"name":"reputation","type":"uint256","internalType":"uint256"},{"name":"isVerified","type":"bool","internalType":"bool"}],"stateMutability":"view"},{"type":"function","name":"verifiedUsers","inputs":[{"name":"","type":"address","internalType":"address"}],"outputs":[{"name":"","type":"bool","internalType":"bool"}],"stateMutability":"view"},{"type":"function","name":"verifyUser","inputs":[{"name":"_user","type":"address","internalType":"address"},{"name":"_verified","type":"bool","internalType":"bool"}],"outputs":[],"stateMutability":"nonpayable"},{"type":"function","name":"vrfCoordinator","inputs":[],"outputs":[{"name":"","type":"address","internalType":"address"}],"stateMutability":"view"},{"type":"function","name":"winners","inputs":[{"name":"","type":"uint256","internalType":"uint256"},{"name":"","type":"uint256","internalType":"uint256"}],"outputs":[{"name":"","type":"address","internalType":"address"}],"stateMutability":"view"},{"type":"function","name":"withdrawFees","inputs":[{"name":"_raffleId","type":"uint256","internalType":"uint256"}],"outputs":[],"stateMutability":"nonpayable"},{"type":"event","name":"OwnershipTransferred","inputs":[{"name":"previousOwner","type":"address","indexed":true,"internalType":"address"},{"name":"newOwner","type":"address","indexed":true,"internalType":"address"}],"anonymous":false},{"type":"event","name":"ParticipantJoined","inputs":[{"name":"raffleId","type":"uint256","indexed":true,"internalType":"uint256"},{"name":"participant","type":"address","indexed":true,"internalType":"address"},{"name":"referrer","type":"address","indexed":true,"internalType":"address"},{"name":"participantCount","type":"uint256","indexed":false,"internalType":"uint256"}],"anonymous":false},{"type":"event","name":"Paused","inputs":[{"name":"account","type":"address","indexed":false,"internalType":"address"}],"anonymous":false},{"type":"event","name":"PlatformConfigUpdated","inputs":[{"name":"platformFee","type":"uint256","indexed":false,"internalType":"uint256"},{"name":"creatorFee","type":"uint256","indexed":false,"internalType":"uint256"},{"name":"referralFee","type":"uint256","indexed":false,"internalType":"uint256"}],"anonymous":false},{"type":"event","name":"PrizeClaimed","inputs":[{"name":"raffleId","type":"uint256","indexed":true,"internalType":"uint256"},{"name":"winner","type":"address","indexed":true,"internalType":"address"},{"name":"prizeIndex","type":"uint256","indexed":false,"internalType":"uint256"},{"name":"amount","type":"uint256","indexed":false,"internalType":"uint256"},{"name":"prizeType","type":"uint8","indexed":false,"internalType":"enum RaffleContractV2.PrizeType"}],"anonymous":false},{"type":"event","name":"RaffleCancelled","inputs":[{"name":"raffleId","type":"uint256","indexed":true,"internalType":"uint256"},{"name":"creator","type":"address","indexed":true,"internalType":"address"},{"name":"refundAmount","type":"uint256","indexed":false,"internalType":"uint256"}],"anonymous":false},{"type":"event","name":"RaffleCreated","inputs":[{"name":"raffleId","type":"uint256","indexed":true,"internalType":"uint256"},{"name":"creator","type":"address","indexed":true,"internalType":"address"},{"name":"title","type":"string","indexed":false,"internalType":"string"},{"name":"ticketPrice","type":"uint256","indexed":false,"internalType":"uint256"},{"name":"maxParticipants","type":"uint256","indexed":false,"internalType":"uint256"},{"name":"endTime","type":"uint256","indexed":false,"internalType":"uint256"},{"name":"paymentToken","type":"uint8","indexed":false,"internalType":"enum RaffleContractV2.PaymentToken"},{"name":"raffleType","type":"uint8","indexed":false,"internalType":"enum RaffleContractV2.RaffleType"}],"anonymous":false},{"type":"event","name":"RaffleDrawn","inputs":[{"name":"raffleId","type":"uint256","indexed":true,"internalType":"uint256"},{"name":"winners","type":"address[]","indexed":false,"internalType":"address[]"},{"name":"prizeCount","type":"uint256","indexed":false,"internalType":"uint256"},{"name":"timestamp","type":"uint256","indexed":false,"internalType":"uint256"}],"anonymous":false},{"type":"event","name":"ReferralRegistered","inputs":[{"name":"user","type":"address","indexed":true,"internalType":"address"},{"name":"referrer","type":"address","indexed":true,"internalType":"address"}],"anonymous":false},{"type":"event","name":"TokenAddressUpdated","inputs":[{"name":"token","type":"uint8","indexed":true,"internalType":"enum RaffleContractV2.PaymentToken"},{"name":"tokenAddress","type":"address","indexed":true,"internalType":"address"}],"anonymous":false},{"type":"event","name":"Unpaused","inputs":[{"name":"account","type":"address","indexed":false,"internalType":"address"}],"anonymous":false},{"type":"event","name":"UserVerified","inputs":[{"name":"user","type":"address","indexed":true,"internalType":"address"},{"name":"verified","type":"bool","indexed":false,"internalType":"bool"}],"anonymous":false},{"type":"error","name":"EnforcedPause","inputs":[]},{"type":"error","name":"ExpectedPause","inputs":[]},{"type":"error","name":"OwnableInvalidOwner","inputs":[{"name":"owner","type":"address","internalType":"address"}]},{"type":"error","name":"OwnableUnauthorizedAccount","inputs":[{"name":"account","type":"address","internalType":"address"}]},{"type":"error","name":"ReentrancyGuardReentrantCall","inputs":[]},{"type":"error","name":"SafeERC20FailedOperation","inputs":[{"name":"token","type":"address","internalType":"address"}]}],"bytecode":{"object":"0x6080346200014e57601f620040dd38819003918201601f19168301916001600160401b0383118484101762000152578084926060946040528339810103126200014e576200004d8162000166565b906200006a6040620000626020840162000166565b920162000166565b60017f9b779b17422d0df92223018b32b4d1fa46e071723d6817e2486d003becc55f00556001600160a01b039081169182156200013657815f549460018060a01b03199480868816175f558260405197167f8be0079c531659141344cd1fd0a4f28419497f9722a3daafe3b4186f6b6457e05f80a360fa600b556064600c556032600d55600a60105566038d7ea4c6800060115568056bc75e2d631000006012556127106013551683600e541617600e551690600f541617600f5560018055613f6190816200017c8239f35b604051631e4fbdf760e01b81525f6004820152602490fd5b5f80fd5b634e487b7160e01b5f52604160045260245ffd5b51906001600160a01b03821682036200014e5756fe61010080604052600436101561001d575b50361561001b575f80fd5b005b5f905f3560e01c9081630ded5c361461358d575080630efc88651461355e57806316708df414612e41578063290060ac14612d885780632f89854a14612d6b5780633bb091c514612d4e5780633f4ba83a14612cdf5780634690484014612cb75780634823b02614612c665780634e43603a14612b90578063584a7be114612b735780635c975abb14612b4f5780635d4bc0ce1461295b5780635e318e07146127fb5780635fba31711461258657806361728f3914612569578063619b6b031461254c57806361d027b31461252457806366da7bf3146123d5578063715018a61461237e5780637b15414014611f785780637e7ed03214611ed857806381fb1fb414611e8d5780638456cb5914611e2c578063885fe39f146114eb5780638a65d874146114755780638da5cb5b1461144e57806398d71138146113a0578063a34398a214611356578063a3e56fa81461132d578063a4cfbe4d1461130f578063a6e3295b146112ad578063b67fa0871461125c578063be4f3e411461123e578063c9c6b556146111d9578063cdd78cfc146111bb578063cf0d74371461117a578063d1d06b2e1461096c578063d51075c114610915578063ddca3f43146108f7578063e35fe366146108b8578063e4dafec91461028d5763f2fde38b03610010573461028a57602036600319011261028a576102176135f4565b61021f613beb565b6001600160a01b03908116908115610271575f54826bffffffffffffffffffffffff60a01b8216175f55167f8be0079c531659141344cd1fd0a4f28419497f9722a3daafe3b4186f6b6457e05f80a380f35b604051631e4fbdf760e01b815260048101849052602490fd5b80fd5b503461028a57602036600319011261028a57806102e06040516102af8161374e565b82815260606020820152606060408201526060808201528260808201528260a08201528260c08201528260e08201528261010082015282610120820152826101408201528261016082015282610180820152826101a0820152826101c0820152826101e0820152826102008201528261022082015282610240820152826102608201526060610280820152826102a0820152826102c082015201526004351515806108ab575b61035e90613884565b6004358152600260205260408120906040519161037a8361374e565b80548352604051610399816103928160018601613686565b038261376a565b60208401526040516103b2816103928160028601613686565b60408401526003810180546103c681613849565b916103d4604051938461376a565b81835284526020808520859184015b8383106107fd5750505050606084015260048101546080840152600581015460a0840152600681015460c084015260ff600782015460018060a01b03811660e0860152610434828260a01c166137d1565b818160a01c16610100860152818160a81c161515610120860152818160b01c16151561014086015260b81c161515610160840152600881015461018084015260098101546101a0840152600a810154600460ff821610156107e95760ff81166101c085015260081c6001600160a01b03166101e0840152600b810154610200840152600c810154610220840152600d810154610240840152600e810154610260840152600f8101546104e581613849565b906104f3604051928361376a565b80825260208201600f840185526020852085915b8383106107c45787876012888861028085015260108101546102a085015260118101546102c085015201546102e083015260405190602082528251602083015261057b610565602085015161030060408601526103208501906137ac565b6040850151848203601f190160608601526137ac565b90606084015191601f19848203016080850152825180825260208201916020808360051b83010195019284915b83831061071e575050505050608084015160a084015260a084015160c084015260c084015160e084015260018060a01b0360e0850151166101008401526101008401516105f4816137d1565b6101208401526101208401511515610140840152610140840151151561016084015261016084015115156101808401526101808401516101a08401526101a08401516101c08401526106506101c08501516101e08501906137db565b60018060a01b036101e08501511661020084015261020084015161022084015261022084015161024084015261024084015161026084015261026084015161028084015261028084015191601f19848203016102a0850152825190818152602081016020808460051b840101950193915b8383106106f1578680876102e08b6102a08101516102c08501526102c08101518285015201516103008301520390f35b909192939460208061070f600193601f1986820301875289516137ac565b970193019301919392906106c1565b9091929395602080600192601f1985820301865289519060e080610775610763610753865161010087526101008701906137ac565b87870151868203898801526137ac565b604086015185820360408701526137ac565b9360608101516060850152608081015161078e816137d1565b6080850152878060a01b0360a08201511660a085015260c081015160c085015201511515910152980193019301919392906105a8565b6001602081926040516107db816103928189613686565b815201920192019190610507565b634e487b7160e01b83526021600452602483fd5b6007602060019260405161081081613732565b60405161082181610392818a613686565b81526040516108368161039281898b01613686565b8382015260405161084e816103928160028b01613686565b604082015260038601546060820152600486015460ff90818116610871816137d1565b6080840152868060a01b039060081c1660a0830152600587015460c0830152600687015416151560e08201528152019201920191906103e3565b5060015460043510610355565b503461028a57602036600319011261028a5760209060ff906040906001600160a01b036108e36135f4565b168152600a84522054166040519015158152f35b503461028a578060031936011261028a576020601654604051908152f35b503461028a57604036600319011261028a5761092f6135f4565b6001600160a01b031681526003602052604081208054602435929083101561028a57602061095d84846135c9565b90549060031b1c604051908152f35b503461028a57602036600319011261028a57610986613b8b565b60043515158061116d575b61099a90613884565b6004358152600260205260408120600781015460ff8160a81c168061115f575b80611151575b1561110d57600682015442106110c857600b82015460038301549182821061108357336001600160a01b038216148015611070575b156110325761ffff60a81b1916600160b01b176007840155426009840155600c830154600b5461271091610a3e918390610a2f9083613b5a565b04600d870155600c5490613b5a565b04600e84015583435f19015b838210610eb257505050600435835260066020527f78c45e3d506a9b166bc554d028c24fe8d9d16361d2606fa43015beaf1ab66b4460408420610a986040519160608352606083019061391a565b92602082015242604082015280600435930390a2600260ff600783015460a01c16610ac2816137d1565b149081610e9f575b50610ae4575b60015f80516020613f0c8339815191525580f35b600435815260026020526040812060015490610aff826138ff565b60015581835260026020526040832090828255610b226001820160018401613e2d565b610b326002820160028401613e2d565b600481015460048301556005810154600583015560108101610b5581544261390d565b60068401556007828101805491850180546001600160a01b0319166001600160a01b039390931692909217825554610b939060a01c60ff1682613abe565b805462ffffff60a81b1916600160a81b179055426008840155600a82810154610be991850190610bc69060ff1682613ae2565b600a8401548154610100600160a81b031916610100600160a81b03909116179055565b546010830155601181015460118301556012810154600181018111610e8b576001016012830155835b6003820154811015610d3c57610c2b816003840161398d565b506003840154600160401b811015610d2857806001610c53920160038701556003860161398d565b610d14579081816001949303610c6c575b505001610c12565b600660ff8184610c7f610d0d9686613e2d565b610c8d888201898701613e2d565b610c9d6002820160028701613e2d565b60038101546003860155610ced6004860160048301610cbf8682541683613b0e565b548154610100600160a81b031916600891821c60a08d901b8d90031690911b610100600160a81b0316179055565b6005810154600586015501541691019060ff801983541691151516179055565b5f80610c64565b634e487b7160e01b87526004879052602487fd5b634e487b7160e01b87526041600452602487fd5b50929092815b600f820154811015610dc257610d5b81600f84016135c9565b50600f860154600160401b811015610dae57806001610d839201600f890155600f88016135c9565b610d9a5760019291610d9491613e2d565b01610d42565b634e487b7160e01b85526004859052602485fd5b634e487b7160e01b85526041600452602485fd5b5060078101546001600160a01b03168252600360205260408220919392917f2434696dd1e551abe6544c4a7b0e15871db3edb668cf702cf54b86b82e8494f291610e5191610e11908590613b26565b6007810154600482015495610e6b6006600585015492015460ff600a860154169060ff8560a01c169360405197889760c08952600160c08a019101613686565b9a60208801526040870152606086015260808501906137db565b610e74816137d1565b60a08301526001600160a01b0316940390a3610ad0565b634e487b7160e01b85526011600452602485fd5b905060116012820154910154115f610aca565b9194939092438311610e8b576040514260208201524460408201528340606082015260043560808201528460a08201523360601b60c082015260b481528060e08101106001600160401b0360e08301111761101e57868160e0610f1f930160405260208151910120613b6d565b60043586526005602052610f3681604088206135c9565b905460039190911b1c6001600160a01b03165b610f5581600435613dd7565b80611007575b15610fbe5750600181018111610faa57866001610f789201613b6d565b9260043586526005602052610f9084604088206135c9565b905491949160039190911b1c6001600160a01b0316610f49565b634e487b7160e01b86526011600452602486fd5b600192959150969392959660043588526006602052610fe08160408a206138c4565b828060a01b031687526008602052816040882001610ffe81546138ff565b90550190610a4a565b506004358752600660205287604088205410610f5b565b634e487b7160e01b5f52604160045260245ffd5b60405162461bcd60e51b81526020600482015260166024820152754e6f7420617574686f72697a656420746f206472617760501b6044820152606490fd5b5084546001600160a01b031633146109f5565b60405162461bcd60e51b815260206004820152601760248201527f4e6f7420656e6f756768207061727469636970616e74730000000000000000006044820152606490fd5b60405162461bcd60e51b815260206004820152601860248201527f526166666c6520686173206e6f7420656e6465642079657400000000000000006044820152606490fd5b606460405162461bcd60e51b815260206004820152602060248201527f526166666c65206e6f7420617661696c61626c6520666f722064726177696e676044820152fd5b5060ff8160b81c16156109c0565b5060ff8160b01c16156109ba565b5060015460043510610991565b503461028a57602036600319011261028a5760043560048110156111b7576020906001600160a01b03906111ad90613860565b5416604051908152f35b5080fd5b503461028a578060031936011261028a576020600b54604051908152f35b503461028a57602036600319011261028a576080906001600160a01b0390604090826112036135f4565b168152600960205220908154169060018101549060ff6003600283015492015416916040519384526020840152604083015215156060820152f35b503461028a578060031936011261028a576020601354604051908152f35b503461028a57606036600319011261028a576112766135f4565b61127e613beb565b60018060a01b03166bffffffffffffffffffffffff60a01b601454161760145560243560155560443560165580f35b503461028a57602036600319011261028a576103926112f460406113009360043580151580611304575b6112e090613884565b81526005602052206040519283809261391a565b6040519182918261360a565b0390f35b5060015481106112d7565b503461028a578060031936011261028a576020600c54604051908152f35b503461028a578060031936011261028a576014546040516001600160a01b039091168152602090f35b503461028a57604036600319011261028a5760406113726135de565b9160043581526004602052209060018060a01b03165f52602052602060ff60405f2054166040519015158152f35b503461028a576020806003193601126111b7576001600160a01b036113c36135f4565b168252600381526040822060405192838383549182815201908193835284832090835b81811061143a57505050846113fc91038561376a565b60405193838594850191818652518092526040850193925b82811061142357505050500390f35b835185528695509381019392810192600101611414565b8254845292860192600192830192016113e6565b503461028a578060031936011261028a57546040516001600160a01b039091168152602090f35b503461028a57602036600319011261028a5760c0906040906001600160a01b0361149d6135f4565b168152600860205220805490600181015490600281015460038201549060ff6005600485015494015416936040519586526020860152604085015260608401526080830152151560a0820152f35b5061018036600319011261028a576004356001600160401b0381116111b757611518903690600401613803565b6024356001600160401b038111611e2857611537903690600401613803565b6001600160401b0360443511611e2857366023604435011215611e28576044356004013561156481613849565b90611572604051928361376a565b808252602082013660248360051b604435010111611e2457602460443501905b60248360051b60443501018210611ce557505050600460c4351015611cdd57600360e4351015611cdd57610104356001600160a01b0381169003611ce1576001600160401b036101243511611cdd5736602361012435011215611cdd5761012435600401359261160184613849565b9361160f604051958661376a565b80855260208501903660248260051b61012435010111611cd95760246101243501915b60248260051b6101243501018310611ca15750505061164f613bba565b338552600a60205260ff6040862054168015611c8a575b15611c5157601154606435101580611c43575b15611c075781516084351180611bf9575b15611bb45781518015159081611ba7575b5015611b6c5760a43515611b2757805115611aea5760c435600303611a8e57610104356001600160a01b031615611a49575b6116d860e4356137d1565b600160e435146119ec575b600154936116f0856138ff565b6001556116ff60a4354261390d565b948087526002602052611729604088209582875561172085600189016139f5565b600287016139f5565b60643560048601556084356005860155600685018690556007850180546001600160a01b0319163317815561176060e43582613abe565b805462ffffff60a81b1916600160a81b1790554260088601556117af600a860161178c60c43582613ae2565b8054610100600160a81b0319166101043560081b610100600160a81b0316179055565b610144356010860155610164356011860155866012860155865b84518110156118e7576117dc8186613afa565b516003870154600160401b8110156118d357806001611804920160038a01556003890161398d565b9190916118bf5760019291600660e0836118226118b99551856139f5565b61183260208201518886016139f5565b6118436040820151600286016139f5565b606081015160038501556118986004850161186b6080840151611865816137d1565b82613b0e565b60a0838101518254610100600160a81b031916918b901b8b90031660081b610100600160a81b0316179055565b60c081015160058501550151151591019060ff801983541691151516179055565b016117c9565b634e487b7160e01b8a5260048a905260248afd5b634e487b7160e01b8a52604160045260248afd5b508692935085835b8351811015611941576119028185613afa565b51600f880154600160401b811015610d285780600161192a9201600f8b0155600f8a016135c9565b610d14576001929161193b916139f5565b016118ef565b60208383817f2434696dd1e551abe6544c4a7b0e15871db3edb668cf702cf54b86b82e8494f28a60408b3381526003885261197e85838320613b26565b338152600888522061199081546138ff565b90556119a76040519160c0835260c08301906137ac565b9360643587830152608435604083015260608201526119cb6080820160c4356137db565b6119d660e4356137d1565b60e43560a08201528033940390a3604051908152f35b83516116e35760405162461bcd60e51b815260206004820152602960248201527f5072697661746520726166666c6520726571756972657320616c6c6f7765642060448201526861646472657373657360b81b6064820152608490fd5b60405162461bcd60e51b815260206004820152601d60248201527f437573746f6d20746f6b656e20616464726573732072657175697265640000006044820152606490fd5b60c435156116cd576001600160a01b03611aa960c435613860565b54166116cd5760405162461bcd60e51b8152602060048201526013602482015272151bdad95b881b9bdd081cdd5c1c1bdc9d1959606a1b6044820152606490fd5b60405162461bcd60e51b81526020600482015260156024820152745469746c652063616e6e6f7420626520656d70747960581b6044820152606490fd5b60405162461bcd60e51b815260206004820152601f60248201527f4475726174696f6e206d7573742062652067726561746572207468616e2030006044820152606490fd5b60405162461bcd60e51b8152602060048201526013602482015272125b9d985b1a59081c1c9a5e994818dbdd5b9d606a1b6044820152606490fd5b905060105410155f61169b565b60405162461bcd60e51b815260206004820152601860248201527f496e76616c6964206d6178207061727469636970616e747300000000000000006044820152606490fd5b50601354608435111561168a565b60405162461bcd60e51b8152602060048201526014602482015273496e76616c6964207469636b657420707269636560601b6044820152606490fd5b506012546064351115611679565b60405162461bcd60e51b8152602060048201526011602482015270155cd95c881b9bdd081d995c9a599a5959607a1b6044820152606490fd5b506008602052606460046040872001541015611666565b6001600160401b03833511611cd557602080602492611cc836858835610124350101613803565b8152019301929050611632565b8780fd5b8680fd5b8380fd5b5f80fd5b81356001600160401b038111611cd557610100604435820136036023190112611cd55760405190611d1582613732565b6001600160401b0360248260443501013511611e2057611d413660246044358401818101350101613803565b82526001600160401b03604482813501013511611e2057611d6f366044803584019081013501602401613803565b60208301526064816044350101356001600160401b038111611e1c57611d9f906024369184604435010101613803565b604083015260443581016084810135606084015260a401356003811015611e1c576080830152604435810160c401356001600160a01b0381168103611ce15760a0830152604435810160e481013560c084015261010401358015159003611ce15760443501610104013560e0820152815260209182019101611592565b8980fd5b8880fd5b8580fd5b8280fd5b503461028a578060031936011261028a57611e45613beb565b611e4d613bba565b805460ff60a01b1916600160a01b1781556040513381527f62e78cea01bee320cd4e420270b5ea74000d11b0c9f74754ebdbfc544b05a25890602090a180f35b503461028a57611e9c366135b3565b9190815260056020526040812090815483101561028a576020611ebf84846135c9565b905460405160039290921b1c6001600160a01b03168152f35b503461028a57604036600319011261028a57611ef26135f4565b6024359081151590818303611ce1577f34736af44d2b91cd43fa896d4cfe0861ec1e6b4538583d385fc671639e9153b291611f6e602092611f31613beb565b6001600160a01b0316808752600a84526040808820805497151560ff1660ff19988916811790915560088652908820600501805490971617909555565b604051908152a280f35b5034611ce157611f87366135b3565b90611f90613b8b565b80151580612373575b611fa290613884565b805f5260206002815260405f2060ff600782015460b01c161561233657600381019081548510156122fb57835f526006835260405f20548510156122c257835f5260068352611ff48560405f206135c9565b90546001600160a01b03939160031b1c8316330361228e5760ff600661201a888461398d565b50015416612251578561202c9161398d565b5060068101805460ff191660011790556120468686613c94565b926004820192835460ff811661205b816137d1565b806121bf575050600a0154915060ff821660048110156121ab578491908061217757505087808093508092335af161209161395e565b501561213a575b33865260088352600360408720016120b183825461390d565b90553386526008835260046040872001805490603282018092116121265755546040519485529184015260ff166120e7816137d1565b60408301527f68a7b9d735e7325389313ada0b3f87b4d86144c741c0be2e4d34e241a707faa960603393a360015f80516020613f0c8339815191525580f35b634e487b7160e01b88526011600452602488fd5b60405162461bcd60e51b8152600481018490526015602482015274141c9a5e99481d1c985b9cd9995c8819985a5b1959605a1b6044820152606490fd5b61219493829160038103612199575060081c16905b339116613c16565b612098565b6121a39150613860565b54169061218c565b634e487b7160e01b89526021600452602489fd5b6001919392506121ce816137d1565b146121dc575b505050612098565b60059160081c16910154813b15611ce1575f91606483926040519485938492632142170760e11b845230600485015233602485015260448401525af180156122465761222a575b80806121d4565b9095506001600160401b03811161101e576040525f945f612223565b6040513d5f823e3d90fd5b60405162461bcd60e51b8152600481018590526015602482015274141c9a5e9948185b1c9958591e4818db185a5b5959605a1b6044820152606490fd5b60405162461bcd60e51b815260048101859052600c60248201526b2737ba1030903bb4b73732b960a11b6044820152606490fd5b60405162461bcd60e51b8152600481018490526011602482015270141c9a5e99481b9bdd08185dd85c991959607a1b6044820152606490fd5b60405162461bcd60e51b8152600481018490526013602482015272092dcecc2d8d2c840e0e4d2f4ca40d2dcc8caf606b1b6044820152606490fd5b60405162461bcd60e51b815260048101839052601560248201527415da5b9b995c9cc81b9bdd08191c985ddb881e595d605a1b6044820152606490fd5b506001548110611f99565b34611ce1575f366003190112611ce157612396613beb565b5f80546001600160a01b0319811682556001600160a01b03167f8be0079c531659141344cd1fd0a4f28419497f9722a3daafe3b4186f6b6457e08280a3005b34611ce1576060366003190112611ce1576044356024356004356123f7613beb565b6103e881116124df576101f4821161249a5760c88311612455577f7ceb229301232679d1796688c2c31cbc0cee80f0bfd3170407ab31d0145d7fb19260609282600b5580600c5581600d5560405192835260208301526040820152a1005b60405162461bcd60e51b815260206004820152601d60248201527f526566657272616c206665652063616e6e6f74206578636565642032250000006044820152606490fd5b60405162461bcd60e51b815260206004820152601c60248201527f43726561746f72206665652063616e6e6f7420657863656564203525000000006044820152606490fd5b60405162461bcd60e51b815260206004820152601e60248201527f506c6174666f726d206665652063616e6e6f74206578636565642031302500006044820152606490fd5b34611ce1575f366003190112611ce157600f546040516001600160a01b039091168152602090f35b34611ce1575f366003190112611ce1576020601154604051908152f35b34611ce1575f366003190112611ce1576020601554604051908152f35b34611ce157602080600319360112611ce157600435906125a4613b8b565b811515806127f0575b6125b690613884565b815f526002815260405f2090600782019283549360ff9460ff8160a81c16806127e2575b1561279d576001600160a01b039033818316148015612791575b1561274c5762ff00ff60a81b1916600160b81b1782556004850154600b8601959093600a8201939091905f5b885481101561270557835f52600588528461263e8260405f206135c9565b919054600392831b1c168754918c83169260048410156126f1578a938992816126ba57505050505f80809381935af161267561395e565b5015612685576001905b01612620565b60405162461bcd60e51b815260048101899052600d60248201526c1499599d5b990819985a5b1959609a1b6044820152606490fd5b926126db94928192600198979581145f146126e0575060081c165b16613c16565b61267f565b6126ea9150613860565b54166126d5565b634e487b7160e01b5f52602160045260245ffd5b50600c7f0871ac1366305b60203984de1a540b8d88dbfba481bb2083cfe20b642ae47f65929488925416940154604051908152a360015f80516020613f0c83398151915255005b60405162461bcd60e51b815260048101869052601860248201527f4e6f7420617574686f72697a656420746f2063616e63656c00000000000000006044820152606490fd5b50815f541633146125f4565b60405162461bcd60e51b815260048101859052601a60248201527f526166666c652063616e6e6f742062652063616e63656c6c65640000000000006044820152606490fd5b5060ff8160b01c16156125da565b5060015482106125ad565b34611ce1576020366003190112611ce157600435612817613beb565b80151580612950575b61282990613884565b5f52600260205260405f2060ff600782015460b01c161561291457600a8101549060ff82169160048310156126f157826128c65750600e54600d909101545f92508291829182916001600160a01b03165af161288361395e565b501561288b57005b60405162461bcd60e51b8152602060048201526013602482015272119959481d1c985b9cd9995c8819985a5b1959606a1b6044820152606490fd5b61001b92600381036128f9575060081c6001600160a01b0316905b60018060a01b03600d81600e54169201549216613c16565b6001600160a01b03915061290c90613860565b5416906128e1565b60405162461bcd60e51b8152602060048201526014602482015273149859999b19481b9bdd0818dbdb5c1b195d195960621b6044820152606490fd5b506001548110612820565b34611ce1576020366003190112611ce1576004355f52600260205260405f20805460405160a05260a05160a051600184019061299691613686565b0360a051906129a49161376a565b60405160e08190526129b98160028501613686565b0360e051906129c79161376a565b60048201546080526005820154916006810154600782015460088301546009840154600a850154600b86015490600c87015492600d88015494600e8901549660108a01549860118b01549a601201549b60405160c0526102c09060c051528060c0516020015260c0510160a05190612a3e916137ac565b60c051810360c0516040015260e05190612a57916137ac565b9c60805160c0516060015260c0516080015260c05160a00152600160a01b60019003811660c05160c001528060a01c60ff16612a92906137d1565b8060a01c60ff1660c05160e001528060a81c60ff16151560c05161010001528060b01c60ff16151560c051610120015260b81c60ff16151560c051610140015260c051610160015260c051610180015260c0516101a00160ff821690612af7916137db565b600160a01b600190039060081c1660c0516101c0015260c0516101e0015260c051610200015260c051610220015260c051610240015260c051610260015260c051610280015260c0516102a0015260c051900360c051f35b34611ce1575f366003190112611ce157602060ff5f5460a01c166040519015158152f35b34611ce1575f366003190112611ce1576020600d54604051908152f35b34611ce1576020366003190112611ce157612ba96135f4565b5f60a0604051612bb881613717565b828152826020820152826040820152826060820152826080820152015260018060a01b03165f52600860205260c060405f20604051612bf681613717565b8154918282526001810154602083019081526002820154604084019081526003830154916060850192835260a060ff6005600487015496608089019788520154169501941515855260405195865251602086015251604085015251606084015251608083015251151560a0820152f35b34611ce1576020366003190112611ce15760043580151580612cac575b612c8c90613884565b5f5260066020526113006103926112f460405f206040519283809261391a565b506001548110612c83565b34611ce1575f366003190112611ce157600e546040516001600160a01b039091168152602090f35b34611ce1575f366003190112611ce157612cf7613beb565b5f5460ff8160a01c1615612d3c5760ff60a01b19165f556040513381527f5db9ee0a495bf2e6ff9c91a7834c1ba4fdd244a5e8aa4e537bd38aeae4b073aa90602090a1005b604051638dfc202b60e01b8152600490fd5b34611ce1575f366003190112611ce1576020601254604051908152f35b34611ce1575f366003190112611ce1576020601054604051908152f35b34611ce1576040366003190112611ce1576004356004811015611ce157612dad6135de565b612db5613beb565b6001600160a01b0316908115612e0457612dce81613860565b80546001600160a01b031916831790557f94ef69703cba20a59301db32d4340e0e7770a4b3f3e4985582152e3caa75789c5f80a3005b60405162461bcd60e51b8152602060048201526015602482015274496e76616c696420746f6b656e206164647265737360581b6044820152606490fd5b6040366003190112611ce157612e556135de565b612e5d613b8b565b612e65613bba565b600435151580613551575b612e7990613884565b6004355f52600260205260405f2090600782015460ff8160a81c1680613543575b80613535575b156134f95760068301544210156134c1576004355f52600460205260405f20335f5260205260ff60405f20541661348457600b8301546005840154111561344e5760ff60019160a01c16612ef3816137d1565b146131b3575b600a82015460ff811660048110156126f157806130b457505060048201543403613077575b6004355f526005602052612f353360405f206138c4565b6004355f52600460205260405f20335f5260205260405f20600160ff19825416179055612f65600b8301546138ff565b600b8301556004820154612f7e600c840191825461390d565b9055335f526008602052600260405f2001612f9981546138ff565b90556001600160a01b0316908115158061306d575b80613054575b613000575b600b015460405190815233907f9b1bd42584404960fddeb5ce25d3300c3d7452d982d1726da3a14982a6641eab602060043592a460015f80516020613f0c83398151915255005b815f526009602052600160405f200161301981546138ff565b9055815f526008602052600460405f2001908154600a810180911161304057909155612fb9565b634e487b7160e01b5f52601160045260245ffd5b50815f52600960205260ff600360405f20015416612fb4565b5033821415612fae565b60405162461bcd60e51b8152602060048201526015602482015274496e636f727265637420656e74727920707269636560581b6044820152606490fd5b3461316f5760038103613155575060081c6001600160a01b03165b60018060a01b0316600483015490604051916323b872dd60e01b5f52336004523060245260445260205f60648180855af160015f5114811615613136575b826040525f60605215613121575050612f1e565b635274afe760e01b8252600482015260249150fd5b600181151661314c57813b15153d15161661310d565b823d5f823e3d90fd5b6001600160a01b03915061316890613860565b54166130cf565b606460405162461bcd60e51b815260206004820152602060248201527f455448206e6f7420616363657074656420666f72207468697320726166666c656044820152fd5b5f80600f840154905b81811061320f575b5050612ef95760405162461bcd60e51b815260206004820152601d60248201527f4e6f7420616c6c6f77656420696e207072697661746520726166666c650000006044820152606490fd5b61321c81600f87016135c9565b5060405190815f82549261322f8461364e565b936001811690811561342d57506001146133ee575b50613258925003601f19810183528261376a565b602081519101206040518060408101106001600160401b0360408301111761101e5760408101604052601081526f181899199a1a9b1b9c1cb0b131b232b360811b6020820152604051908160608101106001600160401b0360608401111761101e5760608201604052602a825260403660208401378151156133da57603060208301538151600110156133da57607860218301535f5b6014811061333e57505060405161332260208281613315818301968781519384920161378b565b810103808452018261376a565b51902014613332576001016131bc565b505050600183806131c4565b600c81018111613040576020600c820110156133da5733600c82011a906001600160f81b031980613376600485901c600f1686613bda565b5116928260011b938385046002148415171561304057846002019182600211613040576133b4926133ac600f935f1a918a613bda565b531685613bda565b51166003908382018211613040576001936133d3915f1a920186613bda565b53016132ee565b634e487b7160e01b5f52603260045260245ffd5b9150505f528160205f205f905b83821061341357505060206132589282010189613244565b6020919250806001915483858801015201910183916133fb565b90506020925061325894915060ff1916828401528015150282010189613244565b60405162461bcd60e51b815260206004820152600e60248201526d149859999b19481a5cc8199d5b1b60921b6044820152606490fd5b60405162461bcd60e51b8152602060048201526015602482015274416c72656164792070617274696369706174696e6760581b6044820152606490fd5b60405162461bcd60e51b815260206004820152601060248201526f149859999b19481a185cc8195b99195960821b6044820152606490fd5b60405162461bcd60e51b8152602060048201526014602482015273526166666c65206e6f7420617661696c61626c6560601b6044820152606490fd5b5060ff8160b81c1615612ea0565b5060ff8160b01c1615612e9a565b5060015460043510612e70565b34611ce15761356c366135b3565b905f52600660205260405f208054821015611ce157602091611ebf916135c9565b34611ce1575f366003190112611ce1576001545f19810191908211613040576020918152f35b6040906003190112611ce1576004359060243590565b80548210156133da575f5260205f2001905f90565b602435906001600160a01b0382168203611ce157565b600435906001600160a01b0382168203611ce157565b60209060206040818301928281528551809452019301915f5b828110613631575050505090565b83516001600160a01b031685529381019392810192600101613623565b90600182811c9216801561367c575b602083101461366857565b634e487b7160e01b5f52602260045260245ffd5b91607f169161365d565b80545f93926136948261364e565b918282526020936001916001811690815f146136f857506001146136ba575b5050505050565b90939495505f92919252835f2092845f945b8386106136e457505050500101905f808080806136b3565b8054858701830152940193859082016136cc565b60ff19168685015250505090151560051b010191505f808080806136b3565b60c081019081106001600160401b0382111761101e57604052565b61010081019081106001600160401b0382111761101e57604052565b61030081019081106001600160401b0382111761101e57604052565b90601f801991011681019081106001600160401b0382111761101e57604052565b5f5b83811061379c5750505f910152565b818101518382015260200161378d565b906020916137c58151809281855285808601910161378b565b601f01601f1916010190565b600311156126f157565b9060048210156126f15752565b6001600160401b03811161101e57601f01601f191660200190565b81601f82011215611ce15780359061381a826137e8565b92613828604051948561376a565b82845260208383010111611ce157815f926020809301838601378301015290565b6001600160401b03811161101e5760051b60200190565b60048110156126f1575f52600760205260405f2090565b9190820391821161304057565b1561388b57565b60405162461bcd60e51b8152602060048201526011602482015270125b9d985b1a59081c9859999b19481251607a1b6044820152606490fd5b8054600160401b81101561101e576138e1916001820181556135c9565b60018060a09493941b038084549260031b9316831b921b1916179055565b5f1981146130405760010190565b9190820180921161304057565b9081548082526020809201925f5260205f20915f905b82821061393e575050505090565b83546001600160a01b031685529384019360019384019390910190613930565b3d15613988573d9061396f826137e8565b9161397d604051938461376a565b82523d5f602084013e565b606090565b80548210156133da575f52600760205f20910201905f90565b601f82116139b357505050565b5f5260205f20906020601f840160051c830193106139eb575b601f0160051c01905b8181106139e0575050565b5f81556001016139d5565b90915081906139cc565b91909182516001600160401b03811161101e57613a1c81613a16845461364e565b846139a6565b602080601f8311600114613a5d57508190613a4e9394955f92613a52575b50508160011b915f199060031b1c19161790565b9055565b015190505f80613a3a565b90601f19831695845f5260205f20925f905b888210613aa657505083600195969710613a8e575b505050811b019055565b01515f1960f88460031b161c191690555f8080613a84565b80600185968294968601518155019501930190613a6f565b90613ac8816137d1565b815460ff60a01b191660a09190911b60ff60a01b16179055565b9060048110156126f15760ff80198354169116179055565b80518210156133da5760209160051b010190565b90613b18816137d1565b60ff80198354169116179055565b8054600160401b81101561101e57613b43916001820181556135c9565b819291549060031b91821b915f19901b1916179055565b8181029291811591840414171561304057565b8115613b77570690565b634e487b7160e01b5f52601260045260245ffd5b5f80516020613f0c8339815191526002815414613ba85760029055565b604051633ee5aeb560e01b8152600490fd5b60ff5f5460a01c16613bc857565b60405163d93c066560e01b8152600490fd5b9081518110156133da570160200190565b5f546001600160a01b03163303613bfe57565b60405163118cdaa760e01b8152336004820152602490fd5b60405163a9059cbb60e01b5f9081526001600160a01b039384166004526024949094529260209060448180855af160015f5114811615613c75575b8360405215613c5f57505050565b635274afe760e01b835216600482015260249150fd5b6001811516613c8b57813b15153d151616613c51565b833d5f823e3d90fd5b5f52600260205260405f20906003613cc3613cb8600c850154600d86015490613877565b600e85015490613877565b92015460018103613cd357505090565b60028103613d145750613cfa57604681029080820460461490151715613040576064900490565b601e810290808204601e1490151715613040576064900490565b60038103613d7957508015613d5e57600114613d4457600f810290808204600f1490151715613040576064900490565b601981029080820460191490151715613040576064900490565b50603c810290808204603c1490151715613040576064900490565b908115613b77576003811015613dc55760058102908082046005149015171561304057601403916014831161304057613dbb613dc192606494905b850461390d565b90613b5a565b0490565b50606491613dbb613dc1925f90613db4565b905f5b825f52600660205260405f208054821015613e255781613df9916135c9565b905460039190911b1c6001600160a01b0390811690831614613e1d57600101613dda565b505050600190565b505050505f90565b90808214613f0757613e3f815461364e565b906001600160401b03821161101e57613e6282613e5c855461364e565b856139a6565b5f90601f8311600114613e9a57613a4e92915f9183613e8f5750508160011b915f199060031b1c19161790565b015490505f80613a3a565b90601f198316915f5260209160205f2090855f5260205f20935f905b828210613eee575050908460019594939210613ed657505050811b019055565b01545f1960f88460031b161c191690555f8080613a84565b8495819295850154815560018091019601940190613eb6565b505056fe9b779b17422d0df92223018b32b4d1fa46e071723d6817e2486d003becc55f00a264697066735822122098677e4dbbc6441453ce426923e179ab3f76b18842961a5138d9eda595a66acb64736f6c63430008180033","linkReferences":{}},"methodIdentifiers":{"cancelRaffle(uint256)":"5fba3171","claimPrize(uint256,uint256)":"7b154140","createRaffle(string,string,(string,string,string,uint256,uint8,address,uint256,bool)[],uint256,uint256,uint256,uint8,uint8,address,string[],uint256,uint256)":"885fe39f","creatorFeePercentage()":"a4cfbe4d","drawWinners(uint256)":"d1d06b2e","fee()":"ddca3f43","feeRecipient()":"46904840","getRaffle(uint256)":"e4dafec9","getRaffleParticipants(uint256)":"a6e3295b","getRaffleWinners(uint256)":"4823b026","getTotalRaffles()":"0ded5c36","getUserRaffles(address)":"98d71138","getUserStats(address)":"4e43603a","hasParticipated(uint256,address)":"a34398a2","joinRaffle(uint256,address)":"16708df4","keyHash()":"61728f39","maxParticipantsPerRaffle()":"be4f3e41","maxPrizesPerRaffle()":"2f89854a","maxTicketPrice()":"3bb091c5","minTicketPrice()":"619b6b03","owner()":"8da5cb5b","participants(uint256,uint256)":"81fb1fb4","pause()":"8456cb59","paused()":"5c975abb","platformFeePercentage()":"cdd78cfc","raffles(uint256)":"5d4bc0ce","referralData(address)":"c9c6b556","referralFeePercentage()":"584a7be1","renounceOwnership()":"715018a6","setTokenAddress(uint8,address)":"290060ac","setVRFConfig(address,bytes32,uint256)":"b67fa087","tokenAddresses(uint8)":"cf0d7437","transferOwnership(address)":"f2fde38b","treasury()":"61d027b3","unpause()":"3f4ba83a","updatePlatformConfig(uint256,uint256,uint256)":"66da7bf3","userRaffles(address,uint256)":"d51075c1","userStats(address)":"8a65d874","verifiedUsers(address)":"e35fe366","verifyUser(address,bool)":"7e7ed032","vrfCoordinator()":"a3e56fa8","winners(uint256,uint256)":"0efc8865","withdrawFees(uint256)":"5e318e07"},"id":3}