{"abi":[{"type":"constructor","inputs":[{"name":"_feeRecipient","type":"address","internalType":"address"},{"name":"_treasury","type":"address","internalType":"address"},{"name":"_initialOwner","type":"address","internalType":"address"}],"stateMutability":"nonpayable"},{"type":"receive","stateMutability":"payable"},{"type":"function","name":"cancelRaffle","inputs":[{"name":"_raffleId","type":"uint256","internalType":"uint256"}],"outputs":[],"stateMutability":"nonpayable"},{"type":"function","name":"claimPrize","inputs":[{"name":"_raffleId","type":"uint256","internalType":"uint256"},{"name":"_prizeIndex","type":"uint256","internalType":"uint256"}],"outputs":[],"stateMutability":"nonpayable"},{"type":"function","name":"createRaffle","inputs":[{"name":"_title","type":"string","internalType":"string"},{"name":"_description","type":"string","internalType":"string"},{"name":"_prizes","type":"tuple[]","internalType":"struct RaffleContractV2Optimized.Prize[]","components":[{"name":"name","type":"string","internalType":"string"},{"name":"description","type":"string","internalType":"string"},{"name":"imageUrl","type":"string","internalType":"string"},{"name":"value","type":"uint256","internalType":"uint256"},{"name":"prizeType","type":"uint8","internalType":"enum RaffleContractV2Optimized.PrizeType"},{"name":"nftContract","type":"address","internalType":"address"},{"name":"nftTokenId","type":"uint256","internalType":"uint256"},{"name":"isClaimed","type":"bool","internalType":"bool"}]},{"name":"_ticketPrice","type":"uint256","internalType":"uint256"},{"name":"_maxParticipants","type":"uint256","internalType":"uint256"},{"name":"_duration","type":"uint256","internalType":"uint256"},{"name":"_paymentToken","type":"uint8","internalType":"enum RaffleContractV2Optimized.PaymentToken"},{"name":"_raffleType","type":"uint8","internalType":"enum RaffleContractV2Optimized.RaffleType"},{"name":"_customTokenAddress","type":"address","internalType":"address"},{"name":"_allowedAddresses","type":"string[]","internalType":"string[]"},{"name":"_recurringInterval","type":"uint256","internalType":"uint256"},{"name":"_maxRecurrences","type":"uint256","internalType":"uint256"}],"outputs":[{"name":"","type":"uint256","internalType":"uint256"}],"stateMutability":"payable"},{"type":"function","name":"creatorFeePercentage","inputs":[],"outputs":[{"name":"","type":"uint256","internalType":"uint256"}],"stateMutability":"view"},{"type":"function","name":"drawWinners","inputs":[{"name":"_raffleId","type":"uint256","internalType":"uint256"}],"outputs":[],"stateMutability":"nonpayable"},{"type":"function","name":"fee","inputs":[],"outputs":[{"name":"","type":"uint256","internalType":"uint256"}],"stateMutability":"view"},{"type":"function","name":"feeRecipient","inputs":[],"outputs":[{"name":"","type":"address","internalType":"address"}],"stateMutability":"view"},{"type":"function","name":"getRaffle","inputs":[{"name":"_raffleId","type":"uint256","internalType":"uint256"}],"outputs":[{"name":"raffle","type":"tuple","internalType":"struct RaffleContractV2Optimized.RaffleBasic","components":[{"name":"id","type":"uint256","internalType":"uint256"},{"name":"title","type":"string","internalType":"string"},{"name":"description","type":"string","internalType":"string"},{"name":"ticketPrice","type":"uint256","internalType":"uint256"},{"name":"maxParticipants","type":"uint256","internalType":"uint256"},{"name":"endTime","type":"uint256","internalType":"uint256"},{"name":"creator","type":"address","internalType":"address"},{"name":"raffleType","type":"uint8","internalType":"enum RaffleContractV2Optimized.RaffleType"},{"name":"isActive","type":"bool","internalType":"bool"},{"name":"isDrawn","type":"bool","internalType":"bool"},{"name":"isCancelled","type":"bool","internalType":"bool"},{"name":"createdAt","type":"uint256","internalType":"uint256"},{"name":"drawnAt","type":"uint256","internalType":"uint256"},{"name":"paymentToken","type":"uint8","internalType":"enum RaffleContractV2Optimized.PaymentToken"},{"name":"customTokenAddress","type":"address","internalType":"address"}]},{"name":"stats","type":"tuple","internalType":"struct RaffleContractV2Optimized.RaffleStats","components":[{"name":"totalParticipants","type":"uint256","internalType":"uint256"},{"name":"totalPool","type":"uint256","internalType":"uint256"},{"name":"platformFee","type":"uint256","internalType":"uint256"},{"name":"creatorFee","type":"uint256","internalType":"uint256"},{"name":"recurringInterval","type":"uint256","internalType":"uint256"},{"name":"maxRecurrences","type":"uint256","internalType":"uint256"},{"name":"currentRecurrence","type":"uint256","internalType":"uint256"}]},{"name":"prizes","type":"tuple[]","internalType":"struct RaffleContractV2Optimized.Prize[]","components":[{"name":"name","type":"string","internalType":"string"},{"name":"description","type":"string","internalType":"string"},{"name":"imageUrl","type":"string","internalType":"string"},{"name":"value","type":"uint256","internalType":"uint256"},{"name":"prizeType","type":"uint8","internalType":"enum RaffleContractV2Optimized.PrizeType"},{"name":"nftContract","type":"address","internalType":"address"},{"name":"nftTokenId","type":"uint256","internalType":"uint256"},{"name":"isClaimed","type":"bool","internalType":"bool"}]},{"name":"allowedAddresses","type":"string[]","internalType":"string[]"}],"stateMutability":"view"},{"type":"function","name":"getRaffleParticipants","inputs":[{"name":"_raffleId","type":"uint256","internalType":"uint256"}],"outputs":[{"name":"","type":"address[]","internalType":"address[]"}],"stateMutability":"view"},{"type":"function","name":"getRafflePrizes","inputs":[{"name":"_raffleId","type":"uint256","internalType":"uint256"}],"outputs":[{"name":"","type":"tuple[]","internalType":"struct RaffleContractV2Optimized.Prize[]","components":[{"name":"name","type":"string","internalType":"string"},{"name":"description","type":"string","internalType":"string"},{"name":"imageUrl","type":"string","internalType":"string"},{"name":"value","type":"uint256","internalType":"uint256"},{"name":"prizeType","type":"uint8","internalType":"enum RaffleContractV2Optimized.PrizeType"},{"name":"nftContract","type":"address","internalType":"address"},{"name":"nftTokenId","type":"uint256","internalType":"uint256"},{"name":"isClaimed","type":"bool","internalType":"bool"}]}],"stateMutability":"view"},{"type":"function","name":"getRaffleWinners","inputs":[{"name":"_raffleId","type":"uint256","internalType":"uint256"}],"outputs":[{"name":"","type":"address[]","internalType":"address[]"}],"stateMutability":"view"},{"type":"function","name":"getTotalRaffles","inputs":[],"outputs":[{"name":"","type":"uint256","internalType":"uint256"}],"stateMutability":"view"},{"type":"function","name":"getUserRaffles","inputs":[{"name":"_user","type":"address","internalType":"address"}],"outputs":[{"name":"","type":"uint256[]","internalType":"uint256[]"}],"stateMutability":"view"},{"type":"function","name":"getUserStats","inputs":[{"name":"_user","type":"address","internalType":"address"}],"outputs":[{"name":"","type":"tuple","internalType":"struct RaffleContractV2Optimized.UserStats","components":[{"name":"totalRafflesCreated","type":"uint256","internalType":"uint256"},{"name":"totalRafflesWon","type":"uint256","internalType":"uint256"},{"name":"totalRafflesParticipated","type":"uint256","internalType":"uint256"},{"name":"totalWinnings","type":"uint256","internalType":"uint256"},{"name":"reputation","type":"uint256","internalType":"uint256"},{"name":"isVerified","type":"bool","internalType":"bool"}]}],"stateMutability":"view"},{"type":"function","name":"hasParticipated","inputs":[{"name":"","type":"uint256","internalType":"uint256"},{"name":"","type":"address","internalType":"address"}],"outputs":[{"name":"","type":"bool","internalType":"bool"}],"stateMutability":"view"},{"type":"function","name":"joinRaffle","inputs":[{"name":"_raffleId","type":"uint256","internalType":"uint256"},{"name":"_referrer","type":"address","internalType":"address"}],"outputs":[],"stateMutability":"payable"},{"type":"function","name":"keyHash","inputs":[],"outputs":[{"name":"","type":"bytes32","internalType":"bytes32"}],"stateMutability":"view"},{"type":"function","name":"maxParticipantsPerRaffle","inputs":[],"outputs":[{"name":"","type":"uint256","internalType":"uint256"}],"stateMutability":"view"},{"type":"function","name":"maxPrizesPerRaffle","inputs":[],"outputs":[{"name":"","type":"uint256","internalType":"uint256"}],"stateMutability":"view"},{"type":"function","name":"maxTicketPrice","inputs":[],"outputs":[{"name":"","type":"uint256","internalType":"uint256"}],"stateMutability":"view"},{"type":"function","name":"minTicketPrice","inputs":[],"outputs":[{"name":"","type":"uint256","internalType":"uint256"}],"stateMutability":"view"},{"type":"function","name":"owner","inputs":[],"outputs":[{"name":"","type":"address","internalType":"address"}],"stateMutability":"view"},{"type":"function","name":"participants","inputs":[{"name":"","type":"uint256","internalType":"uint256"},{"name":"","type":"uint256","internalType":"uint256"}],"outputs":[{"name":"","type":"address","internalType":"address"}],"stateMutability":"view"},{"type":"function","name":"pause","inputs":[],"outputs":[],"stateMutability":"nonpayable"},{"type":"function","name":"paused","inputs":[],"outputs":[{"name":"","type":"bool","internalType":"bool"}],"stateMutability":"view"},{"type":"function","name":"platformFeePercentage","inputs":[],"outputs":[{"name":"","type":"uint256","internalType":"uint256"}],"stateMutability":"view"},{"type":"function","name":"raffleAllowedAddresses","inputs":[{"name":"","type":"uint256","internalType":"uint256"},{"name":"","type":"uint256","internalType":"uint256"}],"outputs":[{"name":"","type":"string","internalType":"string"}],"stateMutability":"view"},{"type":"function","name":"rafflePrizes","inputs":[{"name":"","type":"uint256","internalType":"uint256"},{"name":"","type":"uint256","internalType":"uint256"}],"outputs":[{"name":"name","type":"string","internalType":"string"},{"name":"description","type":"string","internalType":"string"},{"name":"imageUrl","type":"string","internalType":"string"},{"name":"value","type":"uint256","internalType":"uint256"},{"name":"prizeType","type":"uint8","internalType":"enum RaffleContractV2Optimized.PrizeType"},{"name":"nftContract","type":"address","internalType":"address"},{"name":"nftTokenId","type":"uint256","internalType":"uint256"},{"name":"isClaimed","type":"bool","internalType":"bool"}],"stateMutability":"view"},{"type":"function","name":"raffleStats","inputs":[{"name":"","type":"uint256","internalType":"uint256"}],"outputs":[{"name":"totalParticipants","type":"uint256","internalType":"uint256"},{"name":"totalPool","type":"uint256","internalType":"uint256"},{"name":"platformFee","type":"uint256","internalType":"uint256"},{"name":"creatorFee","type":"uint256","internalType":"uint256"},{"name":"recurringInterval","type":"uint256","internalType":"uint256"},{"name":"maxRecurrences","type":"uint256","internalType":"uint256"},{"name":"currentRecurrence","type":"uint256","internalType":"uint256"}],"stateMutability":"view"},{"type":"function","name":"raffles","inputs":[{"name":"","type":"uint256","internalType":"uint256"}],"outputs":[{"name":"id","type":"uint256","internalType":"uint256"},{"name":"title","type":"string","internalType":"string"},{"name":"description","type":"string","internalType":"string"},{"name":"ticketPrice","type":"uint256","internalType":"uint256"},{"name":"maxParticipants","type":"uint256","internalType":"uint256"},{"name":"endTime","type":"uint256","internalType":"uint256"},{"name":"creator","type":"address","internalType":"address"},{"name":"raffleType","type":"uint8","internalType":"enum RaffleContractV2Optimized.RaffleType"},{"name":"isActive","type":"bool","internalType":"bool"},{"name":"isDrawn","type":"bool","internalType":"bool"},{"name":"isCancelled","type":"bool","internalType":"bool"},{"name":"createdAt","type":"uint256","internalType":"uint256"},{"name":"drawnAt","type":"uint256","internalType":"uint256"},{"name":"paymentToken","type":"uint8","internalType":"enum RaffleContractV2Optimized.PaymentToken"},{"name":"customTokenAddress","type":"address","internalType":"address"}],"stateMutability":"view"},{"type":"function","name":"referralData","inputs":[{"name":"","type":"address","internalType":"address"}],"outputs":[{"name":"referrer","type":"address","internalType":"address"},{"name":"totalReferrals","type":"uint256","internalType":"uint256"},{"name":"totalEarnings","type":"uint256","internalType":"uint256"},{"name":"isActive","type":"bool","internalType":"bool"}],"stateMutability":"view"},{"type":"function","name":"referralFeePercentage","inputs":[],"outputs":[{"name":"","type":"uint256","internalType":"uint256"}],"stateMutability":"view"},{"type":"function","name":"renounceOwnership","inputs":[],"outputs":[],"stateMutability":"nonpayable"},{"type":"function","name":"setTokenAddress","inputs":[{"name":"_token","type":"uint8","internalType":"enum RaffleContractV2Optimized.PaymentToken"},{"name":"_tokenAddress","type":"address","internalType":"address"}],"outputs":[],"stateMutability":"nonpayable"},{"type":"function","name":"setVRFConfig","inputs":[{"name":"_vrfCoordinator","type":"address","internalType":"address"},{"name":"_keyHash","type":"bytes32","internalType":"bytes32"},{"name":"_fee","type":"uint256","internalType":"uint256"}],"outputs":[],"stateMutability":"nonpayable"},{"type":"function","name":"tokenAddresses","inputs":[{"name":"","type":"uint8","internalType":"enum RaffleContractV2Optimized.PaymentToken"}],"outputs":[{"name":"","type":"address","internalType":"address"}],"stateMutability":"view"},{"type":"function","name":"transferOwnership","inputs":[{"name":"newOwner","type":"address","internalType":"address"}],"outputs":[],"stateMutability":"nonpayable"},{"type":"function","name":"treasury","inputs":[],"outputs":[{"name":"","type":"address","internalType":"address"}],"stateMutability":"view"},{"type":"function","name":"unpause","inputs":[],"outputs":[],"stateMutability":"nonpayable"},{"type":"function","name":"updatePlatformConfig","inputs":[{"name":"_platformFee","type":"uint256","internalType":"uint256"},{"name":"_creatorFee","type":"uint256","internalType":"uint256"},{"name":"_referralFee","type":"uint256","internalType":"uint256"}],"outputs":[],"stateMutability":"nonpayable"},{"type":"function","name":"userRaffles","inputs":[{"name":"","type":"address","internalType":"address"},{"name":"","type":"uint256","internalType":"uint256"}],"outputs":[{"name":"","type":"uint256","internalType":"uint256"}],"stateMutability":"view"},{"type":"function","name":"userStats","inputs":[{"name":"","type":"address","internalType":"address"}],"outputs":[{"name":"totalRafflesCreated","type":"uint256","internalType":"uint256"},{"name":"totalRafflesWon","type":"uint256","internalType":"uint256"},{"name":"totalRafflesParticipated","type":"uint256","internalType":"uint256"},{"name":"totalWinnings","type":"uint256","internalType":"uint256"},{"name":"reputation","type":"uint256","internalType":"uint256"},{"name":"isVerified","type":"bool","internalType":"bool"}],"stateMutability":"view"},{"type":"function","name":"verifiedUsers","inputs":[{"name":"","type":"address","internalType":"address"}],"outputs":[{"name":"","type":"bool","internalType":"bool"}],"stateMutability":"view"},{"type":"function","name":"verifyUser","inputs":[{"name":"_user","type":"address","internalType":"address"},{"name":"_verified","type":"bool","internalType":"bool"}],"outputs":[],"stateMutability":"nonpayable"},{"type":"function","name":"vrfCoordinator","inputs":[],"outputs":[{"name":"","type":"address","internalType":"address"}],"stateMutability":"view"},{"type":"function","name":"winners","inputs":[{"name":"","type":"uint256","internalType":"uint256"},{"name":"","type":"uint256","internalType":"uint256"}],"outputs":[{"name":"","type":"address","internalType":"address"}],"stateMutability":"view"},{"type":"function","name":"withdrawFees","inputs":[{"name":"_raffleId","type":"uint256","internalType":"uint256"}],"outputs":[],"stateMutability":"nonpayable"},{"type":"event","name":"OwnershipTransferred","inputs":[{"name":"previousOwner","type":"address","indexed":true,"internalType":"address"},{"name":"newOwner","type":"address","indexed":true,"internalType":"address"}],"anonymous":false},{"type":"event","name":"ParticipantJoined","inputs":[{"name":"raffleId","type":"uint256","indexed":true,"internalType":"uint256"},{"name":"participant","type":"address","indexed":true,"internalType":"address"},{"name":"referrer","type":"address","indexed":true,"internalType":"address"},{"name":"participantCount","type":"uint256","indexed":false,"internalType":"uint256"}],"anonymous":false},{"type":"event","name":"Paused","inputs":[{"name":"account","type":"address","indexed":false,"internalType":"address"}],"anonymous":false},{"type":"event","name":"PlatformConfigUpdated","inputs":[{"name":"platformFee","type":"uint256","indexed":false,"internalType":"uint256"},{"name":"creatorFee","type":"uint256","indexed":false,"internalType":"uint256"},{"name":"referralFee","type":"uint256","indexed":false,"internalType":"uint256"}],"anonymous":false},{"type":"event","name":"PrizeClaimed","inputs":[{"name":"raffleId","type":"uint256","indexed":true,"internalType":"uint256"},{"name":"winner","type":"address","indexed":true,"internalType":"address"},{"name":"prizeIndex","type":"uint256","indexed":false,"internalType":"uint256"},{"name":"amount","type":"uint256","indexed":false,"internalType":"uint256"},{"name":"prizeType","type":"uint8","indexed":false,"internalType":"enum RaffleContractV2Optimized.PrizeType"}],"anonymous":false},{"type":"event","name":"RaffleCancelled","inputs":[{"name":"raffleId","type":"uint256","indexed":true,"internalType":"uint256"},{"name":"creator","type":"address","indexed":true,"internalType":"address"},{"name":"refundAmount","type":"uint256","indexed":false,"internalType":"uint256"}],"anonymous":false},{"type":"event","name":"RaffleCreated","inputs":[{"name":"raffleId","type":"uint256","indexed":true,"internalType":"uint256"},{"name":"creator","type":"address","indexed":true,"internalType":"address"},{"name":"title","type":"string","indexed":false,"internalType":"string"},{"name":"ticketPrice","type":"uint256","indexed":false,"internalType":"uint256"},{"name":"maxParticipants","type":"uint256","indexed":false,"internalType":"uint256"},{"name":"endTime","type":"uint256","indexed":false,"internalType":"uint256"},{"name":"paymentToken","type":"uint8","indexed":false,"internalType":"enum RaffleContractV2Optimized.PaymentToken"},{"name":"raffleType","type":"uint8","indexed":false,"internalType":"enum RaffleContractV2Optimized.RaffleType"}],"anonymous":false},{"type":"event","name":"RaffleDrawn","inputs":[{"name":"raffleId","type":"uint256","indexed":true,"internalType":"uint256"},{"name":"winners","type":"address[]","indexed":false,"internalType":"address[]"},{"name":"prizeCount","type":"uint256","indexed":false,"internalType":"uint256"},{"name":"timestamp","type":"uint256","indexed":false,"internalType":"uint256"}],"anonymous":false},{"type":"event","name":"ReferralRegistered","inputs":[{"name":"user","type":"address","indexed":true,"internalType":"address"},{"name":"referrer","type":"address","indexed":true,"internalType":"address"}],"anonymous":false},{"type":"event","name":"TokenAddressUpdated","inputs":[{"name":"token","type":"uint8","indexed":true,"internalType":"enum RaffleContractV2Optimized.PaymentToken"},{"name":"tokenAddress","type":"address","indexed":true,"internalType":"address"}],"anonymous":false},{"type":"event","name":"Unpaused","inputs":[{"name":"account","type":"address","indexed":false,"internalType":"address"}],"anonymous":false},{"type":"event","name":"UserVerified","inputs":[{"name":"user","type":"address","indexed":true,"internalType":"address"},{"name":"verified","type":"bool","indexed":false,"internalType":"bool"}],"anonymous":false},{"type":"error","name":"EnforcedPause","inputs":[]},{"type":"error","name":"ExpectedPause","inputs":[]},{"type":"error","name":"OwnableInvalidOwner","inputs":[{"name":"owner","type":"address","internalType":"address"}]},{"type":"error","name":"OwnableUnauthorizedAccount","inputs":[{"name":"account","type":"address","internalType":"address"}]},{"type":"error","name":"ReentrancyGuardReentrantCall","inputs":[]},{"type":"error","name":"SafeERC20FailedOperation","inputs":[{"name":"token","type":"address","internalType":"address"}]}],"bytecode":{"object":"0x6080346200014e57601f620044b338819003918201601f19168301916001600160401b0383118484101762000152578084926060946040528339810103126200014e576200004d8162000166565b906200006a6040620000626020840162000166565b920162000166565b60017f9b779b17422d0df92223018b32b4d1fa46e071723d6817e2486d003becc55f00556001600160a01b039081169182156200013657815f549460018060a01b03199480868816175f558260405197167f8be0079c531659141344cd1fd0a4f28419497f9722a3daafe3b4186f6b6457e05f80a360fa600e556064600f556032601055600a60135566038d7ea4c6800060145568056bc75e2d6310000060155561271060165516836011541617601155169060125416176012556001805561433790816200017c8239f35b604051631e4fbdf760e01b81525f6004820152602490fd5b5f80fd5b634e487b7160e01b5f52604160045260245ffd5b51906001600160a01b03821682036200014e5756fe608080604052600436101561001c575b50361561001a575f80fd5b005b5f905f3560e01c9081630ded5c36146137b0575080630efc88651461378157806316708df41461304757806323c626c314612fe3578063290060ac14612f2a5780632f89854a14612f0d5780633bb091c514612ef05780633f4ba83a14612e815780634690484014612e595780634823b02614612dcb5780634e43603a14612cf5578063584a7be114612cd85780635c975abb14612cb45780635d4bc0ce14612b995780635e318e0714612a305780635fba31711461279f57806361728f3914612782578063619b6b031461276557806361d027b31461273d57806366da7bf3146125ee578063715018a6146125975780637b154140146121365780637e7ed0321461209657806381fb1fb41461204b5780638456cb5914611fea578063885fe39f1461173a5780638a65d874146116c45780638da5cb5b1461169d57806398d71138146115ef578063a0798791146114d9578063a34398a21461148f578063a3e56fa814611466578063a4cfbe4d14611448578063a6e3295b146113aa578063b67fa08714611359578063be4f3e411461133b578063c7f9388a1461125a578063c9c6b556146111f5578063cdd78cfc146111d7578063cf0d743714611196578063d1d06b2e146108f9578063d48ede211461088d578063d51075c114610837578063ddca3f4314610819578063e35fe366146107da578063e4dafec9146102b85763f2fde38b0361000f57346102b55760203660031901126102b557610242613817565b61024a613d09565b6001600160a01b0390811690811561029c575f54826bffffffffffffffffffffffff60a01b8216175f55167f8be0079c531659141344cd1fd0a4f28419497f9722a3daafe3b4186f6b6457e05f80a380f35b604051631e4fbdf760e01b815260048101849052602490fd5b80fd5b50346102b55760203660031901126102b557806101c06040516102da8161389c565b82815260606020820152606060408201528260608201528260808201528260a08201528260c08201528260e08201528261010082015282610120820152826101408201528261016082015282610180820152826101a082015201528060c0604051610344816138b8565b8281528260208201528260408201528260608201528260808201528260a082015201526004351515806107cd575b61037b90613bc1565b60043581526002602052604081206009604051916103988361389c565b805483526103a8600182016138f4565b60208401526103b9600282016138f4565b60408401526003810154606084015260048101546080840152600581015460a084015260ff600682015460018060a01b03811660c08601526103ff828260a01c16613a20565b818160a01c1660e0860152818160a81c161515610100860152818160b01c16151561012086015260b81c161515610140840152600781015461016084015260088101546101808401520154600460ff821610156107b95760ff81166101a083015260081c6001600160a01b03166101c082015260043582526003602052604080832090519290600690610491856138b8565b8054855260018101546020860152600281015460408601526003810154606086015260048101546080860152600581015460a0860152015460c0840152600435815260046020526040812080546104e781613a98565b916104f560405193846138d3565b81835283526020808420849184015b838310610723575050505060043582526005602052604082209283549161052a83613a98565b9261053860405194856138d3565b80845260208401809686526020862086915b8383106107065760c08a8a8a8a6106a88b8b604051978897610140895283516101408a01526105a661058e60208601516101e06101608d01526103208c01906139b7565b60408601518b820361013f19016101808d01526139b7565b60608501516101a08b015260808501516101c08b015260a08501516101e08b0152828501516001600160a01b03166102008b015260e08501519094906105eb81613a20565b6102208b015261010081015115156102408b015261012081015115156102608b015261014081015115156102808b01526101608101516102a08b01526101808101516102c08b01526106476101a08201516102e08c0190613a2a565b6101c060018060a01b03910151166103008a0152805160208a0152602081015160408a0152604081015160608a0152606081015160808a0152608081015160a08a015260a0810151828a0152015160e0880152868203610100880152613aaf565b9084820361012086015251908181526020810160208360051b8301019493915b8383106106d55786860387f35b9193955091936020806106f4600193601f1986820301875289516139b7565b970193019301909286959492936106c8565b600160208192610715856138f4565b81520192019201919061054a565b6007602060019260405161073681613880565b61073f866138f4565b815261074c8587016138f4565b8382015261075c600287016138f4565b604082015260038601546060820152600486015460ff811661077d81613a20565b6080830152858060a01b039060081c1660a0820152600586015460c082015260ff600687015416151560e0820152815201920192019190610504565b634e487b7160e01b83526021600452602483fd5b5060015460043510610372565b50346102b55760203660031901126102b55760209060ff906040906001600160a01b03610805613817565b168152600d84522054166040519015158152f35b50346102b557806003193601126102b5576020601954604051908152f35b50346102b55760403660031901126102b557610851613817565b6001600160a01b03168152600660205260408120805460243592908310156102b557602061087f84846137ec565b90546040519160031b1c8152f35b50346102b55760203660031901126102b557604060e0916004358152600360205220805490600181015490600281015460038201546004830154916006600585015494015494604051968752602087015260408601526060850152608084015260a083015260c0820152f35b50346102b55760203660031901126102b557610913613c7f565b600435151580611189575b61092790613bc1565b600435815260026020526040812060036020526040822060068201549160ff8360a81c168061117b575b8061116d575b15611129576005015442106110e457546004358352600460205260408320541161109f576001600160a01b03163314801561108c575b1561104e57600435815260026020526040812060068101600160b01b61ffff60a81b19825416179055600842910155600360205260408120600360018201546109ef61271091826109e0600e5483613db2565b046002860155600f5490613db2565b04910155600435815260036020526040812054906004602052604081205481905f194301905b808310610f05578360043581526009602052604081209060046020526040812054916040516060810193606082528254809552608082019284526020842084955b808710610ee3575050907f78c45e3d506a9b166bc554d028c24fe8d9d16361d2606fa43015beaf1ab66b4491602082015242604082015280600435930390a260043581526002602052600260ff600660408420015460a01c16610ab881613a20565b1480610ec4575b610ad8575b60015f805160206142e28339815191525580f35b600435815260026020526040812060036020526040822090600154610afc81613c3d565b600155610b686003830154600484015490600486015490610b1d8242613c30565b60098701549160ff600689015460a01c169160058a015495610b4160018b016138f4565b600886901c6001600160a01b03169560ff169390610b6160028d016138f4565b908b614070565b600435845260046020526040842091845b8354811015610ca257828652600460205260408620610b988286613b84565b5090805490600160401b821015610c8e5790610bb991600182018155613b84565b610c7a579081816001949303610bd2575b505001610b79565b600660ff8184610be5610c73968661419c565b610bf388820189870161419c565b610c03600282016002870161419c565b60038101546003860155610c536004860160048301610c258682541683614166565b548154610100600160a81b031916600891821c60a08d901b8d90031690911b610100600160a81b0316179055565b6005810154600586015501541691019060ff801983541691151516179055565b8780610bca565b634e487b7160e01b88526004889052602488fd5b634e487b7160e01b89526041600452602489fd5b506004358552600560205260408520949250825b8554811015610d3557828452600560205260408420610cd582886137ec565b5090805490600160401b821015610d215790610cf6916001820181556137ec565b610d0d5760019291610d079161419c565b01610cb6565b634e487b7160e01b86526004869052602486fd5b634e487b7160e01b87526041600452602487fd5b5092909193506006810154600181018111610eb057600190838652600360205201600660408620015560018060a01b0360068401541684526006602052610d7f8260408620613c4b565b6006830154600384015491610d9c60048087015492015442613c30565b60ff600987015416916040519460c086528897600181015490610dbe8261382d565b918260c08a01526001811690815f14610e895750600114610e4b575b50506020860152604085015260608401527f2434696dd1e551abe6544c4a7b0e15871db3edb668cf702cf54b86b82e8494f292918291610e1e906080840190613a2a565b610e2d60ff8260a01c16613a20565b60a081811c60ff16908301526001600160a01b0316940390a3610ac4565b6001018a5260208a2091985089915b818310610e72575050850160e0019682610e1e610dda565b805460e0848a010152602090920191600101610e5a565b60ff191660e0808b019190915292151560051b89019092019950849150610e1e9050610dda565b634e487b7160e01b85526011600452602485fd5b5060043581526003602052604081206005600682015491015411610abf565b81546001600160a01b0316855260019687019660209095019490910190610a56565b43821161103a57610f548560405160208101904282524460408201528540606082015260043560808201528660a08201523360601b60c082015260b48152610f4c816138b8565b51902061417e565b60043585526008602052610f6b81604087206137ec565b905460039190911b1c6001600160a01b03165b610f8a8160043561427a565b80611023575b15610fdf5750600181018111610eb057856001610fad920161417e565b9160043585526008602052610fc583604087206137ec565b905491939160039190911b1c6001600160a01b0316610f7e565b60019294915060043586526009602052610ffc8160408820613cce565b828060a01b03168552600b60205281604086200161101a8154613c3d565b90550191610a15565b506004358652600960205286604087205410610f90565b634e487b7160e01b84526011600452602484fd5b60405162461bcd60e51b81526020600482015260166024820152754e6f7420617574686f72697a656420746f206472617760501b6044820152606490fd5b5080546001600160a01b0316331461098d565b60405162461bcd60e51b815260206004820152601760248201527f4e6f7420656e6f756768207061727469636970616e74730000000000000000006044820152606490fd5b60405162461bcd60e51b815260206004820152601860248201527f526166666c6520686173206e6f7420656e6465642079657400000000000000006044820152606490fd5b606460405162461bcd60e51b815260206004820152602060248201527f526166666c65206e6f7420617661696c61626c6520666f722064726177696e676044820152fd5b5060ff8360b81c1615610957565b5060ff8360b01c1615610951565b506001546004351061091e565b50346102b55760203660031901126102b55760043560048110156111d3576020906001600160a01b03906111c990613b9d565b5416604051908152f35b5080fd5b50346102b557806003193601126102b5576020600e54604051908152f35b50346102b55760203660031901126102b5576080906001600160a01b03906040908261121f613817565b168152600c60205220908154169060018101549060ff6003600283015492015416916040519384526020840152604083015215156060820152f35b50346102b557611269366137d6565b919081526004602052604081209081548310156102b5576112ea61128d8484613b84565b50611297816138f4565b906112a4600182016138f4565b6112b0600283016138f4565b9160038101549260048201549061130660ff8316916112f860ff6006600588015497015416966040519a8b9a610100808d528c01906139b7565b908a820360208c01526139b7565b9088820360408a01526139b7565b94606087015261131581613a20565b608086015260081c6001600160a01b031660a085015260c0840152151560e08301520390f35b50346102b557806003193601126102b5576020601654604051908152f35b50346102b55760603660031901126102b557611373613817565b61137b613d09565b60018060a01b03166bffffffffffffffffffffffff60a01b601754161760175560243560185560443560195580f35b50346102b5576020806003193601126111d3576004358015158061143d575b6113d290613bc1565b82526008602052604082209160405180926020855492838152019483526020832092905b82821061141d576114198561140d818903826138d3565b604051918291826139dc565b0390f35b83546001600160a01b0316865294850194600193840193909101906113f6565b5060015481106113c9565b50346102b557806003193601126102b5576020600f54604051908152f35b50346102b557806003193601126102b5576017546040516001600160a01b039091168152602090f35b50346102b55760403660031901126102b55760406114ab613801565b9160043581526007602052209060018060a01b03165f52602052602060ff60405f2054166040519015158152f35b50346102b5576020806003193601126111d357600435801515806115e4575b61150190613bc1565b8252600481526040822080549061151782613a98565b9361152560405195866138d3565b828552908152828120838086015b84841061154d57604051828152806114198185018a613aaf565b60019160079160405161155f81613880565b611568866138f4565b81526115758587016138f4565b83820152611585600287016138f4565b604082015260038601546060820152600486015460ff908181166115a881613a20565b6080840152868060a01b039060081c1660a0830152600587015460c0830152600687015416151560e08201528152019201920191908490611533565b5060015481106114f8565b50346102b5576020806003193601126111d3576001600160a01b03611612613817565b168252600681526040822060405192838383549182815201908193835284832090835b818110611689575050508461164b9103856138d3565b60405193838594850191818652518092526040850193925b82811061167257505050500390f35b835185528695509381019392810192600101611663565b825484529286019260019283019201611635565b50346102b557806003193601126102b557546040516001600160a01b039091168152602090f35b50346102b55760203660031901126102b55760c0906040906001600160a01b036116ec613817565b168152600b60205220805490600181015490600281015460038201549060ff6005600485015494015416936040519586526020860152604085015260608401526080830152151560a0820152f35b506101803660031901126102b5576004356001600160401b0381116111d357611767903690600401613a52565b6024356001600160401b038111611fe657611786903690600401613a52565b6001600160401b0360443511611fe657366023604435011215611fe65760443560040135906117b482613a98565b916117c260405193846138d3565b808352602083013660248360051b604435010111611e9557602460443501905b60248360051b60443501018210611ea157505050600460c4351015611e9957600360e4351015611e9957610104356001600160a01b0381169003611e9d576001600160401b036101243511611e995736602361012435011215611e995761184f6101243560040135613a98565b9261185d60405194856138d3565b6101243560040135845260208401366024610124356004013560051b61012435010111611e955760246101243501905b6024610124356004013560051b6101243501018210611e605750506118b0613cae565b338552600d60205260ff6040862054168015611e49575b15611e1057825166038d7ea4c68000606435101580611dfb575b15611dbf57806084351180611db1575b15611d6c578015159081611d60575b5015611d255760a43515611ce057805115611ca357600360c43514611c4d575b61192b60e435613a20565b600160e43514611bf0575b6001549161194383613c3d565b60015561197d61195560a43542613c30565b9161016435906101443590610104359060e435908660c4359160843590606435908b8d614070565b855b8451811015611aa25783875260046020526040872061199e8287614152565b5190805490600160401b821015611a8e57906119bf91600182018155613b84565b919091611a7a5760019291600660e0836119dd611a74955185613fa7565b6119ed6020820151888601613fa7565b6119fe604082015160028601613fa7565b60608101516003850155611a5360048501611a266080840151611a2081613a20565b82614166565b60a0838101518254610100600160a81b031916918b901b8b90031660081b610100600160a81b0316179055565b60c081015160058501550151151591019060ff801983541691151516179055565b0161197f565b634e487b7160e01b89526004899052602489fd5b634e487b7160e01b8a52604160045260248afd5b5082908686611ab260e435613a20565b600160e43514611b67575b507f2434696dd1e551abe6544c4a7b0e15871db3edb668cf702cf54b86b82e8494f26020946040859333815260068852611af985838320613c4b565b338152600b885220611b0b8154613c3d565b9055611b226040519160c0835260c08301906139b7565b936064358783015260843560408301526060820152611b466080820160c435613a2a565b611b5160e435613a20565b60e43560a08201528033940390a3604051908152f35b93929091825b8551811015611bc457828452600560205260408420611b8c8288614152565b5190805490600160401b821015610d215790611bad916001820181556137ec565b610d0d5760019291611bbe91613fa7565b01611b6d565b5092935091907f2434696dd1e551abe6544c4a7b0e15871db3edb668cf702cf54b86b82e8494f2611abd565b83516119365760405162461bcd60e51b815260206004820152602960248201527f5072697661746520726166666c6520726571756972657320616c6c6f7765642060448201526861646472657373657360b81b6064820152608490fd5b610104356001600160a01b03166119205760405162461bcd60e51b815260206004820152601d60248201527f437573746f6d20746f6b656e20616464726573732072657175697265640000006044820152606490fd5b60405162461bcd60e51b81526020600482015260156024820152745469746c652063616e6e6f7420626520656d70747960581b6044820152606490fd5b60405162461bcd60e51b815260206004820152601f60248201527f4475726174696f6e206d7573742062652067726561746572207468616e2030006044820152606490fd5b60405162461bcd60e51b8152602060048201526013602482015272125b9d985b1a59081c1c9a5e994818dbdd5b9d606a1b6044820152606490fd5b600a915011155f611900565b60405162461bcd60e51b815260206004820152601860248201527f496e76616c6964206d6178207061727469636970616e747300000000000000006044820152606490fd5b5061271060843511156118f1565b60405162461bcd60e51b8152602060048201526014602482015273496e76616c6964207469636b657420707269636560601b6044820152606490fd5b5068056bc75e2d6310000060643511156118e1565b60405162461bcd60e51b8152602060048201526011602482015270155cd95c881b9bdd081d995c9a599a5959607a1b6044820152606490fd5b50600b6020526064600460408720015410156118c7565b6001600160401b03823511611e915760208091611e863660248635610124350101613a52565b81520191019061188d565b8680fd5b8580fd5b8380fd5b5f80fd5b81356001600160401b038111611fe257610100604435820136036023190112611fe25760405190611ed182613880565b6001600160401b0360248260443501013511611fde57611efd3660246044358401818101350101613a52565b82526001600160401b03604482813501013511611fde57611f2b366044803584019081013501602401613a52565b60208301526001600160401b0360648260443501013511611fde57611f5d366044358301606481013501602401613a52565b604083015260443581016084810135606084015260a401356003811015611fda576080830152604435810160c401356001600160a01b0381168103611e9d5760a0830152604435810160e481013560c084015261010401358015159003611e9d5760443501610104013560e08201528152602091820191016117e2565b8980fd5b8880fd5b8780fd5b8280fd5b50346102b557806003193601126102b557612003613d09565b61200b613cae565b805460ff60a01b1916600160a01b1781556040513381527f62e78cea01bee320cd4e420270b5ea74000d11b0c9f74754ebdbfc544b05a25890602090a180f35b50346102b55761205a366137d6565b919081526008602052604081209081548310156102b557602061207d84846137ec565b905460405160039290921b1c6001600160a01b03168152f35b50346102b55760403660031901126102b5576120b0613817565b6024359081151590818303611e9d577f34736af44d2b91cd43fa896d4cfe0861ec1e6b4538583d385fc671639e9153b29161212c6020926120ef613d09565b6001600160a01b0316808752600d84526040808820805497151560ff1660ff199889168117909155600b8652908820600501805490971617909555565b604051908152a280f35b5034611e9d57612145366137d6565b9061214e613c7f565b8015158061258c575b61216090613bc1565b805f5260206002815260ff600660405f20015460b01c161561255057815f526004815260405f205483101561251657815f526009815260405f20548310156124de57815f52600981526121b68360405f206137ec565b60018060a01b03809254339260031b1c16036124aa57825f526004825260ff60066121e48660405f20613b84565b5001541661246d57825f526004825260066122028560405f20613b84565b5001805460ff191660011790556122198484613dc5565b90835f526002835260405f2090600484526122378660405f20613b84565b5091600483015460ff811661224b81613a20565b806123c757505060090154915060ff821660048110156123b3578391908061237f57505086808093508092335af1612281613c01565b5015612342575b338552600b8252600360408620016122a1828254613c30565b9055338552600b8252600460408620018054906032820180921161232e57558285526004825260ff60046122d88660408920613b84565b50015416916040519485528401526122ef81613a20565b60408301527f68a7b9d735e7325389313ada0b3f87b4d86144c741c0be2e4d34e241a707faa960603393a360015f805160206142e28339815191525580f35b634e487b7160e01b87526011600452602487fd5b60405162461bcd60e51b8152600481018390526015602482015274141c9a5e99481d1c985b9cd9995c8819985a5b1959605a1b6044820152606490fd5b61239c938291600381036123a1575060081c16905b339116613d34565b612288565b6123ab9150613b9d565b541690612394565b634e487b7160e01b88526021600452602488fd5b6001919392506123d681613a20565b146123e4575b505050612288565b60059160081c16910154813b15611e9d575f91606483926040519485938492632142170760e11b845230600485015233602485015260448401525af1801561246257612432575b80806123dc565b9094506001600160401b03811161244e576040525f935f61242b565b634e487b7160e01b5f52604160045260245ffd5b6040513d5f823e3d90fd5b60405162461bcd60e51b8152600481018390526015602482015274141c9a5e9948185b1c9958591e4818db185a5b5959605a1b6044820152606490fd5b60405162461bcd60e51b815260048101839052600c60248201526b2737ba1030903bb4b73732b960a11b6044820152606490fd5b6064906040519062461bcd60e51b825260048201526011602482015270141c9a5e99481b9bdd08185dd85c991959607a1b6044820152fd5b6064906040519062461bcd60e51b825260048201526013602482015272092dcecc2d8d2c840e0e4d2f4ca40d2dcc8caf606b1b6044820152fd5b6064906040519062461bcd60e51b82526004820152601560248201527415da5b9b995c9cc81b9bdd08191c985ddb881e595d605a1b6044820152fd5b506001548110612157565b34611e9d575f366003190112611e9d576125af613d09565b5f80546001600160a01b0319811682556001600160a01b03167f8be0079c531659141344cd1fd0a4f28419497f9722a3daafe3b4186f6b6457e08280a3005b34611e9d576060366003190112611e9d57604435602435600435612610613d09565b6103e881116126f8576101f482116126b35760c8831161266e577f7ceb229301232679d1796688c2c31cbc0cee80f0bfd3170407ab31d0145d7fb19260609282600e5580600f558160105560405192835260208301526040820152a1005b60405162461bcd60e51b815260206004820152601d60248201527f526566657272616c206665652063616e6e6f74206578636565642032250000006044820152606490fd5b60405162461bcd60e51b815260206004820152601c60248201527f43726561746f72206665652063616e6e6f7420657863656564203525000000006044820152606490fd5b60405162461bcd60e51b815260206004820152601e60248201527f506c6174666f726d206665652063616e6e6f74206578636565642031302500006044820152606490fd5b34611e9d575f366003190112611e9d576012546040516001600160a01b039091168152602090f35b34611e9d575f366003190112611e9d576020601454604051908152f35b34611e9d575f366003190112611e9d576020601854604051908152f35b34611e9d57602080600319360112611e9d576004356127bc613c7f565b80151580612a25575b6127ce90613bc1565b805f5260028252600660405f2001549160ff9260ff8160a81c1680612a17575b156129d2576001600160a01b03908116331480156129c6575b15612981575f838152600283526040812060068101805462ff00ff60a81b1916600160b81b179055600380820154936009909201925b865f5281865260405f2054811015612926576008808752836128628360405f206137ec565b905490851b1c1685548a81169060048210156129125788938792806128da57505050505f80809381935af1612895613c01565b50156128a5576001905b0161283d565b60405162461bcd60e51b815260048101879052600d60248201526c1499599d5b990819985a5b1959609a1b6044820152606490fd5b926128fa9492819260019897958a81145f146128ff57501c165b16613d34565b61289f565b905061290b9150613b9d565b54166128f4565b634e487b7160e01b5f52602160045260245ffd5b85877f0871ac1366305b60203984de1a540b8d88dbfba481bb2083cfe20b642ae47f6585825f5260028452600660405f200154169260038152600160405f200154604051908152a360015f805160206142e283398151915255005b60405162461bcd60e51b815260048101839052601860248201527f4e6f7420617574686f72697a656420746f2063616e63656c00000000000000006044820152606490fd5b50805f54163314612807565b60405162461bcd60e51b815260048101839052601a60248201527f526166666c652063616e6e6f742062652063616e63656c6c65640000000000006044820152606490fd5b5060ff8160b01c16156127ee565b5060015481106127c5565b34611e9d576020366003190112611e9d57600435612a4c613d09565b80151580612b8e575b612a5e90613bc1565b5f52600260205260405f20600360205260405f209060ff600682015460b01c1615612b5257600901549060ff82169160048310156129125782612b0457506011546002909101545f92508291829182916001600160a01b03165af1612ac1613c01565b5015612ac957005b60405162461bcd60e51b8152602060048201526013602482015272119959481d1c985b9cd9995c8819985a5b1959606a1b6044820152606490fd5b61001a9260038103612b37575060081c6001600160a01b0316905b60018060a01b03600281601154169201549216613d34565b6001600160a01b039150612b4a90613b9d565b541690612b1f565b60405162461bcd60e51b8152602060048201526014602482015273149859999b19481b9bdd0818dbdb5c1b195d195960621b6044820152606490fd5b506001548110612a55565b34611e9d576020366003190112611e9d576004355f52600260205260405f208054612bc6600183016138f4565b91612bd3600282016138f4565b9060038101549160048201549160058101549260ff600683015460018060a01b0395828260a01c1690600786015494612c3b6009600889015498015498612c2d6040519e8f9e8f6101e091815281602082015201906139b7565b8d810360408f0152906139b7565b9960608c015260808b015260a08a015286821660c08a0152612c5c81613a20565b60e0890152818160a81c161515610100890152818160b01c16151561012089015260b81c161515610140870152610160860152610180850152612ca66101a0850160ff8316613a2a565b60081c166101c08301520390f35b34611e9d575f366003190112611e9d57602060ff5f5460a01c166040519015158152f35b34611e9d575f366003190112611e9d576020601054604051908152f35b34611e9d576020366003190112611e9d57612d0e613817565b5f60a0604051612d1d81613865565b828152826020820152826040820152826060820152826080820152015260018060a01b03165f52600b60205260c060405f20604051612d5b81613865565b8154918282526001810154602083019081526002820154604084019081526003830154916060850192835260a060ff6005600487015496608089019788520154169501941515855260405195865251602086015251604085015251606084015251608083015251151560a0820152f35b34611e9d57602080600319360112611e9d5760043580151580612e4e575b612df290613bc1565b5f52600960205260405f20906040519081602084549182815201935f5260205f20915f905b828210612e2e576114198561140d818903826138d3565b83546001600160a01b031686529485019460019384019390910190612e17565b506001548110612de9565b34611e9d575f366003190112611e9d576011546040516001600160a01b039091168152602090f35b34611e9d575f366003190112611e9d57612e99613d09565b5f5460ff8160a01c1615612ede5760ff60a01b19165f556040513381527f5db9ee0a495bf2e6ff9c91a7834c1ba4fdd244a5e8aa4e537bd38aeae4b073aa90602090a1005b604051638dfc202b60e01b8152600490fd5b34611e9d575f366003190112611e9d576020601554604051908152f35b34611e9d575f366003190112611e9d576020601354604051908152f35b34611e9d576040366003190112611e9d576004356004811015611e9d57612f4f613801565b612f57613d09565b6001600160a01b0316908115612fa657612f7081613b9d565b80546001600160a01b031916831790557f94ef69703cba20a59301db32d4340e0e7770a4b3f3e4985582152e3caa75789c5f80a3005b60405162461bcd60e51b8152602060048201526015602482015274496e76616c696420746f6b656e206164647265737360581b6044820152606490fd5b34611e9d57612ff1366137d6565b905f52600560205260405f20908154811015611e9d57613010916137ec565b61303457613020611419916138f4565b6040519182916020835260208301906139b7565b634e487b7160e01b5f525f60045260245ffd5b6040366003190112611e9d5760043561305e613801565b90613067613c7f565b61306f613cae565b80151580613776575b61308190613bc1565b805f52600260205260405f2091600360205260405f209260068101549060ff94858360a81c1680613769575b8061375c575b156137205760058201544210156136e857845f52600760205260405f20335f526020528560405f2054166136ab57600490549101541115613675578360019160a01c166130ff81613a20565b146133e4575b815f52600260205260405f20600981015484811690600482101561291257816132df5750506003015434036132a2575b815f52600860205261314a3360405f20613cce565b815f52600760205260405f20335f5260205260405f20600160ff19825416179055815f52600360205260405f206131818154613c3d565b8155825f5260026020526131a26001600360405f2001549201918254613c30565b9055335f52600b602052600260405f20016131bd8154613c3d565b90556001600160a01b0316918215159081613297575b8161327e575b5061322c575b805f52600360205260405f2054906040519182527f9b1bd42584404960fddeb5ce25d3300c3d7452d982d1726da3a14982a6641eab60203393a460015f805160206142e283398151915255005b815f52600c602052600160405f20016132458154613c3d565b9055815f52600b602052600460405f2001805490600a820180921161326a57556131df565b634e487b7160e01b5f52601160045260245ffd5b9050825f52600c602052600360405f20015416836131d9565b3384141591506131d3565b60405162461bcd60e51b8152602060048201526015602482015274496e636f727265637420656e74727920707269636560581b6044820152606490fd5b346133a057600391808303613386575060081c6001600160a01b03165b9101546040516323b872dd60e01b5f9081523360045230602452604492909252916001600160a01b03169060209060648180855af160015f5114811615613367575b826040525f60605215613352575050613135565b635274afe760e01b8252600482015260249150fd5b600181151661337d57813b15153d15161661333e565b823d5f823e3d90fd5b6001600160a01b03915061339990613b9d565b54166132fc565b606460405162461bcd60e51b815260206004820152602060248201527f455448206e6f7420616363657074656420666f72207468697320726166666c656044820152fd5b815f52600560205260405f206040519060408201916001600160401b03928181108482111761244e57604052601081526f181899199a1a9b1b9c1cb0b131b232b360811b60208201526040519260608401908482109082111761244e57604052602a83526040366020850137825115613661576030602084015382516001101561366157607860218401535f5b601481106135cf5750505f915f918054925b8381106134d8575b505050506131055760405162461bcd60e51b815260206004820152601d60248201527f4e6f7420616c6c6f77656420696e207072697661746520726166666c650000006044820152606490fd5b6134e281836137ec565b5060405190815f8254926134f58461382d565b93600181169081156135ae575060011461356f575b5061351e925003601f1981018352826138d3565b60208151910120604051602081019061354f60208288516135428187858d01613996565b81010380845201826138d3565b5190201461355f57600101613483565b505050505060018480808061348b565b9150505f528160205f205f905b838210613594575050602061351e928201018c61350a565b60209192508060019154838588010152019101839161357c565b90506020925061351e94915060ff191682840152801515028201018c61350a565b600c810180821161326a5760208110156136615733901a906001600160f81b0319600f81613603600486901c8316876142d0565b5116908360011b948486046002148515171561326a57856002018060021161326a5761363561363d945f1a918b6142d0565b5316856142d0565b5116916003018060031161326a5761365a6001935f1a91876142d0565b5301613471565b634e487b7160e01b5f52603260045260245ffd5b60405162461bcd60e51b815260206004820152600e60248201526d149859999b19481a5cc8199d5b1b60921b6044820152606490fd5b60405162461bcd60e51b8152602060048201526015602482015274416c72656164792070617274696369706174696e6760581b6044820152606490fd5b60405162461bcd60e51b815260206004820152601060248201526f149859999b19481a185cc8195b99195960821b6044820152606490fd5b60405162461bcd60e51b8152602060048201526014602482015273526166666c65206e6f7420617661696c61626c6560601b6044820152606490fd5b50858360b81c16156130b3565b50858360b01c16156130ad565b506001548110613078565b34611e9d5761378f366137d6565b905f52600960205260405f208054821015611e9d5760209161207d916137ec565b34611e9d575f366003190112611e9d576001545f1981019190821161326a576020918152f35b6040906003190112611e9d576004359060243590565b8054821015613661575f5260205f2001905f90565b602435906001600160a01b0382168203611e9d57565b600435906001600160a01b0382168203611e9d57565b90600182811c9216801561385b575b602083101461384757565b634e487b7160e01b5f52602260045260245ffd5b91607f169161383c565b60c081019081106001600160401b0382111761244e57604052565b61010081019081106001600160401b0382111761244e57604052565b6101e081019081106001600160401b0382111761244e57604052565b60e081019081106001600160401b0382111761244e57604052565b90601f801991011681019081106001600160401b0382111761244e57604052565b9060405191825f82546139068161382d565b908184526020946001916001811690815f146139745750600114613936575b505050613934925003836138d3565b565b5f90815285812095935091905b81831061395c57505061393493508201015f8080613925565b85548884018501529485019487945091830191613943565b9250505061393494925060ff191682840152151560051b8201015f8080613925565b5f5b8381106139a75750505f910152565b8181015183820152602001613998565b906020916139d081518092818552858086019101613996565b601f01601f1916010190565b60209060206040818301928281528551809452019301915f5b828110613a03575050505090565b83516001600160a01b0316855293810193928101926001016139f5565b6003111561291257565b9060048210156129125752565b6001600160401b03811161244e57601f01601f191660200190565b81601f82011215611e9d57803590613a6982613a37565b92613a7760405194856138d3565b82845260208383010111611e9d57815f926020809301838601378301015290565b6001600160401b03811161244e5760051b60200190565b908082519081815260208091019281808460051b8301019501935f915b848310613adc5750505050505090565b9091929394958480600192601f19858203018652895190613b30613b1d613b0d6101008551908086528501906139b7565b85850151848203878601526139b7565b60408085015190848303908501526139b7565b916060808201519083015260808082015190613b4b82613a20565b83015260a0868060a01b0381830151169083015260c0808201519083015260e08091015115159101529801930193019194939290613acc565b8054821015613661575f52600760205f20910201905f90565b6004811015612912575f52600a60205260405f2090565b9190820391821161326a57565b15613bc857565b60405162461bcd60e51b8152602060048201526011602482015270125b9d985b1a59081c9859999b19481251607a1b6044820152606490fd5b3d15613c2b573d90613c1282613a37565b91613c2060405193846138d3565b82523d5f602084013e565b606090565b9190820180921161326a57565b5f19811461326a5760010190565b8054600160401b81101561244e57613c68916001820181556137ec565b819291549060031b91821b915f19901b1916179055565b5f805160206142e28339815191526002815414613c9c5760029055565b604051633ee5aeb560e01b8152600490fd5b60ff5f5460a01c16613cbc57565b60405163d93c066560e01b8152600490fd5b8054600160401b81101561244e57613ceb916001820181556137ec565b60018060a09493941b038084549260031b9316831b921b1916179055565b5f546001600160a01b03163303613d1c57565b60405163118cdaa760e01b8152336004820152602490fd5b60405163a9059cbb60e01b5f9081526001600160a01b039384166004526024949094529260209060448180855af160015f5114811615613d93575b8360405215613d7d57505050565b635274afe760e01b835216600482015260249150fd5b6001811516613da957813b15153d151616613d6f565b833d5f823e3d90fd5b8181029291811591840414171561326a57565b90815f526003602052613df360405f206003613dea6001830154600284015490613bb4565b91015490613bb4565b915f526004908160205260405f2054600181145f14613e125750505090565b60028103613e685750613e4d57604682029180830460461490151715613e3a57506064900490565b601190634e487b7160e01b5f525260245ffd5b601e820291808304601e1490151715613e3a57506064900490565b60038103613ed057508015613eb457600114613e9957600f820291808304600f1490151715613e3a57506064900490565b601982029180830460191490151715613e3a57506064900490565b50603c820291808304603c1490151715613e3a57506064900490565b91908215613f45576003811015613f3257600581029080820460051490151715613f1f576014039060148211613e3a575091613f15613f1b92606494905b8504613c30565b90613db2565b0490565b601182634e487b7160e01b5f525260245ffd5b5050606491613f15613f1b925f90613f0e565b601282634e487b7160e01b5f525260245ffd5b601f8211613f6557505050565b5f5260205f20906020601f840160051c83019310613f9d575b601f0160051c01905b818110613f92575050565b5f8155600101613f87565b9091508190613f7e565b91909182516001600160401b03811161244e57613fce81613fc8845461382d565b84613f58565b602080601f831160011461400f575081906140009394955f92614004575b50508160011b915f199060031b1c19161790565b9055565b015190505f80613fec565b90601f19831695845f5260205f20925f905b88821061405857505083600195969710614040575b505050811b019055565b01515f1960f88460031b161c191690555f8080614036565b80600185968294968601518155019501930190614021565b9598979996926140a560099693959295885f52600260205261409c60405f20978a895560018901613fa7565b60028701613fa7565b60038501556004840155600583015560068201908154906140c581613a20565b6001600160b01b03199091163361ffff60a01b19161760a09190911b60ff60a01b1617600160a81b1761ffff60b01b19169055426007820155019360048110156129125784546001600160a81b03191660ff9091161760089590951b610100600160a81b0316949094179092555f9260069290845260036020526040842091600483015560058201550155565b80518210156136615760209160051b010190565b9061417081613a20565b60ff80198354169116179055565b8115614188570690565b634e487b7160e01b5f52601260045260245ffd5b90808214614276576141ae815461382d565b906001600160401b03821161244e576141d1826141cb855461382d565b85613f58565b5f90601f83116001146142095761400092915f91836141fe5750508160011b915f199060031b1c19161790565b015490505f80613fec565b90601f198316915f5260209160205f2090855f5260205f20935f905b82821061425d57505090846001959493921061424557505050811b019055565b01545f1960f88460031b161c191690555f8080614036565b8495819295850154815560018091019601940190614225565b5050565b905f5b825f52600960205260405f2080548210156142c8578161429c916137ec565b905460039190911b1c6001600160a01b03908116908316146142c05760010161427d565b505050600190565b505050505f90565b90815181101561366157016020019056fe9b779b17422d0df92223018b32b4d1fa46e071723d6817e2486d003becc55f00a264697066735822122045f0c536364798e1886591da58fe72c7ca4dbb79e3f49b11586ce6fa77c0531264736f6c63430008180033","linkReferences":{}},"methodIdentifiers":{"cancelRaffle(uint256)":"5fba3171","claimPrize(uint256,uint256)":"7b154140","createRaffle(string,string,(string,string,string,uint256,uint8,address,uint256,bool)[],uint256,uint256,uint256,uint8,uint8,address,string[],uint256,uint256)":"885fe39f","creatorFeePercentage()":"a4cfbe4d","drawWinners(uint256)":"d1d06b2e","fee()":"ddca3f43","feeRecipient()":"46904840","getRaffle(uint256)":"e4dafec9","getRaffleParticipants(uint256)":"a6e3295b","getRafflePrizes(uint256)":"a0798791","getRaffleWinners(uint256)":"4823b026","getTotalRaffles()":"0ded5c36","getUserRaffles(address)":"98d71138","getUserStats(address)":"4e43603a","hasParticipated(uint256,address)":"a34398a2","joinRaffle(uint256,address)":"16708df4","keyHash()":"61728f39","maxParticipantsPerRaffle()":"be4f3e41","maxPrizesPerRaffle()":"2f89854a","maxTicketPrice()":"3bb091c5","minTicketPrice()":"619b6b03","owner()":"8da5cb5b","participants(uint256,uint256)":"81fb1fb4","pause()":"8456cb59","paused()":"5c975abb","platformFeePercentage()":"cdd78cfc","raffleAllowedAddresses(uint256,uint256)":"23c626c3","rafflePrizes(uint256,uint256)":"c7f9388a","raffleStats(uint256)":"d48ede21","raffles(uint256)":"5d4bc0ce","referralData(address)":"c9c6b556","referralFeePercentage()":"584a7be1","renounceOwnership()":"715018a6","setTokenAddress(uint8,address)":"290060ac","setVRFConfig(address,bytes32,uint256)":"b67fa087","tokenAddresses(uint8)":"cf0d7437","transferOwnership(address)":"f2fde38b","treasury()":"61d027b3","unpause()":"3f4ba83a","updatePlatformConfig(uint256,uint256,uint256)":"66da7bf3","userRaffles(address,uint256)":"d51075c1","userStats(address)":"8a65d874","verifiedUsers(address)":"e35fe366","verifyUser(address,bool)":"7e7ed032","vrfCoordinator()":"a3e56fa8","winners(uint256,uint256)":"0efc8865","withdrawFees(uint256)":"5e318e07"},"id":2}