{"abi":[{"type":"constructor","inputs":[{"name":"configFilePath","type":"string","internalType":"string"},{"name":"writeToFile","type":"bool","internalType":"bool"}],"stateMutability":"nonpayable"},{"type":"function","name":"get","inputs":[{"name":"key","type":"string","internalType":"string"}],"outputs":[{"name":"","type":"tuple","internalType":"struct Variable","components":[{"name":"ty","type":"tuple","internalType":"struct Type","components":[{"name":"kind","type":"uint8","internalType":"enum TypeKind"},{"name":"isArray","type":"bool","internalType":"bool"}]},{"name":"data","type":"bytes","internalType":"bytes"}]}],"stateMutability":"view"},{"type":"function","name":"get","inputs":[{"name":"chain_id","type":"uint256","internalType":"uint256"},{"name":"key","type":"string","internalType":"string"}],"outputs":[{"name":"","type":"tuple","internalType":"struct Variable","components":[{"name":"ty","type":"tuple","internalType":"struct Type","components":[{"name":"kind","type":"uint8","internalType":"enum TypeKind"},{"name":"isArray","type":"bool","internalType":"bool"}]},{"name":"data","type":"bytes","internalType":"bytes"}]}],"stateMutability":"view"},{"type":"function","name":"getChainIds","inputs":[],"outputs":[{"name":"","type":"uint256[]","internalType":"uint256[]"}],"stateMutability":"view"},{"type":"function","name":"getRpcUrl","inputs":[],"outputs":[{"name":"","type":"string","internalType":"string"}],"stateMutability":"view"},{"type":"function","name":"getRpcUrl","inputs":[{"name":"chainId","type":"uint256","internalType":"uint256"}],"outputs":[{"name":"","type":"string","internalType":"string"}],"stateMutability":"view"},{"type":"function","name":"resolveChainId","inputs":[{"name":"aliasOrId","type":"string","internalType":"string"}],"outputs":[{"name":"","type":"uint256","internalType":"uint256"}],"stateMutability":"view"},{"type":"function","name":"set","inputs":[{"name":"chainId","type":"uint256","internalType":"uint256"},{"name":"key","type":"string","internalType":"string"},{"name":"value","type":"int256","internalType":"int256"}],"outputs":[],"stateMutability":"nonpayable"},{"type":"function","name":"set","inputs":[{"name":"chainId","type":"uint256","internalType":"uint256"},{"name":"key","type":"string","internalType":"string"},{"name":"value","type":"bytes32[]","internalType":"bytes32[]"}],"outputs":[],"stateMutability":"nonpayable"},{"type":"function","name":"set","inputs":[{"name":"chainId","type":"uint256","internalType":"uint256"},{"name":"key","type":"string","internalType":"string"},{"name":"value","type":"uint256","internalType":"uint256"}],"outputs":[],"stateMutability":"nonpayable"},{"type":"function","name":"set","inputs":[{"name":"key","type":"string","internalType":"string"},{"name":"value","type":"bytes","internalType":"bytes"}],"outputs":[],"stateMutability":"nonpayable"},{"type":"function","name":"set","inputs":[{"name":"key","type":"string","internalType":"string"},{"name":"value","type":"bytes32","internalType":"bytes32"}],"outputs":[],"stateMutability":"nonpayable"},{"type":"function","name":"set","inputs":[{"name":"key","type":"string","internalType":"string"},{"name":"value","type":"int256","internalType":"int256"}],"outputs":[],"stateMutability":"nonpayable"},{"type":"function","name":"set","inputs":[{"name":"chainId","type":"uint256","internalType":"uint256"},{"name":"key","type":"string","internalType":"string"},{"name":"value","type":"bytes","internalType":"bytes"}],"outputs":[],"stateMutability":"nonpayable"},{"type":"function","name":"set","inputs":[{"name":"key","type":"string","internalType":"string"},{"name":"value","type":"string[]","internalType":"string[]"}],"outputs":[],"stateMutability":"nonpayable"},{"type":"function","name":"set","inputs":[{"name":"chainId","type":"uint256","internalType":"uint256"},{"name":"key","type":"string","internalType":"string"},{"name":"value","type":"address","internalType":"address"}],"outputs":[],"stateMutability":"nonpayable"},{"type":"function","name":"set","inputs":[{"name":"chainId","type":"uint256","internalType":"uint256"},{"name":"key","type":"string","internalType":"string"},{"name":"value","type":"address[]","internalType":"address[]"}],"outputs":[],"stateMutability":"nonpayable"},{"type":"function","name":"set","inputs":[{"name":"chainId","type":"uint256","internalType":"uint256"},{"name":"key","type":"string","internalType":"string"},{"name":"value","type":"string","internalType":"string"}],"outputs":[],"stateMutability":"nonpayable"},{"type":"function","name":"set","inputs":[{"name":"key","type":"string","internalType":"string"},{"name":"value","type":"uint256[]","internalType":"uint256[]"}],"outputs":[],"stateMutability":"nonpayable"},{"type":"function","name":"set","inputs":[{"name":"key","type":"string","internalType":"string"},{"name":"value","type":"address[]","internalType":"address[]"}],"outputs":[],"stateMutability":"nonpayable"},{"type":"function","name":"set","inputs":[{"name":"key","type":"string","internalType":"string"},{"name":"value","type":"uint256","internalType":"uint256"}],"outputs":[],"stateMutability":"nonpayable"},{"type":"function","name":"set","inputs":[{"name":"chainId","type":"uint256","internalType":"uint256"},{"name":"key","type":"string","internalType":"string"},{"name":"value","type":"int256[]","internalType":"int256[]"}],"outputs":[],"stateMutability":"nonpayable"},{"type":"function","name":"set","inputs":[{"name":"chainId","type":"uint256","internalType":"uint256"},{"name":"key","type":"string","internalType":"string"},{"name":"value","type":"bytes[]","internalType":"bytes[]"}],"outputs":[],"stateMutability":"nonpayable"},{"type":"function","name":"set","inputs":[{"name":"key","type":"string","internalType":"string"},{"name":"value","type":"address","internalType":"address"}],"outputs":[],"stateMutability":"nonpayable"},{"type":"function","name":"set","inputs":[{"name":"chainId","type":"uint256","internalType":"uint256"},{"name":"key","type":"string","internalType":"string"},{"name":"value","type":"bool","internalType":"bool"}],"outputs":[],"stateMutability":"nonpayable"},{"type":"function","name":"set","inputs":[{"name":"key","type":"string","internalType":"string"},{"name":"value","type":"bool","internalType":"bool"}],"outputs":[],"stateMutability":"nonpayable"},{"type":"function","name":"set","inputs":[{"name":"key","type":"string","internalType":"string"},{"name":"value","type":"bytes[]","internalType":"bytes[]"}],"outputs":[],"stateMutability":"nonpayable"},{"type":"function","name":"set","inputs":[{"name":"chainId","type":"uint256","internalType":"uint256"},{"name":"key","type":"string","internalType":"string"},{"name":"value","type":"bytes32","internalType":"bytes32"}],"outputs":[],"stateMutability":"nonpayable"},{"type":"function","name":"set","inputs":[{"name":"chainId","type":"uint256","internalType":"uint256"},{"name":"key","type":"string","internalType":"string"},{"name":"value","type":"string[]","internalType":"string[]"}],"outputs":[],"stateMutability":"nonpayable"},{"type":"function","name":"set","inputs":[{"name":"chainId","type":"uint256","internalType":"uint256"},{"name":"key","type":"string","internalType":"string"},{"name":"value","type":"uint256[]","internalType":"uint256[]"}],"outputs":[],"stateMutability":"nonpayable"},{"type":"function","name":"set","inputs":[{"name":"key","type":"string","internalType":"string"},{"name":"value","type":"int256[]","internalType":"int256[]"}],"outputs":[],"stateMutability":"nonpayable"},{"type":"function","name":"set","inputs":[{"name":"chainId","type":"uint256","internalType":"uint256"},{"name":"key","type":"string","internalType":"string"},{"name":"value","type":"bool[]","internalType":"bool[]"}],"outputs":[],"stateMutability":"nonpayable"},{"type":"function","name":"set","inputs":[{"name":"key","type":"string","internalType":"string"},{"name":"value","type":"bytes32[]","internalType":"bytes32[]"}],"outputs":[],"stateMutability":"nonpayable"},{"type":"function","name":"set","inputs":[{"name":"key","type":"string","internalType":"string"},{"name":"value","type":"string","internalType":"string"}],"outputs":[],"stateMutability":"nonpayable"},{"type":"function","name":"set","inputs":[{"name":"key","type":"string","internalType":"string"},{"name":"value","type":"bool[]","internalType":"bool[]"}],"outputs":[],"stateMutability":"nonpayable"},{"type":"function","name":"writeUpdatesBackToFile","inputs":[{"name":"enabled","type":"bool","internalType":"bool"}],"outputs":[],"stateMutability":"nonpayable"},{"type":"error","name":"AlreadyInitialized","inputs":[{"name":"key","type":"string","internalType":"string"}]},{"type":"error","name":"ChainNotInitialized","inputs":[{"name":"chainId","type":"uint256","internalType":"uint256"}]},{"type":"error","name":"InvalidChainKey","inputs":[{"name":"aliasOrId","type":"string","internalType":"string"}]},{"type":"error","name":"TypeMismatch","inputs":[{"name":"expected","type":"string","internalType":"string"},{"name":"actual","type":"string","internalType":"string"}]},{"type":"error","name":"UnableToParseVariable","inputs":[{"name":"key","type":"string","internalType":"string"}]},{"type":"error","name":"WriteToFileInForbiddenCtxt","inputs":[]}],"bytecode":{"object":"0x608080604052346200096a57620072cd80380380916200002082856200298e565b833981016040828203126200096a578151906001600160401b0382116200096a57620000556020916200005d938501620029d5565b920162002a30565b8080620028ed575b620028db5781516001600160401b0381116200088357620000875f5462002a3e565b601f811162002886575b506020601f82116001146200280d5791620000c982620000ff95935f95869162002801575b508160011b915f199060031b1c19161790565b83555b60ff8019600554169115151617600555604051809381926360f9bb1160e01b835260206004840152602483019062002bbf565b03815f805160206200728d8339815191525afa908115620026c6576200014d915f918291620026d1575b506040518093819263ddd2128d60e01b835260206004840152602483019062002bbf565b0381835f805160206200728d8339815191525af1908115620026c6575f91620027e3575b50604051634095225960e11b8152604060048201525f816040816200019a604482018762002bbf565b60031982820301602483015260018152600960fa1b60208201520301815f805160206200728d8339815191525afa908115620026c6575f91620027c5575b505f905b8051821015620027b557620001f2828262002ca0565b51906200024f5f60405161121760f11b6020820152620002336022828751620002228184840160208c01620029b2565b81010360028101845201826200298e565b60405180938192634095225960e11b8352896004840162002cb5565b03815f805160206200728d8339815191525afa908115620026c6575f9162002797575b5051156200278c57620002858262002cde565b906001546801000000000000000081101562000883576001810180600155811015620027785760015f52620002de9084907fb10e2d527612073b26eecdfd717e6a320cf44b4afac2b0732d9fcbe2b7fa0cf60162002acd565b620003505f60405161121760f11b602082015262000334602f8288516200030d816022840160208d01620029b2565b81016c0b995b991c1bda5b9d17dd5c9b609a1b602282015203600f8101845201826200298e565b60405180938192638bb8dd4360e01b83528a6004840162002cb5565b03815f805160206200728d8339815191525afa5f918162002758575b50620026ef575060405163975a6ce960e01b8152602060048201525f818062000399602482018862002bbf565b03815f805160206200728d8339815191525afa908115620026c657620003e6915f918291620026d157506040518093819263ddd2128d60e01b835260206004840152602483019062002bbf565b0381835f805160206200728d8339815191525af18015620026c65762000421915f91620026a8575b50835f52600260205260405f2062002acd565b60015b600760ff8216116200269757600860ff8216101580620007f6576200044c60ff831662002e90565b90620004ae6023604051809461121760f11b6020830152895162000479818c6020602287019101620029b2565b601760f91b602282850101526200049c82518093602087858801019101620029b2565b8201010360038101855201836200298e565b604051634095225960e11b8152915f8380620004cf848d6004840162002cb5565b03815f805160206200728d8339815191525afa5f938162002677575b5062000520575b50505060ff808216146200050c5760ff1660010162000424565b634e487b7160e01b5f52601160045260245ffd5b935f989397919692985b8951811015620026655762000540818b62002ca0565b51875f52600460205260ff60405f20602060405180928551620005678184868a01620029b2565b82019081520301902054166008811015620007f6576200263e5788604051620005d36021828b620005a28151809260208086019101620029b2565b8101601760f91b6020820152865190620005c38285830160208b01620029b2565b010360018101845201826200298e565b5f91620007f65760ff8c1660010362000b3a57604051636986e76b60e11b81526020818062000607858d6004840162002cb5565b03815f805160206200728d8339815191525afa5f918162000af6575b506200096e57505f6200064c916040518093819263093e7f4d60e11b83528c6004840162002cb5565b03815f805160206200728d8339815191525afa5f9181620008b6575b50620006ac575b505b156200068157506001016200052a565b60405163ea00fa1360e01b815260206004820152908190620006a890602483019062002bbf565b0390fd5b90506040519081604081019160208083015280518093526020606083019101925f905b80821062000897575050620006ee925003601f1981018352826200298e565b885f52600360205260405f20602060405180928551620007128184868a01620029b2565b820190815203019020815190916001600160401b038211620008835762000746826200073f855462002a3e565b8562002a79565b602090601f831160011462000816576200077892915f91836200080a575b50508160011b915f199060031b1c19161790565b90555b604051620007898162002972565b6001815260016020820152885f52600460205260405f20602060405180928551620007b88184868a01620029b2565b820190815203019020908051906008821015620007f65760ff61ff0060208554930151151560081b1692169061ffff19161717905560015f6200066f565b634e487b7160e01b5f52602160045260245ffd5b015190505f8062000764565b9190835f5260205f20905f935b601f198416851062000867576001945083601f198116106200084e575b505050811b0190556200077b565b01515f1960f88460031b161c191690555f808062000840565b8181015183556020948501946001909301929091019062000823565b634e487b7160e01b5f52604160045260245ffd5b91600191935060208091865115158152019401920184929391620006cf565b9091503d805f833e620008ca81836200298e565b8101906020818303126200096a578051906001600160401b0382116200096a57019080601f830112156200096a57815190620009068262002be6565b926200091660405194856200298e565b828452602084019160208460051b830101116200096a5760208101915b60208460051b83010183106200094f5750505050905f62000668565b602080916200095e8562002a30565b81520192019162000933565b5f80fd5b9150506040519015156020820152602081526200098b8162002972565b885f52600360205260405f20602060405180928551620009af8184868a01620029b2565b820190815203019020815190916001600160401b0382116200088357620009dc826200073f855462002a3e565b602090601f831160011462000a895762000a0d92915f91836200080a5750508160011b915f199060031b1c19161790565b90555b60405162000a1e8162002972565b600181525f6020820152885f52600460205260405f2060206040518092855162000a4c8184868a01620029b2565b820190815203019020908051906008821015620007f65760ff61ff0060208554930151151560081b1692169061ffff191617179055600162000671565b9190835f5260205f20905f935b601f198416851062000ada576001945083601f1981161062000ac1575b505050811b01905562000a10565b01515f1960f88460031b161c191690555f808062000ab3565b8181015183556020948501946001909301929091019062000a96565b9091506020813d60201162000b31575b8162000b15602093836200298e565b810103126200096a5762000b299062002a30565b905f62000623565b3d915062000b06565b5f9a5060ff8c1660020362000ff857604051631979f21160e21b81526020818062000b6a858d6004840162002cb5565b03815f805160206200728d8339815191525afa5f918162000fb4575b5062000e6357505f62000baf91604051809381926365c428e760e01b83528c6004840162002cb5565b03815f805160206200728d8339815191525afa5f918162000daf575b5062000bd9575b5062000671565b90506040519081604081019160208083015280518093526020606083019101925f905b80821062000d8857505062000c1b925003601f1981018352826200298e565b885f52600360205260405f2060206040518092855162000c3f8184868a01620029b2565b820190815203019020815190916001600160401b038211620008835762000c6c826200073f855462002a3e565b602090601f831160011462000d1b5762000c9d92915f91836200080a5750508160011b915f199060031b1c19161790565b90555b60405162000cae8162002972565b6002815260016020820152885f52600460205260405f2060206040518092855162000cdd8184868a01620029b2565b820190815203019020908051906008821015620007f65760ff61ff0060208554930151151560081b1692169061ffff19161717905560015f62000bd2565b9190835f5260205f20905f935b601f198416851062000d6c576001945083601f1981161062000d53575b505050811b01905562000ca0565b01515f1960f88460031b161c191690555f808062000d45565b8181015183556020948501946001909301929091019062000d28565b84516001600160a01b03168352602094850194869450909201916001919091019062000bfc565b9091503d805f833e62000dc381836200298e565b8101906020818303126200096a578051906001600160401b0382116200096a57019080601f830112156200096a5781519062000dff8262002be6565b9262000e0f60405194856200298e565b828452602084019160208460051b830101116200096a5760208101915b60208460051b830101831062000e485750505050905f62000bcb565b6020809162000e578562002ff6565b81520192019162000e2c565b9150506040519060018060a01b031660208201526020815262000e868162002972565b885f52600360205260405f2060206040518092855162000eaa8184868a01620029b2565b820190815203019020815190916001600160401b038211620008835762000ed7826200073f855462002a3e565b602090601f831160011462000f475762000f0892915f91836200080a5750508160011b915f199060031b1c19161790565b90555b60405162000f198162002972565b600281525f6020820152885f52600460205260405f2060206040518092855162000a4c8184868a01620029b2565b9190835f5260205f20905f935b601f198416851062000f98576001945083601f1981161062000f7f575b505050811b01905562000f0b565b01515f1960f88460031b161c191690555f808062000f71565b8181015183556020948501946001909301929091019062000f54565b9091506020813d60201162000fef575b8162000fd3602093836200298e565b810103126200096a5762000fe79062002ff6565b905f62000b86565b3d915062000fc4565b5f9a5060ff8c1660030362001451576040516308e2148160e41b81526020818062001028858d6004840162002cb5565b03815f805160206200728d8339815191525afa5f918162001417575b50620012ce57505f6200106d9160405180938192633e716f8160e01b83528c6004840162002cb5565b03815f805160206200728d8339815191525afa5f918162001224575b5062001096575062000671565b90506040519081604081019160208083015280518093526020606083019101925f905b80821062001207575050620010d8925003601f1981018352826200298e565b885f52600360205260405f20602060405180928551620010fc8184868a01620029b2565b820190815203019020815190916001600160401b038211620008835762001129826200073f855462002a3e565b602090601f83116001146200119a576200115a92915f91836200080a5750508160011b915f199060031b1c19161790565b90555b6040516200116b8162002972565b6003815260016020820152885f52600460205260405f2060206040518092855162000cdd8184868a01620029b2565b9190835f5260205f20905f935b601f1984168510620011eb576001945083601f19811610620011d2575b505050811b0190556200115d565b01515f1960f88460031b161c191690555f8080620011c4565b81810151835560209485019460019093019290910190620011a7565b9160019193506020809186518152019401920184929391620010b9565b9091503d805f833e6200123881836200298e565b8101906020818303126200096a578051906001600160401b0382116200096a57019080601f830112156200096a57815190620012748262002be6565b926200128460405194856200298e565b828452602084019160208460051b830101116200096a5760208101915b60208460051b8301018310620012bd5750505050905f62001089565b8251815260209283019201620012a1565b91505060405190602082015260208152620012e98162002972565b885f52600360205260405f206020604051809285516200130d8184868a01620029b2565b820190815203019020815190916001600160401b03821162000883576200133a826200073f855462002a3e565b602090601f8311600114620013aa576200136b92915f91836200080a5750508160011b915f199060031b1c19161790565b90555b6040516200137c8162002972565b600381525f6020820152885f52600460205260405f2060206040518092855162000a4c8184868a01620029b2565b9190835f5260205f20905f935b601f1984168510620013fb576001945083601f19811610620013e2575b505050811b0190556200136e565b01515f1960f88460031b161c191690555f8080620013d4565b81810151835560209485019460019093019290910190620013b7565b9091506020813d60201162001448575b8162001436602093836200298e565b810103126200096a5751905f62001044565b3d915062001427565b5f9a5060ff8c16600403620018aa5760405163cc7b048760e01b81526020818062001481858d6004840162002cb5565b03815f805160206200728d8339815191525afa5f918162001870575b506200172757505f620014c691604051809381926316bbe4f960e31b83528c6004840162002cb5565b03815f805160206200728d8339815191525afa5f91816200167d575b50620014ef575062000671565b90506040519081604081019160208083015280518093526020606083019101925f905b8082106200166057505062001531925003601f1981018352826200298e565b885f52600360205260405f20602060405180928551620015558184868a01620029b2565b820190815203019020815190916001600160401b038211620008835762001582826200073f855462002a3e565b602090601f8311600114620015f357620015b392915f91836200080a5750508160011b915f199060031b1c19161790565b90555b604051620015c48162002972565b6004815260016020820152885f52600460205260405f2060206040518092855162000cdd8184868a01620029b2565b9190835f5260205f20905f935b601f198416851062001644576001945083601f198116106200162b575b505050811b019055620015b6565b01515f1960f88460031b161c191690555f80806200161d565b8181015183556020948501946001909301929091019062001600565b916001919350602080918651815201940192018492939162001512565b9091503d805f833e6200169181836200298e565b8101906020818303126200096a578051906001600160401b0382116200096a57019080601f830112156200096a57815190620016cd8262002be6565b92620016dd60405194856200298e565b828452602084019160208460051b830101116200096a5760208101915b60208460051b8301018310620017165750505050905f620014e2565b8251815260209283019201620016fa565b91505060405190602082015260208152620017428162002972565b885f52600360205260405f20602060405180928551620017668184868a01620029b2565b820190815203019020815190916001600160401b038211620008835762001793826200073f855462002a3e565b602090601f83116001146200180357620017c492915f91836200080a5750508160011b915f199060031b1c19161790565b90555b604051620017d58162002972565b600481525f6020820152885f52600460205260405f2060206040518092855162000a4c8184868a01620029b2565b9190835f5260205f20905f935b601f198416851062001854576001945083601f198116106200183b575b505050811b019055620017c7565b01515f1960f88460031b161c191690555f80806200182d565b8181015183556020948501946001909301929091019062001810565b9091506020813d602011620018a1575b816200188f602093836200298e565b810103126200096a5751905f6200149d565b3d915062001880565b5f9a5060ff8c1660050362001d035760405163c135073960e01b815260208180620018da858d6004840162002cb5565b03815f805160206200728d8339815191525afa5f918162001cc9575b5062001b8057505f6200191f91604051809381926369a9157360e11b83528c6004840162002cb5565b03815f805160206200728d8339815191525afa5f918162001ad6575b5062001948575062000671565b90506040519081604081019160208083015280518093526020606083019101925f905b80821062001ab95750506200198a925003601f1981018352826200298e565b885f52600360205260405f20602060405180928551620019ae8184868a01620029b2565b820190815203019020815190916001600160401b0382116200088357620019db826200073f855462002a3e565b602090601f831160011462001a4c5762001a0c92915f91836200080a5750508160011b915f199060031b1c19161790565b90555b60405162001a1d8162002972565b6005815260016020820152885f52600460205260405f2060206040518092855162000cdd8184868a01620029b2565b9190835f5260205f20905f935b601f198416851062001a9d576001945083601f1981161062001a84575b505050811b01905562001a0f565b01515f1960f88460031b161c191690555f808062001a76565b8181015183556020948501946001909301929091019062001a59565b91600191935060208091865181520194019201849293916200196b565b9091503d805f833e62001aea81836200298e565b8101906020818303126200096a578051906001600160401b0382116200096a57019080601f830112156200096a5781519062001b268262002be6565b9262001b3660405194856200298e565b828452602084019160208460051b830101116200096a5760208101915b60208460051b830101831062001b6f5750505050905f6200193b565b825181526020928301920162001b53565b9150506040519060208201526020815262001b9b8162002972565b885f52600360205260405f2060206040518092855162001bbf8184868a01620029b2565b820190815203019020815190916001600160401b038211620008835762001bec826200073f855462002a3e565b602090601f831160011462001c5c5762001c1d92915f91836200080a5750508160011b915f199060031b1c19161790565b90555b60405162001c2e8162002972565b600581525f6020820152885f52600460205260405f2060206040518092855162000a4c8184868a01620029b2565b9190835f5260205f20905f935b601f198416851062001cad576001945083601f1981161062001c94575b505050811b01905562001c20565b01515f1960f88460031b161c191690555f808062001c86565b8181015183556020948501946001909301929091019062001c69565b9091506020813d60201162001cfa575b8162001ce8602093836200298e565b810103126200096a5751905f620018f6565b3d915062001cd9565b5f9a5060ff8c16600703620021ce5760405163d77bfdb960e01b81525f818062001d32858d6004840162002cb5565b03815f805160206200728d8339815191525afa5f918162002188575b506200202857505f62001d77916040518093819263b197c24760e01b83528c6004840162002cb5565b03815f805160206200728d8339815191525afa5f918162001f4b575b5062001da0575062000671565b905060405190816040810191602080830152805180935260606020818401918560051b8501019201935f905b80821062001f1b5750505062001dec925003601f1981018352826200298e565b885f52600360205260405f2060206040518092855162001e108184868a01620029b2565b820190815203019020815190916001600160401b038211620008835762001e3d826200073f855462002a3e565b602090601f831160011462001eae5762001e6e92915f91836200080a5750508160011b915f199060031b1c19161790565b90555b60405162001e7f8162002972565b6007815260016020820152885f52600460205260405f2060206040518092855162000cdd8184868a01620029b2565b9190835f5260205f20905f935b601f198416851062001eff576001945083601f1981161062001ee6575b505050811b01905562001e71565b01515f1960f88460031b161c191690555f808062001ed8565b8181015183556020948501946001909301929091019062001ebb565b9193509160208062001f3a600193605f198a8203018852885162002bbf565b960194019201859394929162001dcc565b9091503d805f833e62001f5f81836200298e565b60208282810103126200096a578151916001600160401b0383116200096a57818101601f8483010112156200096a57828101519062001f9e8262002be6565b9362001fae60405195866200298e565b828552602085019084830160208560051b8386010101116200096a57602081840101915b60208560051b8386010101831062001ff257505050505050905f62001d93565b82516001600160401b0381116200096a576020916200201c8392838a890191878a010101620029d5565b81520192019162001fd2565b6200204b92506200205a9150604051928391602080840152604083019062002bbf565b03601f1981018352826200298e565b885f52600360205260405f206020604051809285516200207e8184868a01620029b2565b820190815203019020815190916001600160401b0382116200088357620020ab826200073f855462002a3e565b602090601f83116001146200211b57620020dc92915f91836200080a5750508160011b915f199060031b1c19161790565b90555b604051620020ed8162002972565b600781525f6020820152885f52600460205260405f2060206040518092855162000a4c8184868a01620029b2565b9190835f5260205f20905f935b601f19841685106200216c576001945083601f1981161062002153575b505050811b019055620020df565b01515f1960f88460031b161c191690555f808062002145565b8181015183556020948501946001909301929091019062002128565b9091503d805f833e6200219c81836200298e565b81016020828203126200096a5781516001600160401b0381116200096a57620021c69201620029d5565b905f62001d4e565b5f9a5060ff8c16600614620021e4575062000671565b604051638bb8dd4360e01b81525f818062002204858d6004840162002cb5565b03815f805160206200728d8339815191525afa5f918162002615575b506200248757505f620022499160405180938192639f62928160e01b83528c6004840162002cb5565b03815f805160206200728d8339815191525afa5f91816200245e575b5062002275575b505b5f62000bd2565b905060405190816040810191602080830152805180935260606020818401918560051b8501019201935f905b8082106200242e57505050620022c1925003601f1981018352826200298e565b885f52600360205260405f20602060405180928551620022e58184868a01620029b2565b820190815203019020815190916001600160401b038211620008835762002312826200073f855462002a3e565b602090601f8311600114620023c1576200234392915f91836200080a5750508160011b915f199060031b1c19161790565b90555b604051620023548162002972565b6006815260016020820152885f52600460205260405f20602060405180928551620023838184868a01620029b2565b820190815203019020908051906008821015620007f65760ff61ff0060208554930151151560081b1692169061ffff19161717905560015f6200226c565b9190835f5260205f20905f935b601f198416851062002412576001945083601f19811610620023f9575b505050811b01905562002346565b01515f1960f88460031b161c191690555f8080620023eb565b81810151835560209485019460019093019290910190620023ce565b919350916020806200244d600193605f198a8203018852885162002bbf565b9601940192018593949291620022a1565b6200247f9192503d805f833e6200247681836200298e565b81019062002bfe565b905f62002265565b6200204b9250620024aa9150604051928391602080840152604083019062002bbf565b885f52600360205260405f20602060405180928551620024ce8184868a01620029b2565b820190815203019020815190916001600160401b0382116200088357620024fb826200073f855462002a3e565b602090601f8311600114620025a8576200252c92915f91836200080a5750508160011b915f199060031b1c19161790565b90555b6040516200253d8162002972565b600681525f6020820152885f52600460205260405f206020604051809285516200256b8184868a01620029b2565b820190815203019020908051906008821015620007f65760ff61ff0060208554930151151560081b1692169061ffff19161717905560016200226e565b9190835f5260205f20905f935b601f1984168510620025f9576001945083601f19811610620025e0575b505050811b0190556200252f565b01515f1960f88460031b161c191690555f8080620025d2565b81810151835560209485019460019093019290910190620025b5565b620026369192503d805f833e6200262d81836200298e565b81019062002b96565b905f62002220565b60405163038a07f760e51b815260206004820152908190620006a890602483019062002bbf565b5093509591965093505f8080620004f2565b6200268f9194503d805f833e6200247681836200298e565b925f620004eb565b50929050600191505b0190620001dc565b620026bf91503d805f833e6200262d81836200298e565b5f6200040e565b6040513d5f823e3d90fd5b620026e891503d8084833e6200262d81836200298e565b5f62000129565b5f62002718916040518093819263ddd2128d60e01b835260206004840152602483019062002bbf565b0381835f805160206200728d8339815191525af18015620026c65762002752915f91620026a85750835f52600260205260405f2062002acd565b62000421565b620027709192503d805f833e6200262d81836200298e565b905f6200036c565b634e487b7160e01b5f52603260045260245ffd5b9160019150620026a0565b620027ae91503d805f833e6200247681836200298e565b5f62000272565b60405161428190816200300c8239f35b620027dc91503d805f833e6200247681836200298e565b5f620001d8565b620027fa91503d805f833e6200262d81836200298e565b5f62000171565b90508401515f620000b6565b5f8080525f80516020620072ad8339815191529190601f198416905b8181106200286d5750925f949260019282620000ff98961062002854575b5050811b018355620000cc565b850151861960f88460031b161c191690555f8062002847565b9192602060018192868a01518155019401920162002829565b5f80525f80516020620072ad833981519152601f830160051c81019160208410620028d0575b601f0160051c01905b818110620028c4575062000091565b5f8155600101620028b5565b9091508190620028ac565b6040516305d79a4360e31b8152600490fd5b506040516364af255d60e01b81526004808201526020816024815f805160206200728d8339815191525afa908115620026c6575f9162002930575b501562000065565b90506020813d60201162002969575b816200294e602093836200298e565b810103126200096a57620029629062002a30565b5f62002928565b3d91506200293f565b604081019081106001600160401b038211176200088357604052565b601f909101601f19168101906001600160401b038211908210176200088357604052565b5f5b838110620029c45750505f910152565b8181015183820152602001620029b4565b81601f820112156200096a5780516001600160401b03811162000883576040519262002a0c601f8301601f1916602001856200298e565b818452602082840101116200096a5762002a2d9160208085019101620029b2565b90565b519081151582036200096a57565b90600182811c9216801562002a6e575b602083101462002a5a57565b634e487b7160e01b5f52602260045260245ffd5b91607f169162002a4e565b601f821162002a8757505050565b5f5260205f20906020601f840160051c8301931062002ac2575b601f0160051c01905b81811062002ab6575050565b5f815560010162002aaa565b909150819062002aa1565b81519192916001600160401b038111620008835762002af98162002af2845462002a3e565b8462002a79565b602080601f831160011462002b315750819062002b2d9394955f926200080a5750508160011b915f199060031b1c19161790565b9055565b90601f19831695845f5260205f20925f905b88821062002b7d5750508360019596971062002b64575b505050811b019055565b01515f1960f88460031b161c191690555f808062002b5a565b8060018596829496860151815501950193019062002b43565b906020828203126200096a5781516001600160401b0381116200096a5762002a2d9201620029d5565b9060209162002bda81518092818552858086019101620029b2565b601f01601f1916010190565b6001600160401b038111620008835760051b60200190565b9060209081838203126200096a5782516001600160401b03938482116200096a570181601f820112156200096a57805162002c398162002be6565b9462002c4960405196876200298e565b818652848087019260051b840101938085116200096a57858401925b85841062002c77575050505050505090565b83518381116200096a57879162002c94848480948a0101620029d5565b81520193019262002c65565b8051821015620027785760209160051b010190565b909162002ccf62002a2d9360408452604084019062002bbf565b91602081840391015262002bbf565b6040805163fa91454d60e01b81526020600482018190529293908062002d08602482018762002bbf565b039084815f805160206200728d8339815191529381855afa5f918162002e5b575b5062002e5257505f83518092634cc1c2bb60e01b8252866004830152818062002d56602482018b62002bbf565b03915afa5f918162002d97575b5062002d8e575050620006a890519283926397aa94df60e01b84526004840152602483019062002bbf565b91509250015190565b9091503d805f833e62002dab81836200298e565b810185828203126200096a5781516001600160401b03928382116200096a5701906080828203126200096a5785519260808401848110828211176200088357875282518181116200096a578262002e04918501620029d5565b84528783015188850152868301518181116200096a578262002e28918501620029d5565b8785015260608301519081116200096a5762002e459201620029d5565b6060820152905f62002d63565b93505092505090565b9091508581813d831162002e88575b62002e7681836200298e565b810103126200096a5751905f62002d29565b503d62002e6a565b6008811015620007f6576001811462002fd3576002811462002fad576003811462002f87576004811462002f64576005811462002f42576006811462002f1d5760071462002efa5760405162002ee68162002972565b60048152636e6f6e6560e01b602082015290565b60405162002f088162002972565b6005815264627974657360d81b602082015290565b5060405162002f2c8162002972565b6006815265737472696e6760d01b602082015290565b5060405162002f518162002972565b60038152621a5b9d60ea1b602082015290565b5060405162002f738162002972565b60048152631d5a5b9d60e21b602082015290565b5060405162002f968162002972565b6007815266313cba32b9999960c91b602082015290565b5060405162002fbc8162002972565b60078152666164647265737360c81b602082015290565b5060405162002fe28162002972565b6004815263189bdbdb60e21b602082015290565b51906001600160a01b03821682036200096a5756fe60406080815260049081361015610014575f80fd5b5f3560e01c806307d79d9a1461135d57806308f7b4b21461130a5780631d776323146111fe57806322dc48fd146111c05780632b29c0fa1461110a5780632e3196a5146110685780632ef8ba7414610fc65780633f3a758814610f8557806343ec8b6a14610ed25780634d85ce8014610e7f57806359b3952614610dc95780635eba0df014610d7b57806361141c9714610d285780636556095014610cd5578063693ec85e14610c2b5780637b8fed8114610b755780637df3ef1214610b28578063805da4ad14610adc57806388c63d4514610a265780638a42ebe9146109845780638be199241461093157806393dbe6e0146108de578063a815ff151461082e578063b3a64001146107e7578063ba0ff22c1461073e578063c91ca7ba14610688578063cf1cfa991461064a578063cf72a2f3146105f7578063d6698dc414610529578063db0075df146104d6578063de0fc9b314610420578063e298d00b146103cd578063e605325014610317578063e942b516146102615763fa3c074a1461019d575f80fd5b3461024c578060031936011261024c576001600160401b03823581811161024c576101cb9036908501611406565b9060243590811161024c576101e390369085016116e4565b916020815180956303408e4760e41b8252815f8051602061422c8339815191525afa90811561025857505f90610220575b61021e935061390a565b005b506020833d602011610250575b8161023a602093836113ca565b8101031261024c5761021e9251610214565b5f80fd5b3d915061022d565b513d5f823e3d90fd5b503461024c578060031936011261024c576001600160401b03823581811161024c576102909036908501611406565b9060243590811161024c576102a89036908501611406565b916020815180956303408e4760e41b8252815f8051602061422c8339815191525afa90811561025857505f906102e3575b61021e9350612858565b506020833d60201161030f575b816102fd602093836113ca565b8101031261024c5761021e92516102d9565b3d91506102f0565b503461024c578060031936011261024c576001600160401b03823581811161024c576103469036908501611406565b9060243590811161024c5761035e9036908501611463565b916020815180956303408e4760e41b8252815f8051602061422c8339815191525afa90811561025857505f90610399575b61021e9350611af5565b506020833d6020116103c5575b816103b3602093836113ca565b8101031261024c5761021e925161038f565b3d91506103a6565b823461024c57606036600319011261024c576001600160401b039060243582811161024c576103ff9036908301611406565b60443592831161024c5761041961021e93369084016116e4565b913561390a565b503461024c578060031936011261024c576001600160401b03823581811161024c5761044f9036908501611406565b9060243590811161024c576104679036908501611684565b916020815180956303408e4760e41b8252815f8051602061422c8339815191525afa90811561025857505f906104a2575b61021e9350612b04565b506020833d6020116104ce575b816104bc602093836113ca565b8101031261024c5761021e9251610498565b3d91506104af565b823461024c57606036600319011261024c576001600160401b039060243582811161024c576105089036908301611406565b60443592831161024c5761052261021e9336908401611463565b91356136b5565b50903461024c57602036600319011261024c578035918215159283810361024c5780610574575b610567578260ff8019600554169116176005555f80f35b516305d79a4360e31b8152fd5b5080516364af255d60e01b81528281018390526020816024815f8051602061422c8339815191525afa9081156105ed575f916105b2575b5015610550565b90506020813d6020116105e5575b816105cd602093836113ca565b8101031261024c5751801515810361024c575f6105ab565b3d91506105c0565b82513d5f823e3d90fd5b823461024c57606036600319011261024c576001600160401b039060243582811161024c576106299036908301611406565b60443592831161024c5761064361021e9336908401611544565b913561341c565b823461024c57606036600319011261024c57602435906001600160401b03821161024c5761067e61021e9236908301611406565b6044359135613240565b503461024c578060031936011261024c576001600160401b03823581811161024c576106b79036908501611406565b9060243590811161024c576106cf9036908501611544565b916020815180956303408e4760e41b8252815f8051602061422c8339815191525afa90811561025857505f9061070a575b61021e9350612d93565b506020833d602011610736575b81610724602093836113ca565b8101031261024c5761021e9251610700565b3d9150610717565b503461024c578060031936011261024c5781356001600160401b03811161024c5761076c9036908401611406565b60243591821515830361024c576020815180956303408e4760e41b8252815f8051602061422c8339815191525afa90811561025857505f906107b3575b61021e935061306d565b506020833d6020116107df575b816107cd602093836113ca565b8101031261024c5761021e92516107a9565b3d91506107c0565b823461024c57606036600319011261024c576024356001600160401b03811161024c576108179036908301611406565b60443590811515820361024c5761021e923561306d565b503461024c578060031936011261024c5781356001600160401b03811161024c5761085c9036908401611406565b602435916001600160a01b038316830361024c576020815180956303408e4760e41b8252815f8051602061422c8339815191525afa90811561025857505f906108aa575b61021e93506123e7565b506020833d6020116108d6575b816108c4602093836113ca565b8101031261024c5761021e92516108a0565b3d91506108b7565b823461024c57606036600319011261024c576001600160401b039060243582811161024c576109109036908301611406565b60443592831161024c5761092a61021e9336908401611544565b9135612d93565b823461024c57606036600319011261024c576001600160401b039060243582811161024c576109639036908301611406565b60443592831161024c5761097d61021e9336908401611684565b9135612b04565b503461024c578060031936011261024c5781356001600160401b03811161024c576109b29036908401611406565b6020825180946303408e4760e41b8252815f8051602061422c8339815191525afa91821561025857505f916109f0575b61021e925060243591611e68565b90506020823d602011610a1e575b81610a0b602093836113ca565b8101031261024c5761021e9151906109e2565b3d91506109fe565b503461024c578060031936011261024c576001600160401b03823581811161024c57610a559036908501611406565b9060243590811161024c57610a6d90369085016115c3565b916020815180956303408e4760e41b8252815f8051602061422c8339815191525afa90811561025857505f90610aa8575b61021e93506125d0565b506020833d602011610ad4575b81610ac2602093836113ca565b8101031261024c5761021e9251610a9e565b3d9150610ab5565b503461024c578060031936011261024c576024356001600160401b03811161024c57610b2492610b12610b199236908301611406565b9035612a74565b905191829182611633565b0390f35b50903461024c57602036600319011261024c57610b2491610b5c91355f526002602052610b63815f20825193848092611dd7565b03836113ca565b5191829160208352602083019061151f565b503461024c578060031936011261024c576001600160401b03823581811161024c57610ba49036908501611406565b9060243590811161024c57610bbc9036908501611463565b916020815180956303408e4760e41b8252815f8051602061422c8339815191525afa90811561025857505f90610bf7575b61021e93506136b5565b506020833d602011610c23575b81610c11602093836113ca565b8101031261024c5761021e9251610bed565b3d9150610c04565b503461024c57602036600319011261024c5781356001600160401b03811161024c57610c5a9036908401611406565b91610c63612a18565b506020825180926303408e4760e41b8252815f8051602061422c8339815191525afa9081156105ed575f91610ca1575b50610b2492610b1991612a74565b90506020813d602011610ccd575b81610cbc602093836113ca565b8101031261024c5751610b24610c93565b3d9150610caf565b823461024c57606036600319011261024c576001600160401b039060243582811161024c57610d079036908301611406565b60443592831161024c57610d2161021e9336908401611406565b9135612858565b823461024c57606036600319011261024c576001600160401b039060243582811161024c57610d5a9036908301611406565b60443592831161024c57610d7461021e93369084016115c3565b91356125d0565b823461024c57606036600319011261024c576024356001600160401b03811161024c57610dab9036908301611406565b604435906001600160a01b038216820361024c5761021e92356123e7565b503461024c578060031936011261024c576001600160401b03823581811161024c57610df89036908501611406565b9060243590811161024c57610e109036908501611544565b916020815180956303408e4760e41b8252815f8051602061422c8339815191525afa90811561025857505f90610e4b575b61021e935061341c565b506020833d602011610e77575b81610e65602093836113ca565b8101031261024c5761021e9251610e41565b3d9150610e58565b823461024c57606036600319011261024c576001600160401b039060243582811161024c57610eb19036908301611406565b60443592831161024c57610ecb61021e9336908401611406565b91356121d4565b50903461024c575f36600319011261024c5781516303408e4760e41b815260209182908290815f8051602061422c8339815191525afa908115610f7b575f91610f4c575b50610f3692610b24915f5260028352610f3d815f20825195868092611dd7565b03856113ca565b5192828493845283019061151f565b90508181813d8311610f74575b610f6381836113ca565b8101031261024c5751610f36610f16565b503d610f59565b83513d5f823e3d90fd5b503461024c57602036600319011261024c578135916001600160401b03831161024c57610fba610fbf91602094369101611406565b61203f565b9051908152f35b503461024c578060031936011261024c5781356001600160401b03811161024c57610ff49036908401611406565b6020825180946303408e4760e41b8252815f8051602061422c8339815191525afa91821561025857505f91611032575b61021e9250602435916117ec565b90506020823d602011611060575b8161104d602093836113ca565b8101031261024c5761021e915190611024565b3d9150611040565b503461024c578060031936011261024c5781356001600160401b03811161024c576110969036908401611406565b6020825180946303408e4760e41b8252815f8051602061422c8339815191525afa91821561025857505f916110d4575b61021e925060243591613240565b90506020823d602011611102575b816110ef602093836113ca565b8101031261024c5761021e9151906110c6565b3d91506110e2565b503461024c578060031936011261024c576001600160401b03823581811161024c576111399036908501611406565b9060243590811161024c576111519036908501611406565b916020815180956303408e4760e41b8252815f8051602061422c8339815191525afa90811561025857505f9061118c575b61021e93506121d4565b506020833d6020116111b8575b816111a6602093836113ca565b8101031261024c5761021e9251611182565b3d9150611199565b823461024c57606036600319011261024c57602435906001600160401b03821161024c576111f461021e9236908301611406565b6044359135611e68565b503461024c575f36600319011261024c5760019081549061121e8261144c565b9161122b825193846113ca565b8083525f848152849060207fb10e2d527612073b26eecdfd717e6a320cf44b4afac2b0732d9fcbe2b7fa0cf68187015b8584106112e1578488888151916112718361144c565b9261127e835194856113ca565b80845261128d601f199161144c565b013660208501375f845b6112a9575b825180610b2486826114c3565b81518110156112dc579084826112c96112c3839585611a1a565b5161203f565b6112d38288611a1a565b52019091611297565b61129c565b8483819289516112fc816112f58189611dd7565b03826113ca565b81520192019301929061125b565b823461024c57606036600319011261024c576001600160401b039060243582811161024c5761133c9036908301611406565b60443592831161024c5761135661021e9336908401611463565b9135611af5565b823461024c57606036600319011261024c57602435906001600160401b03821161024c5761139161021e9236908301611406565b60443591356117ec565b604081019081106001600160401b038211176113b657604052565b634e487b7160e01b5f52604160045260245ffd5b90601f801991011681019081106001600160401b038211176113b657604052565b6001600160401b0381116113b657601f01601f191660200190565b81601f8201121561024c5780359061141d826113eb565b9261142b60405194856113ca565b8284526020838301011161024c57815f926020809301838601378301015290565b6001600160401b0381116113b65760051b60200190565b9080601f8301121561024c57602090823561147d8161144c565b9361148b60405195866113ca565b81855260208086019260051b82010192831161024c57602001905b8282106114b4575050505090565b813581529083019083016114a6565b60209060206040818301928281528551809452019301915f5b8281106114ea575050505090565b8351855293810193928101926001016114dc565b5f5b83811061150f5750505f910152565b8181015183820152602001611500565b90602091611538815180928185528580860191016114fe565b601f01601f1916010190565b81601f8201121561024c5780359160209161155e8461144c565b9361156c60405195866113ca565b808552838086019160051b8301019280841161024c57848301915b8483106115975750505050505090565b82356001600160401b03811161024c5786916115b884848094890101611406565b815201920191611587565b9080601f8301121561024c5760209082356115dd8161144c565b936115eb60405195866113ca565b81855260208086019260051b82010192831161024c57602001905b828210611614575050505090565b81356001600160a01b038116810361024c578152908301908301611606565b60208152815180519060088210156116705761166d936020809260809482870152015115156040850152015191606080820152019061151f565b90565b634e487b7160e01b5f52602160045260245ffd5b9080601f8301121561024c57602090823561169e8161144c565b936116ac60405195866113ca565b81855260208086019260051b82010192831161024c57602001905b8282106116d5575050505090565b813581529083019083016116c7565b9080601f8301121561024c5760209082356116fe8161144c565b9361170c60405195866113ca565b81855260208086019260051b82010192831161024c57602001905b828210611735575050505090565b8135801515810361024c578152908301908301611727565b90600182811c9216801561177b575b602083101461176757565b634e487b7160e01b5f52602260045260245ffd5b91607f169161175c565b81601f8201121561024c57805161179b816113eb565b926117a960405194856113ca565b8184526020828401011161024c5761166d91602080850191016114fe565b9060208282031261024c5781516001600160401b03811161024c5761166d9201611785565b92919060409384516117fd8161139b565b6005815260205f81830152611813828585613b7f565b86519085818301528082526118278261139b565b835f5260038152875f20818951809288516118458184868d016114fe565b820190815203019020918051916001600160401b0383116113b657829161186c855461174d565b601f81116119ad575b5081601f841160011461194957505f9261193e575b50508160011b915f199060031b1c19161790555b60ff600554166118b1575b505050509050565b516008811015611670576118c490613dc4565b90855193635191620760e11b855260048501525f846024815f8051602061422c8339815191525afa938415611934576119069596505f94611910575b50613e79565b805f8080806118a9565b61192d9194503d805f833e61192581836113ca565b8101906117c7565b925f611900565b86513d5f823e3d90fd5b015190505f8061188a565b5f8681528181209450601f198616915b82821061199557505090846001959493921061197d575b505050811b01905561189e565b01515f1960f88460031b161c191690555f8080611970565b80600186978294978701518155019601940190611959565b90919250845f52825f20601f850160051c8101918486106119f3575b90601f86959493920160051c01905b8181106119e55750611875565b5f81558594506001016119d8565b90915081906119c9565b60405190611a0a8261139b565b60018252605b60f81b6020830152565b8051821015611a2e5760209160051b010190565b634e487b7160e01b5f52603260045260245ffd5b6020611a83919392936040519481611a6387935180928680870191016114fe565b8201611a77825180938680850191016114fe565b010380855201836113ca565b565b90611a83602160405184611aa38296518092602080860191016114fe565b8101600b60fa1b60208201520360018101855201836113ca565b90611a83602160405184611adb8296518092602080860191016114fe565b8101605d60f81b60208201520360018101855201836113ca565b91906040805192611b058461139b565b6003845260019060208281870152611b1e868689613b7f565b835180858101838083015284518091526060820190848601905f5b8887838310611dc25750505050500391611b5b601f19938481018452836113ca565b885f5260038152855f20818751809282611b7b8c848151938492016114fe565b820190815203019020928251926001600160401b0384116113b6578392611ba2865461174d565b601f8111611d6e575b508092601f8511600114611d0f5750505f92611d04575b50505f19600383901b1c191690841b1790555b60ff60055416611be8575b505050505050565b90809291611bf46119fd565b925f945b611c33575b505050611c0a9150611abd565b915192600884101561167057611c22611c2894613dc4565b90613e79565b5f8080808080611be0565b8151851015611cff57611c468583611a1a565b51815194631623433d60e31b8652600491828701526024955f8188815f8051602061422c8339815191525afa908115611cf557611c959291611c8f915f91611cdb575b50614035565b90611a42565b948351915f198301928311611cca5750508510611cb7575b9382019382611bf8565b82611cc28195611a85565b945050611cad565b601190634e487b7160e01b5f52525ffd5b611cef91503d805f833e61192581836113ca565b5f611c89565b84513d5f823e3d90fd5b611bfd565b015190505f80611bc2565b88959392919316865f52835f20935f905b828210611d555750508411611d3d575b505050811b019055611bd5565b01515f1960f88460031b161c191690555f8080611d30565b8484015186558a97909501949384019390810190611d20565b9091929350855f52815f20601f860160051c810191838710611db8575b869594939291601f8b920160051c01915b828110611daa575050611bab565b5f81558796508a9101611d9c565b9091508190611d8b565b84518652879650948501949093019201611b39565b80545f9392611de58261174d565b918282526020936001916001811690815f14611e495750600114611e0b575b5050505050565b90939495505f92919252835f2092845f945b838610611e3557505050500101905f80808080611e04565b805485870183015294019385908201611e1d565b60ff19168685015250505090151560051b010191505f80808080611e04565b9291906040938451611e798161139b565b6004815260205f81830152611e8f828585613b7f565b8651908581830152808252611ea38261139b565b835f5260038152875f2081895180928851611ec18184868d016114fe565b820190815203019020918051916001600160401b0383116113b6578291611ee8855461174d565b601f8111611fef575b5081601f8411600114611f8b57505f92611f80575b50508160011b915f199060031b1c19161790555b60ff60055416611f2c57505050509050565b51600881101561167057611f3f90613dc4565b9085519363348051d760e11b855260048501525f846024815f8051602061422c8339815191525afa938415611934576119069596505f946119105750613e79565b015190505f80611f06565b5f8681528181209450601f198616915b828210611fd7575050908460019594939210611fbf575b505050811b019055611f1a565b01515f1960f88460031b161c191690555f8080611fb2565b80600186978294978701518155019601940190611f9b565b90919250845f52825f20601f850160051c810191848610612035575b90601f86959493920160051c01905b8181106120275750611ef1565b5f815585945060010161201a565b909150819061200b565b6040805163fa91454d60e01b815260206004820181905292939080612067602482018761151f565b039084815f8051602061422c8339815191529381855afa5f91816121a5575b5061219c57505f83518092634cc1c2bb60e01b825286600483015281806120b0602482018b61151f565b03915afa5f91816120f1575b506120e85750506120e490519283926397aa94df60e01b84526004840152602483019061151f565b0390fd5b91509250015190565b9091503d805f833e61210381836113ca565b8101858282031261024c5781516001600160401b039283821161024c57019060808282031261024c5785519260808401848110828211176113b6578752825181811161024c5782612155918501611785565b845287830151888501528683015181811161024c5782612176918501611785565b87850152606083015190811161024c576121909201611785565b6060820152905f6120bc565b93505092505090565b9091508581813d83116121cd575b6121bd81836113ca565b8101031261024c5751905f612086565b503d6121b3565b909291926040938451906121e78261139b565b600782526020915f838201526121fe818587613b7f565b86518380820152806122128982018561151f565b03612225601f19918281018452836113ca565b865f5260038552885f20858a518092826122458b848151938492016114fe565b820190815203019020918051916001600160401b0383116113b657829161226c855461174d565b601f8111612397575b508791601f841160011461233757505f9261232c575b50508160011b915f199060031b1c19161790555b60ff600554166122b3575b50505050509050565b516008811015611670576122ec916122cb5f92613dc4565b93885193849283926371aad10d60e01b84526004840152602483019061151f565b03815f8051602061422c8339815191525afa9586156102585750612321949561231b915f91611cdb5750614035565b92613e79565b805f808080806122aa565b015190505f8061228b565b90921691845f52875f20925f5b89828210612381575050908460019594939210612369575b505050811b01905561229f565b01515f1960f88460031b161c191690555f808061235c565b6001859682939686015181550195019301612344565b90919250845f52875f20601f850160051c8101918986106123dd575b90601f86959493920160051c01905b8181106123cf5750612275565b5f81558594506001016123c2565b90915081906123b3565b9092919260409384516123f98161139b565b600281526020915f83830152612410828587613b7f565b86516001600160a01b03909116838201819052838252926124308261139b565b855f5260038152875f208189518092885161244e8184868d016114fe565b820190815203019020918051916001600160401b0383116113b6578291612475855461174d565b601f8111612580575b5081601f841160011461251c57505f92612511575b50508160011b915f199060031b1c19161790555b60ff600554166124b957505050509050565b516008811015611670576124cc90613dc4565b90855190632b65311f60e11b825260048201525f816024815f8051602061422c8339815191525afa9586156102585750611906949561231b915f91611cdb5750614035565b015190505f80612493565b5f8681528181209450601f198616915b828210612568575050908460019594939210612550575b505050811b0190556124a7565b01515f1960f88460031b161c191690555f8080612543565b8060018697829497870151815501960194019061252c565b90919250845f52825f20601f850160051c8101918486106125c6575b90601f86959493920160051c01905b8181106125b8575061247e565b5f81558594506001016125ab565b909150819061259c565b919060408051926125e08461139b565b60028452600190602082818701526125f9868689613b7f565b835180858101838083015284518091526060820190848601905f5b888783831061283a5750505050500391612636601f19938481018452836113ca565b885f5260038152855f208187518092826126568c848151938492016114fe565b820190815203019020928251926001600160401b0384116113b657839261267d865461174d565b601f81116127e6575b508092601f85116001146127875750505f9261277c575b50505f19600383901b1c191690841b1790555b60ff600554166126c257505050505050565b908092916126ce6119fd565b925f945b6126e357505050611c0a9150611abd565b8151851015611cff576001600160a01b036126fe8684611a1a565b5116815194632b65311f60e11b8652600491828701526024955f8188815f8051602061422c8339815191525afa908115611cf5576127479291611c8f915f91611cdb5750614035565b948351915f198301928311611cca5750508510612769575b93820193826126d2565b826127748195611a85565b94505061275f565b015190505f8061269d565b88959392919316865f52835f20935f905b8282106127cd57505084116127b5575b505050811b0190556126b0565b01515f1960f88460031b161c191690555f80806127a8565b8484015186558a97909501949384019390810190612798565b9091929350855f52815f20601f860160051c810191838710612830575b869594939291601f8b920160051c01915b828110612822575050612686565b5f81558796508a9101612814565b9091508190612803565b84516001600160a01b03168652879650948501949093019201612614565b906040516128658161139b565b6006815260205f8183015261287b828486613b7f565b604051818082015280612891604082018861151f565b03916128a5601f19938481018452836113ca565b855f526003815260405f2081604051809288516128c58184868d016114fe565b820190815203019020928251926001600160401b0384116113b65783926128ec865461174d565b601f81116129c6575b508092601f85116001146129655750505f9261295a575b50508160011b915f199060031b1c19161790555b60ff60055416612931575b50505050565b519260088410156116705761231b61294b61295195613dc4565b91614035565b5f80808061292b565b015190505f8061290c565b909316855f52835f20935f905b8282106129ae575050908460019594939210612996575b505050811b019055612920565b01515f1960f88460031b161c191690555f8080612989565b80600186978294978701518155019601940190612972565b9091929350855f52815f20601f860160051c810191838710612a0e575b90601f8796959493920160051c01905b818110612a0057506128f5565b5f81558695506001016129f3565b90915081906129e3565b60405190612a258261139b565b6060602083604051612a368161139b565b5f81525f8382015281520152565b90604051612a518161139b565b80925460ff811660088110156116705760209160ff91845260081c161515910152565b90610b5c90612a81612a18565b50825f52612afe60209160048352612ad483604092835f20908451838183519482850195612ab08184896114fe565b820190815203019020985f5260038352845f209085519485938492519283916114fe565b82019081520301902090612af2815196612aed8861139b565b612a44565b86525193848092611dd7565b82015290565b91906040805192612b148461139b565b6005845260019060208281870152612b2d868689613b7f565b835180858101838083015284518091526060820190848601905f5b8887838310612d7e5750505050500391612b6a601f19938481018452836113ca565b885f5260038152855f20818751809282612b8a8c848151938492016114fe565b820190815203019020928251926001600160401b0384116113b6578392612bb1865461174d565b601f8111612d2a575b508092601f8511600114612ccb5750505f92612cc0575b50505f19600383901b1c191690841b1790555b60ff60055416612bf657505050505050565b90809291612c026119fd565b925f945b612c1757505050611c0a9150611abd565b8151851015611cff57612c2a8583611a1a565b518151635191620760e11b8152600491828201526024955f8288815f8051602061422c8339815191525afa918215611cf55790612c6f92915f92612ca4575b50611a42565b948351915f198301928311611cca5750508510612c91575b9382019382612c06565b82612c9c8195611a85565b945050612c87565b612cb99192503d805f833e61192581836113ca565b905f612c69565b015190505f80612bd1565b88959392919316865f52835f20935f905b828210612d115750508411612cf9575b505050811b019055612be4565b01515f1960f88460031b161c191690555f8080612cec565b8484015186558a97909501949384019390810190612cdc565b9091929350855f52815f20601f860160051c810191838710612d74575b869594939291601f8b920160051c01915b828110612d66575050612bba565b5f81558796508a9101612d58565b9091508190612d47565b84518652879650948501949093019201612b48565b9190604091825192612da48461139b565b600784526001906020928284870152612dbe868689613b7f565b815180838101868083015283518091526060820160608260051b84010191888601915f905b898b8484106130405750505050505003612e05601f19918281018452836113ca565b885f5260038652835f20868551809282612e258c848151938492016114fe565b820190815203019020918051916001600160401b0383116113b6578291612e4c855461174d565b601f8111612fee575b508891601f8411600114612f9257505f92612f87575b50505f19600383901b1c191690851b1790555b60ff60055416612e92575b50505050505050565b82939291612e9e6119fd565b935f955b612ed9575b50505050612eb59150611abd565b915192600884101561167057611c22612ecd94613dc4565b5f808080808080612e89565b8251861015612f8257612eec8684611a1a565b51948251906371aad10d60e01b82526004915f8180612f1560249b88888401528c83019061151f565b03815f8051602061422c8339815191525afa908115612f7857612f439291611c8f915f91611cdb5750614035565b958451915f198301928311611cca5750508610612f65575b9483019483612ea2565b83612f708196611a85565b955050612f5b565b85513d5f823e3d90fd5b612ea7565b015190505f80612e6b565b88949291921691855f52895f20925f5b8b828210612fd85750508411612fc0575b505050811b019055612e7e565b01515f1960f88460031b161c191690555f8080612fb3565b8385015186558b97909501949384019301612fa2565b90919250845f52885f20601f850160051c8101918a8610613036575b8594939291601f8b920160051c01915b828110613028575050612e55565b5f81558695508a910161301a565b909150819061300a565b91939582919395975061305d90605f198a8203018652885161151f565b9601920192018594939192612de3565b929190604093845161307e8161139b565b60018082526020905f82840152613096838686613b7f565b87519515159586838201528281526130ad8161139b565b845f5260038352885f20838a518092826130cd8b848151938492016114fe565b820190815203019020928151916001600160401b0383116113b6576130f2855461174d565b601f81116131fa575b5081601f841160011461319857509282939183925f9461318d575b50501b915f199060031b1c19161790555b60ff6005541661313957505050509050565b5160088110156116705761314c90613dc4565b908551936338ee73ed60e11b855260048501525f846024815f8051602061422c8339815191525afa938415611934576119069596505f946119105750613e79565b015192505f80613116565b919083601f198116875f52845f20945f905b888383106131e057505050106131c8575b505050811b019055613127565b01515f1960f88460031b161c191690555f80806131bb565b8587015188559096019594850194879350908101906131aa565b855f52825f20601f850160051c810191848610613236575b601f0160051c019085905b82811061322b5750506130fb565b5f815501859061321d565b9091508190613212565b9092919260409384516132528161139b565b6003815260205f81830152613268828587613b7f565b865190838183015280825261327c8261139b565b855f5260038152875f208189518092885161329a8184868d016114fe565b820190815203019020918051916001600160401b0383116113b65782916132c1855461174d565b601f81116133cc575b5081601f841160011461336857505f9261335d575b50508160011b915f199060031b1c19161790555b60ff6005541661330557505050509050565b5160088110156116705761331890613dc4565b90855190631623433d60e31b825260048201525f816024815f8051602061422c8339815191525afa9586156102585750611906949561231b915f91611cdb5750614035565b015190505f806132df565b5f8681528181209450601f198616915b8282106133b457505090846001959493921061339c575b505050811b0190556132f3565b01515f1960f88460031b161c191690555f808061338f565b80600186978294978701518155019601940190613378565b90919250845f52825f20601f850160051c810191848610613412575b90601f86959493920160051c01905b81811061340457506132ca565b5f81558594506001016133f7565b90915081906133e8565b91906040519161342b8361139b565b60068352600160208181860152613443858588613b7f565b6040518060408101838083015285518091526060820160608260051b84010191858801915f905b888884841061368857505050505050039161348d601f19938481018452836113ca565b875f526003815260405f20816040518092826134af8b848151938492016114fe565b820190815203019020928251926001600160401b0384116113b65783926134d6865461174d565b601f8111613634575b508092601f85116001146135d55750505f926135ca575b50505f19600383901b1c191690831b1790555b60ff6005541661351a575050505050565b906135236119fd565b90825f935b61355b575b50506135399150611abd565b915192600884101561167057611c2261355194613dc4565b5f80808080611e04565b909182518410156135c45761357d90611c8f6135778686611a1a565b51614035565b9180515f1981019081116135b057841061359d575b928101929080613528565b816135a88194611a85565b935050613592565b634e487b7160e01b5f52601160045260245ffd5b9161352d565b015190505f806134f6565b87959392919316865f52835f20935f905b82821061361b5750508411613603575b505050811b019055613509565b01515f1960f88460031b161c191690555f80806135f6565b84840151865589979095019493840193908101906135e6565b9091929350855f52815f20601f860160051c81019183871061367e575b869594939291601f8a920160051c01915b8281106136705750506134df565b5f8155879650899101613662565b9091508190613651565b9193958291939597506136a590605f198a8203018652885161151f565b960192019201859493919261346a565b919060408051926136c58461139b565b6004808552600191602083818801526136df87878a613b7f565b8451806136ee848483016114c3565b0391613702601f19938481018452836113ca565b895f5260038152865f208188518092826137228d848151938492016114fe565b820190815203019020928251926001600160401b0384116113b6578392613749865461174d565b601f81116138b6575b508092601f85116001146138575750505f9261384c575b50505f19600383901b1c191690851b1790555b60ff6005541661378f5750505050505050565b8293929161379b6119fd565b935f955b6137b15750505050612eb59150611abd565b8251861015612f82576137c48684611a1a565b5181519063348051d760e11b8252838201526024955f8288815f8051602061422c8339815191525afa918215610f7b579061380692915f92612ca45750611a42565b835190955f19820191821161383a57508610613827575b948301948361379f565b836138328196611a85565b95505061381d565b634e487b7160e01b5f90815260118552fd5b015190505f80613769565b89959392919316865f52835f20935f905b82821061389d5750508411613885575b505050811b01905561377c565b01515f1960f88460031b161c191690555f8080613878565b8484015186558b97909501949384019390810190613868565b9091929350855f52815f20601f860160051c810191838710613900575b869594939291601f8c920160051c01915b8281106138f2575050613752565b5f81558796508b91016138e4565b90915081906138d3565b9190604080519261391a8461139b565b60019081855260208281870152613932868689613b7f565b835180858101838083015284518091526060820190848601905f5b8887838310613b68575050505050039161396f601f19938481018452836113ca565b885f5260038152855f2081875180928261398f8c848151938492016114fe565b820190815203019020928251926001600160401b0384116113b65783926139b6865461174d565b601f8111613b14575b508092601f8511600114613ab55750505f92613aaa575b50505f19600383901b1c191690841b1790555b60ff600554166139fb57505050505050565b90809291613a076119fd565b925f945b613a1c57505050611c0a9150611abd565b8151851015611cff57613a2f8583611a1a565b51151581516338ee73ed60e11b8152600491828201526024955f8288815f8051602061422c8339815191525afa918215611cf55790613a7592915f92612ca45750611a42565b948351915f198301928311611cca5750508510613a97575b9382019382613a0b565b82613aa28195611a85565b945050613a8d565b015190505f806139d6565b88959392919316865f52835f20935f905b828210613afb5750508411613ae3575b505050811b0190556139e9565b01515f1960f88460031b161c191690555f8080613ad6565b8484015186558a97909501949384019390810190613ac6565b9091929350855f52815f20601f860160051c810191838710613b5e575b869594939291601f8b920160051c01915b828110613b505750506139bf565b5f81558796508a9101613b42565b9091508190613b31565b84511515865287965094850194909301920161394d565b9091815f52600491602093838552604090815f2092613bbb8351888185519782870198613bad81848c6114fe565b820190815203019020612a44565b80516008811015613ce857613c34575091613beb939187935f52868452815f2091519485938492519283916114fe565b820190815203019020928151926008841015613c21575061ff0060ff918554930151151560081b1692169061ffff191617179055565b602190634e487b7160e01b5f525260245ffd5b94935050509382516008811015613cd5578251906008821015613cc257149081613cad575b5015613c655750505050565b90613c9b613c7e613c786120e494614125565b92614125565b91855195869563b02cf71d60e01b8752860152604485019061151f565b8381036003190160248501529061151f565b8091508301511515908201511515145f613c59565b602186634e487b7160e01b5f525260245ffd5b602185634e487b7160e01b5f525260245ffd5b602188634e487b7160e01b5f525260245ffd5b60405190613d088261139b565b6004825263189bdbdb60e21b6020830152565b60405190613d288261139b565b60078252666164647265737360c81b6020830152565b60405190613d4b8261139b565b6007825266313cba32b9999960c91b6020830152565b60405190613d6e8261139b565b6006825265737472696e6760d01b6020830152565b60405190613d908261139b565b6005825264627974657360d81b6020830152565b60405190613db18261139b565b60048252636e6f6e6560e01b6020830152565b60088110156116705760018114613e705760028114613e675760038114613e5e5760048114613e3d5760058114613e1d5760068114613e1457600714613e0c5761166d613da4565b61166d613d83565b5061166d613d61565b50604051613e2a8161139b565b60038152621a5b9d60ea1b602082015290565b50604051613e4a8161139b565b60048152631d5a5b9d60e21b602082015290565b5061166d613d3e565b5061166d613d1b565b5061166d613cfb565b6024613e8b613efc92959394956140ab565b9360405195869160209661121760f11b88850152613eb2815180928a6022880191016114fe565b830190601760f91b91826022820152613ed4825180938b6023850191016114fe565b01906023820152613eed825180938987850191016114fe565b010360048101865201846113ca565b5f8051602061422c83398151915291823b1561024c576040516351ac6a3360e01b815260606004820152938492613f3790606485019061151f565b9160031990818585030160248601525f935f5490613f548261174d565b808252916001908181169081156140165750600114613fbb575b5050505083613f8c8482945f989694848a960301604485015261151f565b03925af18015613fb057613f9d5750565b6001600160401b0381116113b657604052565b6040513d5f823e3d90fd5b92939550905f80527f290decd9548b62a8d60345a988386fc84ba6bc95484008f6362f93160ef3e563925f935b8285106140005750505001019183613f8c8282613f6e565b80548585018701528a9850938501938101613fe8565b60ff191683860152505090151560051b0101925083613f8c8282613f6e565b90611a8360226040518094601160f91b908160208401526140608151809260206021870191016114fe565b82019060218201520360028101855201836113ca565b600154811015611a2e5760015f527fb10e2d527612073b26eecdfd717e6a320cf44b4afac2b0732d9fcbe2b7fa0cf601905f90565b5f600192600154915b8281106140d457604051631ff94f8360e11b815260048101859052602490fd5b6140dd81614076565b50846140f66112f5610fba604094855192838092611dd7565b14614103575084016140b4565b9194506112f5935061166d925061411990614076565b50905192838092611dd7565b80516008811015611670576141399061419c565b90602081015115908115614189575b50156141515790565b61166d60226040518361416e8295518092602080860191016114fe565b8101615b5d60f01b60208201520360028101845201826113ca565b905051600881101561167057155f614148565b60088110156116705760018114613e705760028114613e675760038114613e5e576004811461420757600581146141e45760068114613e1457600714613e0c5761166d613da4565b506040516141f18161139b565b600681526534b73a191a9b60d11b602082015290565b506040516142148161139b565b60078152663ab4b73a191a9b60c91b60208201529056fe0000000000000000000000007109709ecfa91a80626ff3989d68f67f5b1dd12da2646970667358221220cf4e49a91a9a916373ca1f977f589cb2dd8e6e963ba888f01a99d0f82c2747c964736f6c634300081800330000000000000000000000007109709ecfa91a80626ff3989d68f67f5b1dd12d290decd9548b62a8d60345a988386fc84ba6bc95484008f6362f93160ef3e563","linkReferences":{}},"methodIdentifiers":{"get(string)":"693ec85e","get(uint256,string)":"805da4ad","getChainIds()":"1d776323","getRpcUrl()":"43ec8b6a","getRpcUrl(uint256)":"7df3ef12","resolveChainId(string)":"3f3a7588","set(string,address)":"a815ff15","set(string,address[])":"88c63d45","set(string,bool)":"ba0ff22c","set(string,bool[])":"fa3c074a","set(string,bytes)":"2b29c0fa","set(string,bytes32)":"2e3196a5","set(string,bytes32[])":"e6053250","set(string,bytes[])":"c91ca7ba","set(string,int256)":"2ef8ba74","set(string,int256[])":"de0fc9b3","set(string,string)":"e942b516","set(string,string[])":"59b39526","set(string,uint256)":"8a42ebe9","set(string,uint256[])":"7b8fed81","set(uint256,string,address)":"5eba0df0","set(uint256,string,address[])":"61141c97","set(uint256,string,bool)":"b3a64001","set(uint256,string,bool[])":"e298d00b","set(uint256,string,bytes)":"4d85ce80","set(uint256,string,bytes32)":"cf1cfa99","set(uint256,string,bytes32[])":"08f7b4b2","set(uint256,string,bytes[])":"93dbe6e0","set(uint256,string,int256)":"07d79d9a","set(uint256,string,int256[])":"8be19924","set(uint256,string,string)":"65560950","set(uint256,string,string[])":"cf72a2f3","set(uint256,string,uint256)":"22dc48fd","set(uint256,string,uint256[])":"db0075df","writeUpdatesBackToFile(bool)":"d6698dc4"},"id":11}