{"abi":[{"type":"function","name":"allowance","inputs":[{"name":"owner","type":"address","internalType":"address"},{"name":"spender","type":"address","internalType":"address"},{"name":"id","type":"uint256","internalType":"uint256"}],"outputs":[{"name":"","type":"uint256","internalType":"uint256"}],"stateMutability":"view"},{"type":"function","name":"approve","inputs":[{"name":"spender","type":"address","internalType":"address"},{"name":"id","type":"uint256","internalType":"uint256"},{"name":"amount","type":"uint256","internalType":"uint256"}],"outputs":[{"name":"","type":"bool","internalType":"bool"}],"stateMutability":"nonpayable"},{"type":"function","name":"balanceOf","inputs":[{"name":"owner","type":"address","internalType":"address"},{"name":"id","type":"uint256","internalType":"uint256"}],"outputs":[{"name":"","type":"uint256","internalType":"uint256"}],"stateMutability":"view"},{"type":"function","name":"contractURI","inputs":[],"outputs":[{"name":"","type":"string","internalType":"string"}],"stateMutability":"view"},{"type":"function","name":"isOperator","inputs":[{"name":"owner","type":"address","internalType":"address"},{"name":"spender","type":"address","internalType":"address"}],"outputs":[{"name":"","type":"bool","internalType":"bool"}],"stateMutability":"view"},{"type":"function","name":"setOperator","inputs":[{"name":"spender","type":"address","internalType":"address"},{"name":"approved","type":"bool","internalType":"bool"}],"outputs":[{"name":"","type":"bool","internalType":"bool"}],"stateMutability":"nonpayable"},{"type":"function","name":"supportsInterface","inputs":[{"name":"interfaceId","type":"bytes4","internalType":"bytes4"}],"outputs":[{"name":"","type":"bool","internalType":"bool"}],"stateMutability":"view"},{"type":"function","name":"tokenURI","inputs":[{"name":"id","type":"uint256","internalType":"uint256"}],"outputs":[{"name":"","type":"string","internalType":"string"}],"stateMutability":"view"},{"type":"function","name":"transfer","inputs":[{"name":"receiver","type":"address","internalType":"address"},{"name":"id","type":"uint256","internalType":"uint256"},{"name":"amount","type":"uint256","internalType":"uint256"}],"outputs":[{"name":"","type":"bool","internalType":"bool"}],"stateMutability":"nonpayable"},{"type":"function","name":"transferFrom","inputs":[{"name":"sender","type":"address","internalType":"address"},{"name":"receiver","type":"address","internalType":"address"},{"name":"id","type":"uint256","internalType":"uint256"},{"name":"amount","type":"uint256","internalType":"uint256"}],"outputs":[{"name":"","type":"bool","internalType":"bool"}],"stateMutability":"nonpayable"},{"type":"event","name":"Approval","inputs":[{"name":"owner","type":"address","indexed":true,"internalType":"address"},{"name":"spender","type":"address","indexed":true,"internalType":"address"},{"name":"id","type":"uint256","indexed":true,"internalType":"uint256"},{"name":"amount","type":"uint256","indexed":false,"internalType":"uint256"}],"anonymous":false},{"type":"event","name":"ContractURIUpdated","inputs":[],"anonymous":false},{"type":"event","name":"OperatorSet","inputs":[{"name":"owner","type":"address","indexed":true,"internalType":"address"},{"name":"spender","type":"address","indexed":true,"internalType":"address"},{"name":"approved","type":"bool","indexed":false,"internalType":"bool"}],"anonymous":false},{"type":"event","name":"Transfer","inputs":[{"name":"caller","type":"address","indexed":false,"internalType":"address"},{"name":"sender","type":"address","indexed":true,"internalType":"address"},{"name":"receiver","type":"address","indexed":true,"internalType":"address"},{"name":"id","type":"uint256","indexed":true,"internalType":"uint256"},{"name":"amount","type":"uint256","indexed":false,"internalType":"uint256"}],"anonymous":false},{"type":"event","name":"URI","inputs":[{"name":"value","type":"string","indexed":false,"internalType":"string"},{"name":"id","type":"uint256","indexed":true,"internalType":"uint256"}],"anonymous":false},{"type":"error","name":"ERC6909InsufficientAllowance","inputs":[{"name":"spender","type":"address","internalType":"address"},{"name":"allowance","type":"uint256","internalType":"uint256"},{"name":"needed","type":"uint256","internalType":"uint256"},{"name":"id","type":"uint256","internalType":"uint256"}]},{"type":"error","name":"ERC6909InsufficientBalance","inputs":[{"name":"sender","type":"address","internalType":"address"},{"name":"balance","type":"uint256","internalType":"uint256"},{"name":"needed","type":"uint256","internalType":"uint256"},{"name":"id","type":"uint256","internalType":"uint256"}]},{"type":"error","name":"ERC6909InvalidApprover","inputs":[{"name":"approver","type":"address","internalType":"address"}]},{"type":"error","name":"ERC6909InvalidReceiver","inputs":[{"name":"receiver","type":"address","internalType":"address"}]},{"type":"error","name":"ERC6909InvalidSender","inputs":[{"name":"sender","type":"address","internalType":"address"}]},{"type":"error","name":"ERC6909InvalidSpender","inputs":[{"name":"spender","type":"address","internalType":"address"}]}],"bytecode":{"object":"0x608080604052346100165761085b908161001b8239f35b5f80fdfe6080604081815260049182361015610015575f80fd5b5f3560e01c908162fdd58e146106325750806301ffc9a7146105de578063095bcdb6146105c2578063426a84931461051e578063558a729714610461578063598af9e71461040d578063b6363cf2146103bf578063c87b56dd146102c3578063e8a3d485146101a15763fe99049a1461008c575f80fd5b3461019d57608036600319011261019d576100a561066e565b6100ad610684565b6064359160443591906001600160a01b038116338114158061017e575b6100e5575b6020866100de8787878761070b565b5160018152f35b805f5260209060028252865f20335f528252865f20855f528252865f2054975f198910610114575b50506100cf565b86891061014c57505f908152600282528681203382528252868120858252909152858120968590039096556020956100de908061010d565b8751632c51fead60e11b815233918101918252602082018a905260408201889052606082018790529081906080010390fd5b50805f526001602052855f20335f5260205260ff865f205416156100ca565b5f80fd5b503461019d575f36600319011261019d578051905f60035460018160011c90600183169283156102b9575b60209384841081146102a65783885290811561028a5750600114610234575b505050829003601f01601f191682019267ffffffffffffffff841183851017610221575082918261021d9252826106c4565b0390f35b604190634e487b7160e01b5f525260245ffd5b60035f908152929350837fc2575a0e9e593c00f959f8c92f12db2869c3395a3b0502d05e2516446f71f85b5b83851061027657505050508301015f80806101eb565b805488860183015293019284908201610260565b60ff1916878501525050151560051b84010190505f80806101eb565b602289634e487b7160e01b5f525260245ffd5b91607f16916101cc565b503461019d576020908160031936011261019d5782355f52828252805f208151925f918054906001908260011c926001811680156103b5575b85851081146103a257848952908115610384575060011461034b575b50505050829003601f01601f191682019267ffffffffffffffff841183851017610221575082918261021d9252826106c4565b909293505f52825f2091835f935b83851061037057505050508301015f808080610318565b805488860183015293019284908201610359565b60ff191688860152505050151560051b84010190505f808080610318565b60228a634e487b7160e01b5f525260245ffd5b93607f16936102fc565b503461019d578060031936011261019d576020906103db61066e565b6103e3610684565b9060018060a01b038091165f5260018452825f2091165f52825260ff815f20541690519015158152f35b503461019d57606036600319011261019d5760209061042a61066e565b610432610684565b9060018060a01b038091165f5260028452825f2091165f528252805f206044355f528252805f20549051908152f35b503461019d578060031936011261019d5761047a61066e565b6024359081151580920361019d573315610508576001600160a01b03169081156104f25760209350335f5260018452825f20825f528452825f2060ff1981541660ff831617905582519081527fceb576d9f15e4e200fdb5096d64d5dfd667e16def20c1eefd14256d8e3faa267843392a35160018152f35b8251636f65f46560e01b81525f81860152602490fd5b825163198ecd5360e31b81525f81860152602490fd5b503461019d5761052d3661069a565b909133156105ac576001600160a01b03169081156105965760209450335f5260028552835f20825f528552835f20835f52855280845f205583519081527fb3fd5071835887567a0671151121894ddccc2842f1d10bedad13e0d17cace9a7853392a45160018152f35b8351636f65f46560e01b81525f81870152602490fd5b835163198ecd5360e31b81525f81870152602490fd5b503461019d576020906100de6105d73661069a565b913361070b565b50903461019d57602036600319011261019d573563ffffffff60e01b811680910361019d57602091630f632fb360e01b8214918215610621575b50519015158152f35b6301ffc9a760e01b1491505f610618565b90503461019d578160031936011261019d576020916001600160a01b0361065761066e565b165f525f8352805f206024355f5283525f20548152f35b600435906001600160a01b038216820361019d57565b602435906001600160a01b038216820361019d57565b606090600319011261019d576004356001600160a01b038116810361019d57906024359060443590565b602080825282518183018190529093925f5b8281106106f757505060409293505f838284010152601f8019910116010190565b8181018601518482016040015285016106d6565b91926001600160a01b0380841692831561080d57169283156107f557825f5260205f8152604091825f20875f528252825f2054908482106107bd57508390855f525f8352835f20885f52835203825f2055845f525f8152815f20865f528152815f209283548181018091116107a9577f1b3d7edb2e9c0b0e7c525b20aaaef0f5940d2ed71663c7d39266ecafac7288599455825191338352820152a4565b634e487b7160e01b5f52601160045260245ffd5b83516302c6d3fb60e61b81526001600160a01b0391909116600482015260248101919091526044810184905260648101879052608490fd5b604051630b8bbd6160e41b81525f6004820152602490fd5b6040516301486a4160e71b81525f6004820152602490fdfea2646970667358221220b0da8dfc31a66da24341a602c104fc8bfca7c0b97b7d39a1f6b676382be43d9064736f6c63430008180033","linkReferences":{}},"methodIdentifiers":{"allowance(address,address,uint256)":"598af9e7","approve(address,uint256,uint256)":"426a8493","balanceOf(address,uint256)":"00fdd58e","contractURI()":"e8a3d485","isOperator(address,address)":"b6363cf2","setOperator(address,bool)":"558a7297","supportsInterface(bytes4)":"01ffc9a7","tokenURI(uint256)":"c87b56dd","transfer(address,uint256,uint256)":"095bcdb6","transferFrom(address,address,uint256,uint256)":"fe99049a"},"id":176}