{"abi":[{"type":"constructor","inputs":[{"name":"initialAdmin","type":"address","internalType":"address"}],"stateMutability":"nonpayable"},{"type":"function","name":"ADMIN_ROLE","inputs":[],"outputs":[{"name":"","type":"uint64","internalType":"uint64"}],"stateMutability":"view"},{"type":"function","name":"PUBLIC_ROLE","inputs":[],"outputs":[{"name":"","type":"uint64","internalType":"uint64"}],"stateMutability":"view"},{"type":"function","name":"canCall","inputs":[{"name":"caller","type":"address","internalType":"address"},{"name":"target","type":"address","internalType":"address"},{"name":"selector","type":"bytes4","internalType":"bytes4"}],"outputs":[{"name":"immediate","type":"bool","internalType":"bool"},{"name":"delay","type":"uint32","internalType":"uint32"}],"stateMutability":"view"},{"type":"function","name":"cancel","inputs":[{"name":"caller","type":"address","internalType":"address"},{"name":"target","type":"address","internalType":"address"},{"name":"data","type":"bytes","internalType":"bytes"}],"outputs":[{"name":"","type":"uint32","internalType":"uint32"}],"stateMutability":"nonpayable"},{"type":"function","name":"consumeScheduledOp","inputs":[{"name":"caller","type":"address","internalType":"address"},{"name":"data","type":"bytes","internalType":"bytes"}],"outputs":[],"stateMutability":"nonpayable"},{"type":"function","name":"execute","inputs":[{"name":"target","type":"address","internalType":"address"},{"name":"data","type":"bytes","internalType":"bytes"}],"outputs":[{"name":"","type":"uint32","internalType":"uint32"}],"stateMutability":"payable"},{"type":"function","name":"expiration","inputs":[],"outputs":[{"name":"","type":"uint32","internalType":"uint32"}],"stateMutability":"view"},{"type":"function","name":"getAccess","inputs":[{"name":"roleId","type":"uint64","internalType":"uint64"},{"name":"account","type":"address","internalType":"address"}],"outputs":[{"name":"since","type":"uint48","internalType":"uint48"},{"name":"currentDelay","type":"uint32","internalType":"uint32"},{"name":"pendingDelay","type":"uint32","internalType":"uint32"},{"name":"effect","type":"uint48","internalType":"uint48"}],"stateMutability":"view"},{"type":"function","name":"getNonce","inputs":[{"name":"id","type":"bytes32","internalType":"bytes32"}],"outputs":[{"name":"","type":"uint32","internalType":"uint32"}],"stateMutability":"view"},{"type":"function","name":"getRoleAdmin","inputs":[{"name":"roleId","type":"uint64","internalType":"uint64"}],"outputs":[{"name":"","type":"uint64","internalType":"uint64"}],"stateMutability":"view"},{"type":"function","name":"getRoleGrantDelay","inputs":[{"name":"roleId","type":"uint64","internalType":"uint64"}],"outputs":[{"name":"","type":"uint32","internalType":"uint32"}],"stateMutability":"view"},{"type":"function","name":"getRoleGuardian","inputs":[{"name":"roleId","type":"uint64","internalType":"uint64"}],"outputs":[{"name":"","type":"uint64","internalType":"uint64"}],"stateMutability":"view"},{"type":"function","name":"getSchedule","inputs":[{"name":"id","type":"bytes32","internalType":"bytes32"}],"outputs":[{"name":"","type":"uint48","internalType":"uint48"}],"stateMutability":"view"},{"type":"function","name":"getTargetAdminDelay","inputs":[{"name":"target","type":"address","internalType":"address"}],"outputs":[{"name":"","type":"uint32","internalType":"uint32"}],"stateMutability":"view"},{"type":"function","name":"getTargetFunctionRole","inputs":[{"name":"target","type":"address","internalType":"address"},{"name":"selector","type":"bytes4","internalType":"bytes4"}],"outputs":[{"name":"","type":"uint64","internalType":"uint64"}],"stateMutability":"view"},{"type":"function","name":"grantRole","inputs":[{"name":"roleId","type":"uint64","internalType":"uint64"},{"name":"account","type":"address","internalType":"address"},{"name":"executionDelay","type":"uint32","internalType":"uint32"}],"outputs":[],"stateMutability":"nonpayable"},{"type":"function","name":"hasRole","inputs":[{"name":"roleId","type":"uint64","internalType":"uint64"},{"name":"account","type":"address","internalType":"address"}],"outputs":[{"name":"isMember","type":"bool","internalType":"bool"},{"name":"executionDelay","type":"uint32","internalType":"uint32"}],"stateMutability":"view"},{"type":"function","name":"hashOperation","inputs":[{"name":"caller","type":"address","internalType":"address"},{"name":"target","type":"address","internalType":"address"},{"name":"data","type":"bytes","internalType":"bytes"}],"outputs":[{"name":"","type":"bytes32","internalType":"bytes32"}],"stateMutability":"view"},{"type":"function","name":"isTargetClosed","inputs":[{"name":"target","type":"address","internalType":"address"}],"outputs":[{"name":"","type":"bool","internalType":"bool"}],"stateMutability":"view"},{"type":"function","name":"labelRole","inputs":[{"name":"roleId","type":"uint64","internalType":"uint64"},{"name":"label","type":"string","internalType":"string"}],"outputs":[],"stateMutability":"nonpayable"},{"type":"function","name":"minSetback","inputs":[],"outputs":[{"name":"","type":"uint32","internalType":"uint32"}],"stateMutability":"view"},{"type":"function","name":"multicall","inputs":[{"name":"data","type":"bytes[]","internalType":"bytes[]"}],"outputs":[{"name":"results","type":"bytes[]","internalType":"bytes[]"}],"stateMutability":"nonpayable"},{"type":"function","name":"renounceRole","inputs":[{"name":"roleId","type":"uint64","internalType":"uint64"},{"name":"callerConfirmation","type":"address","internalType":"address"}],"outputs":[],"stateMutability":"nonpayable"},{"type":"function","name":"revokeRole","inputs":[{"name":"roleId","type":"uint64","internalType":"uint64"},{"name":"account","type":"address","internalType":"address"}],"outputs":[],"stateMutability":"nonpayable"},{"type":"function","name":"schedule","inputs":[{"name":"target","type":"address","internalType":"address"},{"name":"data","type":"bytes","internalType":"bytes"},{"name":"when","type":"uint48","internalType":"uint48"}],"outputs":[{"name":"operationId","type":"bytes32","internalType":"bytes32"},{"name":"nonce","type":"uint32","internalType":"uint32"}],"stateMutability":"nonpayable"},{"type":"function","name":"setGrantDelay","inputs":[{"name":"roleId","type":"uint64","internalType":"uint64"},{"name":"newDelay","type":"uint32","internalType":"uint32"}],"outputs":[],"stateMutability":"nonpayable"},{"type":"function","name":"setRoleAdmin","inputs":[{"name":"roleId","type":"uint64","internalType":"uint64"},{"name":"admin","type":"uint64","internalType":"uint64"}],"outputs":[],"stateMutability":"nonpayable"},{"type":"function","name":"setRoleGuardian","inputs":[{"name":"roleId","type":"uint64","internalType":"uint64"},{"name":"guardian","type":"uint64","internalType":"uint64"}],"outputs":[],"stateMutability":"nonpayable"},{"type":"function","name":"setTargetAdminDelay","inputs":[{"name":"target","type":"address","internalType":"address"},{"name":"newDelay","type":"uint32","internalType":"uint32"}],"outputs":[],"stateMutability":"nonpayable"},{"type":"function","name":"setTargetClosed","inputs":[{"name":"target","type":"address","internalType":"address"},{"name":"closed","type":"bool","internalType":"bool"}],"outputs":[],"stateMutability":"nonpayable"},{"type":"function","name":"setTargetFunctionRole","inputs":[{"name":"target","type":"address","internalType":"address"},{"name":"selectors","type":"bytes4[]","internalType":"bytes4[]"},{"name":"roleId","type":"uint64","internalType":"uint64"}],"outputs":[],"stateMutability":"nonpayable"},{"type":"function","name":"updateAuthority","inputs":[{"name":"target","type":"address","internalType":"address"},{"name":"newAuthority","type":"address","internalType":"address"}],"outputs":[],"stateMutability":"nonpayable"},{"type":"event","name":"OperationCanceled","inputs":[{"name":"operationId","type":"bytes32","indexed":true,"internalType":"bytes32"},{"name":"nonce","type":"uint32","indexed":true,"internalType":"uint32"}],"anonymous":false},{"type":"event","name":"OperationExecuted","inputs":[{"name":"operationId","type":"bytes32","indexed":true,"internalType":"bytes32"},{"name":"nonce","type":"uint32","indexed":true,"internalType":"uint32"}],"anonymous":false},{"type":"event","name":"OperationScheduled","inputs":[{"name":"operationId","type":"bytes32","indexed":true,"internalType":"bytes32"},{"name":"nonce","type":"uint32","indexed":true,"internalType":"uint32"},{"name":"schedule","type":"uint48","indexed":false,"internalType":"uint48"},{"name":"caller","type":"address","indexed":false,"internalType":"address"},{"name":"target","type":"address","indexed":false,"internalType":"address"},{"name":"data","type":"bytes","indexed":false,"internalType":"bytes"}],"anonymous":false},{"type":"event","name":"RoleAdminChanged","inputs":[{"name":"roleId","type":"uint64","indexed":true,"internalType":"uint64"},{"name":"admin","type":"uint64","indexed":true,"internalType":"uint64"}],"anonymous":false},{"type":"event","name":"RoleGrantDelayChanged","inputs":[{"name":"roleId","type":"uint64","indexed":true,"internalType":"uint64"},{"name":"delay","type":"uint32","indexed":false,"internalType":"uint32"},{"name":"since","type":"uint48","indexed":false,"internalType":"uint48"}],"anonymous":false},{"type":"event","name":"RoleGranted","inputs":[{"name":"roleId","type":"uint64","indexed":true,"internalType":"uint64"},{"name":"account","type":"address","indexed":true,"internalType":"address"},{"name":"delay","type":"uint32","indexed":false,"internalType":"uint32"},{"name":"since","type":"uint48","indexed":false,"internalType":"uint48"},{"name":"newMember","type":"bool","indexed":false,"internalType":"bool"}],"anonymous":false},{"type":"event","name":"RoleGuardianChanged","inputs":[{"name":"roleId","type":"uint64","indexed":true,"internalType":"uint64"},{"name":"guardian","type":"uint64","indexed":true,"internalType":"uint64"}],"anonymous":false},{"type":"event","name":"RoleLabel","inputs":[{"name":"roleId","type":"uint64","indexed":true,"internalType":"uint64"},{"name":"label","type":"string","indexed":false,"internalType":"string"}],"anonymous":false},{"type":"event","name":"RoleRevoked","inputs":[{"name":"roleId","type":"uint64","indexed":true,"internalType":"uint64"},{"name":"account","type":"address","indexed":true,"internalType":"address"}],"anonymous":false},{"type":"event","name":"TargetAdminDelayUpdated","inputs":[{"name":"target","type":"address","indexed":true,"internalType":"address"},{"name":"delay","type":"uint32","indexed":false,"internalType":"uint32"},{"name":"since","type":"uint48","indexed":false,"internalType":"uint48"}],"anonymous":false},{"type":"event","name":"TargetClosed","inputs":[{"name":"target","type":"address","indexed":true,"internalType":"address"},{"name":"closed","type":"bool","indexed":false,"internalType":"bool"}],"anonymous":false},{"type":"event","name":"TargetFunctionRoleUpdated","inputs":[{"name":"target","type":"address","indexed":true,"internalType":"address"},{"name":"selector","type":"bytes4","indexed":false,"internalType":"bytes4"},{"name":"roleId","type":"uint64","indexed":true,"internalType":"uint64"}],"anonymous":false},{"type":"error","name":"AccessManagerAlreadyScheduled","inputs":[{"name":"operationId","type":"bytes32","internalType":"bytes32"}]},{"type":"error","name":"AccessManagerBadConfirmation","inputs":[]},{"type":"error","name":"AccessManagerExpired","inputs":[{"name":"operationId","type":"bytes32","internalType":"bytes32"}]},{"type":"error","name":"AccessManagerInvalidInitialAdmin","inputs":[{"name":"initialAdmin","type":"address","internalType":"address"}]},{"type":"error","name":"AccessManagerLockedRole","inputs":[{"name":"roleId","type":"uint64","internalType":"uint64"}]},{"type":"error","name":"AccessManagerNotReady","inputs":[{"name":"operationId","type":"bytes32","internalType":"bytes32"}]},{"type":"error","name":"AccessManagerNotScheduled","inputs":[{"name":"operationId","type":"bytes32","internalType":"bytes32"}]},{"type":"error","name":"AccessManagerUnauthorizedAccount","inputs":[{"name":"msgsender","type":"address","internalType":"address"},{"name":"roleId","type":"uint64","internalType":"uint64"}]},{"type":"error","name":"AccessManagerUnauthorizedCall","inputs":[{"name":"caller","type":"address","internalType":"address"},{"name":"target","type":"address","internalType":"address"},{"name":"selector","type":"bytes4","internalType":"bytes4"}]},{"type":"error","name":"AccessManagerUnauthorizedCancel","inputs":[{"name":"msgsender","type":"address","internalType":"address"},{"name":"caller","type":"address","internalType":"address"},{"name":"target","type":"address","internalType":"address"},{"name":"selector","type":"bytes4","internalType":"bytes4"}]},{"type":"error","name":"AccessManagerUnauthorizedConsume","inputs":[{"name":"target","type":"address","internalType":"address"}]},{"type":"error","name":"AddressEmptyCode","inputs":[{"name":"target","type":"address","internalType":"address"}]},{"type":"error","name":"FailedCall","inputs":[]},{"type":"error","name":"InsufficientBalance","inputs":[{"name":"balance","type":"uint256","internalType":"uint256"},{"name":"needed","type":"uint256","internalType":"uint256"}]},{"type":"error","name":"SafeCastOverflowedUintDowncast","inputs":[{"name":"bits","type":"uint8","internalType":"uint8"},{"name":"value","type":"uint256","internalType":"uint256"}]}],"bytecode":{"object":"0x6080346200027b57601f6200256b38819003918201601f1916830192916001600160401b039190828511848610176200014657808492604096875283396020938491810103126200027b57516001600160a01b03811692908390036200027b57821562000264575f805260018152835f20835f52815265ffffffffffff9081855f2054161590815f146200016e578262000099426200027f565b16918383116200015a578291875194888601968688109088111762000146579588529284525f848401818152818052600185528882208883528552888220955186549151600160301b600160a01b0360309190911b166001600160a01b0319909216908816600160301b600160a01b031916171790945592935f805160206200254b8339815191529360609390915b885193878552169083015286820152a3516122989081620002b38239f35b634e487b7160e01b5f52604160045260245ffd5b634e487b7160e01b5f52601160045260245ffd5b92505f805260018352845f20845f52835281855f20546200018f426200027f565b63ffffffff9283929116607082901c861611620002595760301c16905b818116801562000251578181116200015a575b1683620001cc426200027f565b1601918383116200015a575f8080526001865287812087825286528781208054600160301b600160a01b031916858a1b6dffffffffffff00000000000000001694881b67ffffffff00000000169490941760301b600160301b600160a01b03169390931790925590935f805160206200254b8339815191529360609392919062000128565b505f620001bf565b60501c1690620001ac565b8351630409d6d160e11b81525f6004820152602490fd5b5f80fd5b65ffffffffffff9081811162000293571690565b604490604051906306dfcc6560e41b8252603060048301526024820152fdfe60406080815260049081361015610014575f80fd5b5f905f3560e01c806308d6122d146114f05780630b0a93ba146114a757806312be872714611451578063167bd395146113c857806318ff183c1461133e5780631cff79cd146111ec57806325c471a014610f305780633078f11414610ed757806330cae18714610e2d5780633adc277a14610e065780633ca7c02a14610de55780634136a33c14610db45780634665096d14610d975780634c1da1e214610d6d5780635296295214610cac578063530dd45614610c5e5780636d5115bd14610c0157806375b238fc14610be7578063853551b814610b3457806394c7d7ee14610a6f578063a166aa8914610a2c578063a64d95ce14610935578063abd9bd2a14610910578063ac9650d814610738578063b7009613146106ed578063b7d2b162146106bc578063cc1b6c811461069f578063d1f856ee1461064f578063d22b59891461058b578063d6bb62c6146103c7578063f801a698146101d15763fe0776f51461017e575f80fd5b346101cd57806003193601126101cd57610196611626565b61019e6115e0565b91336001600160a01b038416036101be5750906101ba91611c85565b5080f35b51635f159e6360e01b81528490fd5b5080fd5b5091346101cd5760603660031901126101cd576101ec6115ca565b6024356001600160401b0381116103c35761020a9036908401611652565b92906044359365ffffffffffff958686168096036103c05761022e82848733611abe565b96905061023a42612230565b61024c63ffffffff80991680926119e8565b901580156103ab575b61035c57908880921690818082119118021816936102758385883361185c565b9788835260026020528983205416801515908161034b575b506103345750926103257f82a2da5dee54ea8021c6545b4444620291e07ee83be6dd57edb175062715f3b49369ffffffff0000000000009796938a878b80995260026020522080548560018b8360301c16019a8b169b8c9b60301b169169ffffffffffffffffffff1916171790558a51948594855233602086015260018060a01b03168b85015260806060850152608084019161183c565b0390a382519182526020820152f35b885163813e945960e01b8152908101889052602490fd5b6103559150611c5c565b155f61028d565b50505061036d87916103a793611b05565b90516381c6f24b60e01b8152339381019384526001600160a01b0390941660208401526001600160e01b0319166040830152829160600190565b0390fd5b50811515801561025557508881168210610255565b80fd5b8380fd5b50829034610587576103f3906103dc366116d5565b6103eb81839499959793611b05565b92888761185c565b938483526020966002885265ffffffffffff91828686205416155f1461042a57855163060a299b60e41b8152808901889052602490fd5b9396949594936001600160a01b039081169133830361049a575b505050505050907fbd9ac67a6e2f6463b80927326310338bcbb4bdb7936ce1365ea3e01067e7b9f7918084526002855263ffffffff82852080549065ffffffffffff198216905560301c16928392519480a38152f35b5f805260018a52875f20335f528a52875f20546104c56001600160701b038683169260301c16611c22565b505050801515948561056f575b505016918288528789528688209363ffffffff60e01b16938489528952610529336105246001600160401b038a8c2054166001600160401b038091165f526001602052600160405f20015460401c1690565b611991565b5090159081610566575b5061053f578080610444565b60849450855193630ff89d4760e21b85523390850152602484015260448301526064820152fd5b90501589610533565b9091945061057c42612230565b161015928a806104d2565b8280fd5b50346101cd57806003193601126101cd577fa56b76017453f399ec2327ba00375dbfb1fd070ff854341ad6191e6a2e2de19c6105c56115ca565b916105ce6116c2565b926105d7611a16565b60018060a01b031692838552846020526106496001600160701b039261060583856001848b200154166121ac565b94878952886020526001838a200191166001600160701b0319825416179055519283928390929165ffffffffffff60209163ffffffff604085019616845216910152565b0390a280f35b50346101cd57806003193601126101cd5761069b9061067d61066f611626565b6106776115e0565b90611991565b9151901515815263ffffffff90911660208201529081906040820190565b0390f35b50346101cd57816003193601126101cd5760209051620697808152f35b50346101cd573660031901126103c0576101ba6106d7611626565b6106df6115e0565b906106e8611a16565b611c85565b5090346103c05760603660031901126103c057506107096115ca565b906107126115e0565b916044356001600160e01b0319811681036107345761069b9361067d926118e5565b5f80fd5b5091346101cd57602080600319360112610587576001600160401b0390823582811161090c5761076b90369085016115f6565b9092865183810195818710838811176108f9575085889497959852848152610792836118a6565b9561079f85519788611743565b8387526107ab846118a6565b601f1999908a01875b8181106108ea575050865b85811061083c5750505050505080519380850191818652845180935281818701918460051b880101950193965b8388106107f95786860387f35b9091929394838080600193603f198b820301875285601f8b5161082781518092818752878088019101611722565b011601019701930197019690939291936107ec565b8060059b989a979b1b820135601e19833603018112156108e65782018035908682116108e25788019080360382136108e2578b80600194938f6108ad8d6108c1968c8c6108a1955195838794868601998a37840191858301938a855251938491611722565b01038084520182611743565b5190305af46108ba611bf3565b9030612149565b6108cb828c6118bd565b526108d6818b6118bd565b500199959896996107bf565b8b80fd5b8a80fd5b60608a82018c01528a016107b4565b604190634e487b7160e01b5f525260245ffd5b8480fd5b50346101cd5760209061092e610925366116d5565b9291909161185c565b9051908152f35b50346101cd57806003193601126101cd5761094e611626565b906109576116c2565b93610960611a16565b6001600160401b03809316928314610a1757507ffeb69018ee8b8fd50ea86348f1267d07673379f72cffdeccec63853ee8ce8b48908483855260016020526106496109bd826001600160701b036001868a20015460801c166121ac565b93908688526001602052600182892001908154906001600160701b0360801b9060801b16906001600160701b0360801b1916179055519283928390929165ffffffffffff60209163ffffffff604085019616845216910152565b82602492519163061c6a4360e21b8352820152fd5b50346101cd5760203660031901126101cd5760209160ff9060019083906001600160a01b03610a596115ca565b16815280865220015460701c1690519015158152f35b5082903461058757610a803661167f565b9390928051638fb3603760e01b908181526020818581335afa908115610b2a578891610ae3575b506001600160e01b03191603610acc57856101ba610ac78787338861185c565b611b1b565b602492505190630641fee960e31b82523390820152fd5b90506020813d602011610b22575b81610afe60209383611743565b81010312610b1e57516001600160e01b031981168103610b1e5788610aa7565b8780fd5b3d9150610af1565b83513d8a823e3d90fd5b5091346101cd57826003193601126101cd57610b4e611626565b6001600160401b039160243583811161090c5790610b70849236908301611652565b929093610b7b611a16565b16938415908115610bdd575b50610bc657506106497f1256f5b5ecb89caec12db449738f2fbcd1ba5806cf38f35413f4e5c15bf6a4509394955192839260208452602084019161183c565b855163061c6a4360e21b8152908101849052602490fd5b905084145f610b87565b50346101cd57816003193601126101cd5751908152602090f35b50346101cd57806003193601126101cd57610c1a6115ca565b6024359063ffffffff60e01b8216809203610734576001600160a01b031683526020838152828420918452908152918190205490516001600160401b039091168152f35b50346101cd5760203660031901126101cd576020906001600160401b03610ca4610c86611626565b6001600160401b038091165f526001602052600160405f2001541690565b915191168152f35b50829034610587578060031936011261058757610cc7611626565b90610cd061163c565b90610cd9611a16565b6001600160401b038093169384158015610d64575b610d4f575083855260016020526001818620019067ffffffffffffffff60401b838354921b169067ffffffffffffffff60401b191617905516907f7a8059630b897b5de4c08ade69f8b90c3ead1f8596d62d10b6c4d14a0afb4ae28380a380f35b84602492519163061c6a4360e21b8352820152fd5b50838514610cee565b50346101cd5760203660031901126101cd5760209063ffffffff610ca4610d926115ca565b611810565b50346101cd57816003193601126101cd576020905162093a808152f35b508234610587576020366003190112610587578160209363ffffffff9235815260028552205460301c169051908152f35b50346101cd57816003193601126101cd57602090516001600160401b038152f35b5090346103c05760203660031901126103c0575065ffffffffffff610ca4602093356117e6565b508234610587578160031936011261058757610e47611626565b610e4f61163c565b92610e58611a16565b6001600160401b038092169283158015610ece575b610eb9575060019083865281602052852001921691826001600160401b03198254161790557f1fd6dd7631312dfac2205b52913f99de03b4d7e381d5d27d3dbfe0713e6e63408380a380f35b83602492519163061c6a4360e21b8352820152fd5b50828414610e6d565b50346101cd57806003193601126101cd57608090610f04610ef6611626565b610efe6115e0565b90611793565b91849194519465ffffffffffff809516865263ffffffff80921660208701521690840152166060820152f35b5082903461058757606036600319011261058757610f4c611626565b90610f556115e0565b926044359163ffffffff9182841680940361073457610f72611a16565b6001600160401b038095169485885260019060209282845284610fa78b856001600160701b0393849220015460801c16611c22565b505093838a146111d557898c52808652868c209a60018060a01b03169a8b5f52865265ffffffffffff9485885f2054161598895f146110a55790610ff691610fee42612230565b9116906119e8565b9387519388850191858310908311176108f95750926060989694928a8d8f9a7ff98448b987f1428e0e230e1f3c6e2ce15b5693eaf31827fbd0b1ec4b424ae7cf9d9b8f9661109497839c9a84528a8a1688528b880195865282528a5220905f52875285885f2093511665ffffffffffff198454161783555116600160301b600160a01b0382549160301b1690600160301b600160a01b031916179055565b83519586521690840152820152a380f35b9290506110ca919394508a8d52838752878d208c5f528752875f205460301c16611c22565b5050928184168c8b8b83115f146111995750508990039082821161118657508b7ff98448b987f1428e0e230e1f3c6e2ce15b5693eaf31827fbd0b1ec4b424ae7cf999795938b61112d60609b999795611181955b1661112842612230565b6119e8565b92528552858d208c5f528552855f209065ffffffffffff60401b67ffffffff000000008295881b1691881b16178817600160301b600160a01b0382549160301b1690600160301b600160a01b031916179055565b611094565b601190634e487b7160e01b5f525260245ffd5b61118193507ff98448b987f1428e0e230e1f3c6e2ce15b5693eaf31827fbd0b1ec4b424ae7cf9b99979591925061112d60609b9997955f61111e565b865163061c6a4360e21b81528084018b9052602490fd5b50906111f73661167f565b939194909261120885858833611abe565b94901580611330575b611320576112218682893361185c565b95829663ffffffff80971615801590611307575b6112f5575b506003549361127161124c8385611b05565b6001600160a01b038b165f9081526001600160e01b0319919091166020526040902090565b60035561127d82611778565b9161128a87519384611743565b8083526020830193368282011161073457815f926020928737840101523447106112d857509180602098926112cd94519034855af16112c7611bf3565b91612149565b506003555191168152f35b604490864790519163cf47918160e01b8352820152346024820152fd5b611300919750611b1b565b955f61123a565b5065ffffffffffff611318826117e6565b161515611235565b826103a78561036d898b95611b05565b5063ffffffff851615611211565b508290346107345780600319360112610734576113596115ca565b916113626115e0565b61136a611a16565b6001600160a01b0393841693843b156107345760245f928386519788948593637a9e5e4b60e01b855216878401525af180156113be576113a8578380f35b909192506001600160401b0383116108f9575052005b82513d5f823e3d90fd5b50346107345780600319360112610734576113e16115ca565b60243590811515809203610734577f90d4e7bb7e5d933792b3562e1741306f8be94837e1348dacef9b6f1df56eb1389160209161141c611a16565b6001600160a01b03165f818152808452859020600101805460ff60701b1916607084901b60ff60701b161790559351908152a2005b5034610734576020366003190112610734576020906001600160401b03611476611626565b165f526001825263ffffffff61149d6001600160701b036001845f20015460801c16611c22565b5050915191168152f35b5034610734576020366003190112610734576020906001600160401b03610ca46114cf611626565b6001600160401b038091165f526001602052600160405f20015460401c1690565b5082346107345760603660031901126107345761150b6115ca565b906024356001600160401b03918282116107345761152b913691016115f6565b9060443592831680930361073457611544939193611a16565b6001600160a01b03909116905f5b84811061155b57005b8060051b8201359063ffffffff60e01b82168092036107345784847f9ea6790c7dadfd01c9f8b9762b3682607af2c7e79e05a9f9fdf5580dde949151600194825f526020905f82528b5f20815f5282528b5f20856001600160401b03198254161790558b51908152a301611552565b600435906001600160a01b038216820361073457565b602435906001600160a01b038216820361073457565b9181601f84011215610734578235916001600160401b038311610734576020808501948460051b01011161073457565b600435906001600160401b038216820361073457565b602435906001600160401b038216820361073457565b9181601f84011215610734578235916001600160401b038311610734576020838186019501011161073457565b906040600319830112610734576004356001600160a01b03811681036107345791602435906001600160401b038211610734576116be91600401611652565b9091565b6024359063ffffffff8216820361073457565b6060600319820112610734576001600160a01b03916004358381168103610734579260243590811681036107345791604435906001600160401b038211610734576116be91600401611652565b5f5b8381106117335750505f910152565b8181015183820152602001611724565b90601f801991011681019081106001600160401b0382111761176457604052565b634e487b7160e01b5f52604160045260245ffd5b6001600160401b03811161176457601f01601f191660200190565b6001600160401b03165f9081526001602090815260408083206001600160a01b039094168352929052205465ffffffffffff916117dc603083901c6001600160701b0316611c22565b9490931693909291565b5f52600260205265ffffffffffff60405f20541661180381611c5c565b1561180d57505f90565b90565b60018060a01b03165f525f6020526118376001600160701b03600160405f20015416611c22565b505090565b908060209392818452848401375f828201840152601f01601f1916010190565b6118926118a0929493604051948593602085019760018060a01b038092168952166040850152606080850152608084019161183c565b03601f198101835282611743565b51902090565b6001600160401b0381116117645760051b60200190565b80518210156118d15760209160051b010190565b634e487b7160e01b5f52603260045260245ffd5b91909160018060a01b038084165f525f60205260405f209060ff600183015460701c165f146119195750505050505f905f90565b8216300361194f5750506003546001600160a01b039092165f9081526001600160e01b0319909116602052604090205b14905f90565b9091611977935063ffffffff60e01b165f526020526001600160401b0360405f205416611991565b91901561198a5763ffffffff8216159190565b5f91508190565b906001600160401b03808316036119ab5750506001905f90565b6119b491611793565b5050919065ffffffffffff80911680151591826119d2575b50509190565b9091506119de42612230565b1610155f806119cc565b91909165ffffffffffff80809416911601918211611a0257565b634e487b7160e01b5f52601160045260245ffd5b611a203633611d24565b9015611a295750565b63ffffffff16611a66576044611a3e36611e23565b5060405163f07e038f60e01b81523360048201526001600160401b0390911660248201529050fd5b611abb6040516020810190338252306040820152606080820152366080820152365f60a08301375f60a03683010152611ab360a082601f19601f3601168101036080810184520182611743565b519020611b1b565b50565b909291906001600160a01b0384163003611adc576116be9350611dd4565b9192906004841015611af257505050505f905f90565b6116be93611aff91611b05565b916118e5565b9060041161073457356001600160e01b03191690565b805f52600260205260405f205465ffffffffffff9063ffffffff8282169160301c169181155f14611b5f5760405163060a299b60e41b815260048101859052602490fd5b611b6842612230565b16811115611b8957604051630c65b5bd60e11b815260048101849052602490fd5b611b9590929192611c5c565b611bdb578190805f52600260205260405f2065ffffffffffff1981541690557f76a2a46953689d4861a5d3f6ed883ad7e6af674a21f8e162707159fc9dde614d5f80a390565b60249060405190631e2975b960e21b82526004820152fd5b3d15611c1d573d90611c0482611778565b91611c126040519384611743565b82523d5f602084013e565b606090565b611c2b42612230565b63ffffffff8281169265ffffffffffff604082901c811693168311611c55575091925f9250829150565b60201c1692565b62093a8065ffffffffffff8092160190808211611a025780611c7d42612230565b169116111590565b6001600160401b03809116908114611d0c57805f52600160205260405f209160018060a01b031691825f5260205265ffffffffffff60405f20541615611d0657805f52600160205260405f20825f526020525f60408120557ff229baa593af28c41b1d16b748cd7688f0c83aaf92d4be41c44005defe84c1665f80a3600190565b50505f90565b6024906040519063061c6a4360e21b82526004820152fd5b9060048110611d7f576001600160a01b0382163014611dab57611d4690611e23565b9290911580611d90575b611d8757611d5d91611991565b9015611d7f5763ffffffff808093169116908180821191180218169081159190565b50505f905f90565b5050505f905f90565b50305f525f60205260ff600160405f20015460701c16611d50565b905060041161073457600354305f90815280356001600160e01b03191660205260409020611949565b919060048210611d87576001600160a01b0383163014611df85790611d4691611fbb565b611e029250611b05565b600354305f9081526001600160e01b03199092166020526040909120611949565b60048110611fb25780600411610734575f356001600160e01b031916906310a6aa3760e31b82148015611fa2575b8015611f92575b8015611f82575b8015611f72575b611f675763063fc60f60e21b82148015611f57575b8015611f47575b611f185763012e238d60e51b82148015611f08575b611ec35750305f525f60205260405f20905f526020526001600160401b0360405f205416905f91905f90565b9050602411610734576004356001600160401b038116810361073457611f01906001600160401b038091165f526001602052600160405f2001541690565b6001915f90565b50635be958b160e11b8214611e97565b9050602411610734576004356001600160a01b0381169081900361073457611f3f90611810565b6001915f9190565b506308d6122d60e01b8214611e82565b5063167bd39560e01b8214611e7b565b50506001905f905f90565b5063d22b598960e01b8214611e66565b50635326cae760e11b8214611e5f565b5063294b14a960e11b8214611e58565b506330cae18760e01b8214611e51565b505f905f905f90565b6004821061213f576001600160e01b0319611fd68383611b05565b16916310a6aa3760e31b8314801561212f575b801561211f575b801561210f575b80156120ff575b6120f35763063fc60f60e21b831480156120e3575b80156120d3575b6120ac5763012e238d60e51b8314801561209c575b61205c575050305f525f60205260405f20905f526020526001600160401b0360405f205416905f91905f90565b90915060241161073457600401356001600160401b038116810361073457611f01906001600160401b038091165f526001602052600160405f2001541690565b50635be958b160e11b831461202f565b909150602411610734576004013560018060a01b03811680910361073457611f3f90611810565b506308d6122d60e01b831461201a565b5063167bd39560e01b8314612013565b5050506001905f905f90565b5063d22b598960e01b8314611ffe565b50635326cae760e11b8314611ff7565b5063294b14a960e11b8314611ff0565b506330cae18760e01b8314611fe9565b50505f905f905f90565b90612170575080511561215e57602081519101fd5b60405163d6bda27560e01b8152600490fd5b815115806121a3575b612181575090565b604051639996b31560e01b81526001600160a01b039091166004820152602490fd5b50803b15612179565b6121b890929192611c22565b50509163ffffffff80911690818185168181115f1461221a5703818111611a02578167ffffffff0000000092612200925b166206978081808211911802181661112842612230565b9360201b1665ffffffffffff60401b8460401b1617179190565b50506122008167ffffffff00000000925f6121e9565b65ffffffffffff90818111612243571690565b604490604051906306dfcc6560e41b8252603060048301526024820152fdfea26469706673582212202ce3393781cf7ba47dfa28bc6d0ef1916617a0f880c3cb92f1948b18ed14705964736f6c63430008180033f98448b987f1428e0e230e1f3c6e2ce15b5693eaf31827fbd0b1ec4b424ae7cf","linkReferences":{}},"methodIdentifiers":{"ADMIN_ROLE()":"75b238fc","PUBLIC_ROLE()":"3ca7c02a","canCall(address,address,bytes4)":"b7009613","cancel(address,address,bytes)":"d6bb62c6","consumeScheduledOp(address,bytes)":"94c7d7ee","execute(address,bytes)":"1cff79cd","expiration()":"4665096d","getAccess(uint64,address)":"3078f114","getNonce(bytes32)":"4136a33c","getRoleAdmin(uint64)":"530dd456","getRoleGrantDelay(uint64)":"12be8727","getRoleGuardian(uint64)":"0b0a93ba","getSchedule(bytes32)":"3adc277a","getTargetAdminDelay(address)":"4c1da1e2","getTargetFunctionRole(address,bytes4)":"6d5115bd","grantRole(uint64,address,uint32)":"25c471a0","hasRole(uint64,address)":"d1f856ee","hashOperation(address,address,bytes)":"abd9bd2a","isTargetClosed(address)":"a166aa89","labelRole(uint64,string)":"853551b8","minSetback()":"cc1b6c81","multicall(bytes[])":"ac9650d8","renounceRole(uint64,address)":"fe0776f5","revokeRole(uint64,address)":"b7d2b162","schedule(address,bytes,uint48)":"f801a698","setGrantDelay(uint64,uint32)":"a64d95ce","setRoleAdmin(uint64,uint64)":"30cae187","setRoleGuardian(uint64,uint64)":"52962952","setTargetAdminDelay(address,uint32)":"d22b5989","setTargetClosed(address,bool)":"167bd395","setTargetFunctionRole(address,bytes4[],uint64)":"08d6122d","updateAuthority(address,address)":"18ff183c"},"id":63}