{"abi":[{"type":"constructor","inputs":[{"name":"name","type":"string","internalType":"string"}],"stateMutability":"nonpayable"},{"type":"function","name":"eip712Domain","inputs":[],"outputs":[{"name":"fields","type":"bytes1","internalType":"bytes1"},{"name":"name","type":"string","internalType":"string"},{"name":"version","type":"string","internalType":"string"},{"name":"chainId","type":"uint256","internalType":"uint256"},{"name":"verifyingContract","type":"address","internalType":"address"},{"name":"salt","type":"bytes32","internalType":"bytes32"},{"name":"extensions","type":"uint256[]","internalType":"uint256[]"}],"stateMutability":"view"},{"type":"function","name":"execute","inputs":[{"name":"request","type":"tuple","internalType":"struct ERC2771Forwarder.ForwardRequestData","components":[{"name":"from","type":"address","internalType":"address"},{"name":"to","type":"address","internalType":"address"},{"name":"value","type":"uint256","internalType":"uint256"},{"name":"gas","type":"uint256","internalType":"uint256"},{"name":"deadline","type":"uint48","internalType":"uint48"},{"name":"data","type":"bytes","internalType":"bytes"},{"name":"signature","type":"bytes","internalType":"bytes"}]}],"outputs":[],"stateMutability":"payable"},{"type":"function","name":"executeBatch","inputs":[{"name":"requests","type":"tuple[]","internalType":"struct ERC2771Forwarder.ForwardRequestData[]","components":[{"name":"from","type":"address","internalType":"address"},{"name":"to","type":"address","internalType":"address"},{"name":"value","type":"uint256","internalType":"uint256"},{"name":"gas","type":"uint256","internalType":"uint256"},{"name":"deadline","type":"uint48","internalType":"uint48"},{"name":"data","type":"bytes","internalType":"bytes"},{"name":"signature","type":"bytes","internalType":"bytes"}]},{"name":"refundReceiver","type":"address","internalType":"address payable"}],"outputs":[],"stateMutability":"payable"},{"type":"function","name":"nonces","inputs":[{"name":"owner","type":"address","internalType":"address"}],"outputs":[{"name":"","type":"uint256","internalType":"uint256"}],"stateMutability":"view"},{"type":"function","name":"verify","inputs":[{"name":"request","type":"tuple","internalType":"struct ERC2771Forwarder.ForwardRequestData","components":[{"name":"from","type":"address","internalType":"address"},{"name":"to","type":"address","internalType":"address"},{"name":"value","type":"uint256","internalType":"uint256"},{"name":"gas","type":"uint256","internalType":"uint256"},{"name":"deadline","type":"uint48","internalType":"uint48"},{"name":"data","type":"bytes","internalType":"bytes"},{"name":"signature","type":"bytes","internalType":"bytes"}]}],"outputs":[{"name":"","type":"bool","internalType":"bool"}],"stateMutability":"view"},{"type":"event","name":"EIP712DomainChanged","inputs":[],"anonymous":false},{"type":"event","name":"ExecutedForwardRequest","inputs":[{"name":"signer","type":"address","indexed":true,"internalType":"address"},{"name":"nonce","type":"uint256","indexed":false,"internalType":"uint256"},{"name":"success","type":"bool","indexed":false,"internalType":"bool"}],"anonymous":false},{"type":"error","name":"ERC2771ForwarderExpiredRequest","inputs":[{"name":"deadline","type":"uint48","internalType":"uint48"}]},{"type":"error","name":"ERC2771ForwarderInvalidSigner","inputs":[{"name":"signer","type":"address","internalType":"address"},{"name":"from","type":"address","internalType":"address"}]},{"type":"error","name":"ERC2771ForwarderMismatchedValue","inputs":[{"name":"requestedValue","type":"uint256","internalType":"uint256"},{"name":"msgValue","type":"uint256","internalType":"uint256"}]},{"type":"error","name":"ERC2771UntrustfulTarget","inputs":[{"name":"target","type":"address","internalType":"address"},{"name":"forwarder","type":"address","internalType":"address"}]},{"type":"error","name":"FailedCall","inputs":[]},{"type":"error","name":"InsufficientBalance","inputs":[{"name":"balance","type":"uint256","internalType":"uint256"},{"name":"needed","type":"uint256","internalType":"uint256"}]},{"type":"error","name":"InvalidAccountNonce","inputs":[{"name":"account","type":"address","internalType":"address"},{"name":"currentNonce","type":"uint256","internalType":"uint256"}]},{"type":"error","name":"InvalidShortString","inputs":[]},{"type":"error","name":"StringTooLong","inputs":[{"name":"str","type":"string","internalType":"string"}]}],"bytecode":{"object":"0x61016060409080825234620001af57620013aa8038038091620000238285620001b3565b833981016020908183820312620001af5782516001600160401b0393848211620001af57019181601f84011215620001af578251928484116200019b5785519362000078601f8201601f1916840186620001b3565b80855282850193838284010111620001af578383620000989301620001d7565b845190858201828110868211176200019b57865260018252808201603160f81b8152620000c585620001fa565b93610120948552620000d784620003a7565b95610140968752519020928360e05251902095610100968088524660a0528151928301937f8b73c3c69bb8fe3d512ecc4cf759cc79239f7b179b0ffacaa9a75d522b39400f85528284015260608301524660808301523060a083015260a0825260c0820195828710908711176200019b578590525190206080523060c052610eba9384620004f0853960805184610d05015260a05184610dd1015260c05184610ccf015260e05184610d5401525183610d7a015251826105450152518161056f0152f35b634e487b7160e01b5f52604160045260245ffd5b5f80fd5b601f909101601f19168101906001600160401b038211908210176200019b57604052565b5f5b838110620001e95750505f910152565b8181015183820152602001620001d9565b805160209081811015620002775750601f8251116200023557808251920151908083106200022757501790565b825f19910360031b1b161790565b604490620002699260405193849263305a27a960e01b845280600485015282519283918260248701528686019101620001d7565b601f01601f19168101030190fd5b906001600160401b0382116200019b575f54926001938481811c911680156200039c575b838210146200038857601f811162000352575b5081601f8411600114620002ec57509282939183925f94620002e0575b50501b915f199060031b1c1916175f5560ff90565b015192505f80620002cb565b919083601f1981165f8052845f20945f905b888383106200033757505050106200031e575b505050811b015f5560ff90565b01515f1960f88460031b161c191690555f808062000311565b858701518855909601959485019487935090810190620002fe565b5f805284601f845f20920160051c820191601f860160051c015b8281106200037c575050620002ae565b5f81550185906200036c565b634e487b7160e01b5f52602260045260245ffd5b90607f16906200029b565b805160209081811015620003d45750601f8251116200023557808251920151908083106200022757501790565b9192916001600160401b0381116200019b5760019182548381811c91168015620004e4575b828210146200038857601f8111620004ae575b5080601f83116001146200044a5750819293945f926200043e575b50505f19600383901b1c191690821b17905560ff90565b015190505f8062000427565b90601f19831695845f52825f20925f905b8882106200049657505083859697106200047d575b505050811b01905560ff90565b01515f1960f88460031b161c191690555f808062000470565b8087859682949686015181550195019301906200045b565b835f5283601f835f20920160051c820191601f850160051c015b828110620004d85750506200040c565b5f8155018490620004c8565b90607f1690620003f956fe60406080815260049081361015610014575f80fd5b5f3560e01c806319d8d38c146106955780637ecebe001461064c57806384b0196e1461052e578063ccf96b4a1461025d5763df905caf14610053575f80fd5b61005c366106da565b8181013590813403610241575f916100738261081a565b92919082156102015781156101d6578015610197578261018f575b5081610187575b506100b2575b505050156100a557005b5163d6bda27560e01b8152fd5b9091925060018060a01b031690815f5260026020525f80858120928354936001850190556060860135956100e8602082016107f3565b9161010661013d60346100fe60a0860186610a18565b9390956107f3565b928c5193818592602084019889378201906bffffffffffffffffffffffff199060601b16602082015203601481018452018261077a565b519288f192603f5a91041161018557837f842fb24a83793558587a3dab2be7674da4a51d09c5542d6dd354e5d0ea70813c9181519081528415156020820152a25f808061009b565bfe5b90505f610095565b91505f61008e565b83896101d28a6101a68a6107f3565b9051636422d02b60e11b81526001600160a01b0394851693810193845293166020830152829160400190565b0390fd5b6024888a65ffffffffffff6101ed60808b01610807565b9251634a777ac560e11b8152921690820152fd5b88886101d261021260208a016107f3565b915163d2650cd160e01b81526001600160a01b0390921692820192835230602084015290918291604090910190565b5090516370647f7960e01b815291820152346024820152604490fd5b50908160031936011261052a57803567ffffffffffffffff80821161052a573660238301121561052a578183013590811161052a576024808301928136918460051b01011161052a5780356001600160a01b03818116939184900361052a575f9485928392915b81841061036c57505050503481036103505750826102de57005b82471061033557505f80809381935af1913d1561032d573d9261030084610a4b565b9361030d8351958661077a565b84523d5f602086013e5b1561031e57005b8251156100a557825160208401fd5b606092610317565b90506044934790519363cf47918160e01b8552840152820152fd5b60449185918751926370647f7960e01b84528301523490820152fd5b90919293610388908a61038087868661079c565b0135906107d2565b9361039481848461079c565b8a5f91868a6103a28361081a565b93156104cb575b826104c3575b50816104bb575b506103ec575b50505050156103d1575b6001019291906102c4565b966103e46001918b6103808b878761079c565b9790506103c6565b90919293501690815f526020600281525f80858120938454946001860190556060808201359761041d8684016107f3565b908661046f603461043160a0880188610a18565b93909661043d896107f3565b9085875196879485019a8b378301916bffffffffffffffffffffffff19911b168c82015203601481018452018261077a565b519301359089f193603f5a910411610185577f842fb24a83793558587a3dab2be7674da4a51d09c5542d6dd354e5d0ea70813c918e91825191825285151590820152a28a5f86816103bc565b90505f6103b6565b91505f6103af565b9193509193945082156105185781156105015780156104f057918f9493918a936103a9565b5050508b6101d28e6101a6856107f3565b508a8f8f65ffffffffffff6101ed60808901610807565b508d8f6101d2610212602088016107f3565b5f80fd5b50903461052a575f36600319011261052a576105697f0000000000000000000000000000000000000000000000000000000000000000610a9d565b916105937f0000000000000000000000000000000000000000000000000000000000000000610bc1565b815191602091602084019484861067ffffffffffffffff87111761063957506105ee82602092876105e199989795525f85528151988998600f60f81b8a5260e0868b015260e08a019061070c565b918883039089015261070c565b914660608701523060808701525f60a087015285830360c087015251918281520192915f5b82811061062257505050500390f35b835185528695509381019392810192600101610613565b604190634e487b7160e01b5f525260245ffd5b50903461052a57602036600319011261052a5735906001600160a01b038216820361052a5761068e60209260018060a01b03165f52600260205260405f205490565b9051908152f35b503461052a576020906106af6106aa366106da565b61081a565b5090829392936106d2575b50826106ca575b50519015158152f35b9150836106c1565b9250846106ba565b6003199060208183011261052a576004359167ffffffffffffffff831161052a578260e09203011261052a5760040190565b91908251928382525f5b848110610736575050825f602080949584010152601f8019910116010190565b602081830181015184830182015201610716565b6040810190811067ffffffffffffffff82111761076657604052565b634e487b7160e01b5f52604160045260245ffd5b90601f8019910116810190811067ffffffffffffffff82111761076657604052565b91908110156107be5760051b8101359060de198136030182121561052a570190565b634e487b7160e01b5f52603260045260245ffd5b919082018092116107df57565b634e487b7160e01b5f52601160045260245ffd5b356001600160a01b038116810361052a5790565b3565ffffffffffff8116810361052a5790565b610823816107f3565b9160209081830192610834846107f3565b9260409361085e610844846107f3565b6001600160a01b03165f9081526002602052604090205490565b96608084019061086d82610807565b9861088561087e60a0880188610a18565b3691610a67565b858151910120885191868301937f7f96328b83274ebc7c1cf4f7a3abda602b51a78b7fa1d86a2ce353d75e587cac855260018060a01b0396878092168c860152166060840152898801356080840152606088013560a084015260c083015265ffffffffffff809b1660e083015261010090818301528152610120810167ffffffffffffffff928282108483111761076657610957926042928b5251902061092a610ccc565b908a519161190160f01b8352600283015260228201522061095161087e60c0890189610a18565b90610c92565b506004819992991015610a045761096f9015996107f3565b81518681019063572b6c0560e01b8252306024820152602481526060810194818610908611176107665787945f945251915afa5f5190933d856109f9575b5050836109ed575b506109bf90610807565b92866109d3575b5050944291161015929190565b819296506109e0906107f3565b1690841614935f806109c6565b151592506109bf6109b5565b101593505f806109ad565b634e487b7160e01b5f52602160045260245ffd5b903590601e198136030182121561052a570180359067ffffffffffffffff821161052a5760200191813603831361052a57565b67ffffffffffffffff811161076657601f01601f191660200190565b929192610a7382610a4b565b91610a81604051938461077a565b82948184528183011161052a578281602093845f960137010152565b60ff8114610adb5760ff811690601f8211610ac95760405191610abf8361074a565b8252602082015290565b604051632cd44ac360e21b8152600490fd5b506040515f8054906001908260011c60018416928315610bb7575b6020948583108514610ba3578287528694908115610b835750600114610b28575b5050610b259250038261077a565b90565b5f8080527f290decd9548b62a8d60345a988386fc84ba6bc95484008f6362f93160ef3e56395935091905b818310610b6b575050610b2593508201015f80610b17565b85548784018501529485019486945091830191610b53565b915050610b2594925060ff191682840152151560051b8201015f80610b17565b634e487b7160e01b5f52602260045260245ffd5b90607f1690610af6565b60ff8114610be35760ff811690601f8211610ac95760405191610abf8361074a565b506040515f60018054918260011c60018416928315610c88575b6020948583108514610ba3578287528694908115610b835750600114610c2b575050610b259250038261077a565b9093915060015f527fb10e2d527612073b26eecdfd717e6a320cf44b4afac2b0732d9fcbe2b7fa0cf6935f915b818310610c70575050610b2593508201015f80610b17565b85548784018501529485019486945091830191610c58565b90607f1690610bfd565b8151919060418303610cc257610cbb9250602082015190606060408401519301515f1a90610df7565b9192909190565b50505f9160029190565b307f00000000000000000000000000000000000000000000000000000000000000006001600160a01b03161480610dce575b15610d27577f000000000000000000000000000000000000000000000000000000000000000090565b60405160208101907f8b73c3c69bb8fe3d512ecc4cf759cc79239f7b179b0ffacaa9a75d522b39400f82527f000000000000000000000000000000000000000000000000000000000000000060408201527f000000000000000000000000000000000000000000000000000000000000000060608201524660808201523060a082015260a0815260c0810181811067ffffffffffffffff8211176107665760405251902090565b507f00000000000000000000000000000000000000000000000000000000000000004614610cfe565b91907f7fffffffffffffffffffffffffffffff5d576e7357a4501ddfe92f46681b20a08411610e79579160209360809260ff5f9560405194855216868401526040830152606082015282805260015afa15610e6e575f516001600160a01b03811615610e6457905f905f90565b505f906001905f90565b6040513d5f823e3d90fd5b5050505f916003919056fea2646970667358221220f6c3d57f2f1766a2aa7c842ef0be4b207a3bc216e6210213b83b749b5172eedf64736f6c63430008180033","linkReferences":{}},"methodIdentifiers":{"eip712Domain()":"84b0196e","execute((address,address,uint256,uint256,uint48,bytes,bytes))":"df905caf","executeBatch((address,address,uint256,uint256,uint48,bytes,bytes)[],address)":"ccf96b4a","nonces(address)":"7ecebe00","verify((address,address,uint256,uint256,uint48,bytes,bytes))":"19d8d38c"},"id":136}