{"abi":[{"type":"function","name":"verify","inputs":[{"name":"key","type":"bytes","internalType":"bytes"},{"name":"hash","type":"bytes32","internalType":"bytes32"},{"name":"signature","type":"bytes","internalType":"bytes"}],"outputs":[{"name":"","type":"bytes4","internalType":"bytes4"}],"stateMutability":"view"}],"bytecode":{"object":"0x6080806040523461001657611098908161001b8239f35b5f80fdfe60406080815260049081361015610014575f80fd5b5f3560e01c63024ad31814610027575f80fd5b346104905760603660031901126104905767ffffffffffffffff82358181116104905761005790369085016104c2565b91906024906044358381116104905761007661007c91369089016104c2565b906105e9565b969094856104b8575b856100c3575b5050505050602092505f146100b45762495a6360e31b905b516001600160e01b03199091168152f35b6001600160e01b0319906100a3565b909192939450855160209085358282015281815287810194818610888711176104a657838311610490578035938911610490578201359360c08a36031261049057610100820186811089821117610494578952893586526060820196838b0135885260808301928a8c0135845260a081019960608d01358b5260808d0135818111610490578d0136601f82011215610490576101659036908881359101610592565b9c60c083019d8e5260a081013591821161049057019336601f86011215610490576101978d9536908881359101610592565b908360e08401968388525151119b8c61044f575b508b610356575b50505088610337575b88610306575b886102b7575b5050866101e3575b505050505050602092505f8080808061008b565b919395505f61020482949699519351838a51928284809451938492016106d7565b8101039060025afa156102ad576102585f91825161024889805180938861023481840197888151938492016106d7565b820190898201520387810184520182610520565b88519283928392519283916106d7565b8101039060025afa156102a3575f519251945160209561027b84848484896106f8565b909590156102945750505050505b5f80808080806101cf565b61029e9550610814565b610289565b83513d5f823e3d90fd5b85513d5f823e3d90fd5b9091975089519182518410156102f5575050870151600160fb1b808216149081156102e6575b50955f806101c7565b600160fc1b161590505f6102dd565b603290634e487b7160e01b5f52525ffd5b97508951805184101561032557890151600160fa1b90811614976101c1565b88603283634e487b7160e01b5f52525ffd5b97508951805184101561032557890151600160f81b90811614976101bb565b51929a509061036490610b91565b908b51906103b2602e83898101956c1131b430b63632b733b2911d1160991b8752610398815180928d602d860191016106d7565b8101601160f91b602d82015203600e810185520183610520565b8151840180851161043d5790878e92825190818082109118021895868082109118028618806104016103e4828a6105c8565b6103f96103f082610576565b97519788610520565b808752610576565b8584019890601f1901368a3703920101855e51905190818114938461042e575b50505050975f80806101b2565b2091201490505f808080610421565b8c601187634e487b7160e01b5f52525ffd5b909b5051601474113a3cb832911d113bb2b130baba34371733b2ba1160591b6affffffffffffffffffffff1989848601015116149101825111169a5f6101ab565b5f80fd5b87604183634e487b7160e01b5f52525ffd5b86604186634e487b7160e01b5f52525ffd5b8681149550610085565b9181601f840112156104905782359167ffffffffffffffff8311610490576020838186019501011161049057565b6060810190811067ffffffffffffffff82111761050c57604052565b634e487b7160e01b5f52604160045260245ffd5b90601f8019910116810190811067ffffffffffffffff82111761050c57604052565b90939293848311610490578411610490578101920390565b359060208110610568575090565b5f199060200360031b1b1690565b67ffffffffffffffff811161050c57601f01601f191660200190565b92919261059e82610576565b916105ac6040519384610520565b829481845281830111610490578281602093845f960137010152565b919082039182116105d557565b634e487b7160e01b5f52601160045260245ffd5b91908260c082106106cf57816080116104905761060d607f1983016080830161055a565b908260a01161049057610627609f19840160a0830161055a565b601f19918483018581116105d557828582109182156106c5575b50506106bb5761067561066e610662878581610668610662828c818b610542565b9061055a565b96610542565b94866105c8565b8381019081116105d5571093841561069b575b505050506106965760019190565b5f9190565b6106a7929394506105c8565b9081019081116105d557105f808080610688565b50505050505f9190565b109050825f610641565b9250505f9190565b5f5b8381106106e85750505f910152565b81810151838201526020016106d9565b939291906107068282610ca5565b158015610803575b1561071f5750505050505f90600190565b60405194855260208501526040840152606083015260808201525f805260205f60a061010093845afa15610801575f511561075d5750600190600190565b5f60a0602092604051907fbb5a52f42f9c9261ed4361f59422a1e30036e7c32b270c8807a419feca6050238252600585830152600160408301527fa71af64de5126a4a4e02b7922d66ce9415ce88a4c9d25514d91082c8725ac95760608301527f5d47723c8fbe580bb369fec9c2665d8e30a435b9932645482e7c9f11e872296b60808301528380525afa15610801575f51156107fb575f90600190565b5f905f90565bfe5b5061080e8484610d19565b1561070e565b919290936108228486610ca5565b158015610b80575b610b775760409283519261020080850185811067ffffffffffffffff82111761050c5786525f5b818110610b62575050845192610866846104f0565b5f84526020935f858201525f878201528552855191610884836104f0565b8252838201526001916001868301528385019182526109ed8651926108a8846104f0565b7f6b17d1f2e12c4247f8bce6e563a440f277037d812deb33a0f4a13945d898c29684527f4fe342e2fe1a7f9b8ee7eb4a7c0f9e162bce33576b315ececbb6406837bf51f586850152600188850152866109de608095608083019081526109cf6109c06109148651610db8565b928d86019384526109258151610db8565b906101008701918252606061093d8951875190610df5565b97019687528d60a06109528a51845190610df5565b9101528d60c06109658751845190610df5565b9101528d60e06109788951845190610df5565b9101528d61012061098c8a51855190610df5565b9101528d6101406109a08751855190610df5565b9101528d6101606109b48951855190610df5565b91015251905190610df5565b6101808c019581875251610df5565b6101a08b015251835190610df5565b6101c089015251905190610df5565b6101e08601528551968488528480890152848789015260608801527fffffffff00000000ffffffffffffffffbce6faada7179e84f3b9cac2fc63254f6080880152835f60c07bffffffff00000000000000004319055258e8617b0c46353d039cdaae19998a60a082015260055afa5f519015610b5157808880928b0992095f945f965f985f945b868610610a9457505050505050505090610a8e9291610fbf565b50061490565b8a610b2f575b8060fe1c600c8660fc1c161782610ab18286610d93565b510151610aca575b5094870194600294851b941b610a74565b998b91999b155f14610b0e5750508899508681610b0185610af7610aee8e88610d93565b51519d87610d93565b5101519c85610d93565b5101519a99985b90610ab9565b610b24929b610b1e8a9c86610d93565b51610e87565b9a9199909998610b08565b9799610b409199610b46939b610e14565b91610e14565b999198909897610a9a565b601285634e487b715f52526024601cfd5b602090610b6d610d75565b8188015201610851565b50505050505f90565b50610b8b8183610d19565b1561082a565b90815115610c805781516002919080831b906001600160fe1b038116036105d557600281018091116105d55792600380940490604051937f4142434445464748494a4b4c4d4e4f505152535455565758595a616263646566601f52603f6106707f6768696a6b6c6d6e6f707172737475767778797a303132333435363738392b2f18603f526020860196838051019160208301938451955f86525b848110610c4a57505050505060209394955052808452830101604052565b83600491019a838c51818160121c165183538181600c1c16516001840153818160061c1651858401531651858201530199610c2c565b90506040516020810181811067ffffffffffffffff82111761050c576040525f815290565b908115159182610cf2575b5081610ce8575b81610cc0575090565b7f7fffffff800000007fffffffffffffffde737d56d38bcf4279dce5617e3192a89150111590565b8015159150610cb7565b7bffffffff00000000000000004319055258e8617b0c46353d039cdaae191191505f610cb0565b600160601b63ffffffff60c01b031980807f5ac635d8aa3a93e7b3ebbd55769886bc651d06b0cc53b0f63bce3c3e27d2604b8185816003600160601b0363ffffffff60c01b031981838009080908818580091493109110161690565b60405190610d82826104f0565b5f6040838281528260208201520152565b906010811015610da45760051b0190565b634e487b7160e01b5f52603260045260245ffd5b610dd890610dc4610d75565b508051906040602082015191015191610e14565b9060405192610de6846104f0565b83526020830152604082015290565b610dd891610e01610d75565b5080516040602083015192015192610e87565b929091600160601b63ffffffff60c01b03199081908180868009968180808a818080808a800980096003600160601b0363ffffffff60c01b031909818088800960030908940960040991818080808087600209810381868009089c80096008098103938b82039008900908940960020990565b939091935f945f945f9460408401516ffffffffeffffffffffffffffffffffff60601b199485828009868580099287808786096020850151099188808681868103818d8189890990090896510991818381039189090890811585151694855f14610f6e575050505050600114610eff575b5050505050565b8480809a508599508097985080949592818080868197099d838f94096003600160601b0363ffffffff60c01b031909818088800960030908940960040991818080808087600209810381868009089c80096008098103938b820390089009089409600209905f80808080610ef8565b939d50945097808080809c9d50809a5080985080965080949e508b8009809709958a098180876002098103818381038188800908089d098103938c8203900890090895099009905f80808080610ef8565b92919081156110585760405191602090818452818085015281604085015260608401527fffffffff00000001000000000000000000000000fffffffffffffffffffffffd6080840152805f60c06ffffffffeffffffffffffffffffffffff60601b19958660a082015260055afa905f5191156110475750808380828194098097099509900990565b601290634e487b715f52526024601cfd5b505090505f905f9056fea2646970667358221220b06429659c14ff6ba18bf609bd034dbbfd45681a0c7dc08919f9e0b0e45fed6a64736f6c63430008180033","linkReferences":{}},"methodIdentifiers":{"verify(bytes,bytes32,bytes)":"024ad318"},"id":234}