{"abi":[{"type":"constructor","inputs":[{"name":"beneficiary","type":"address","internalType":"address"},{"name":"startTimestamp","type":"uint64","internalType":"uint64"},{"name":"durationSeconds","type":"uint64","internalType":"uint64"}],"stateMutability":"payable"},{"type":"receive","stateMutability":"payable"},{"type":"function","name":"duration","inputs":[],"outputs":[{"name":"","type":"uint256","internalType":"uint256"}],"stateMutability":"view"},{"type":"function","name":"end","inputs":[],"outputs":[{"name":"","type":"uint256","internalType":"uint256"}],"stateMutability":"view"},{"type":"function","name":"owner","inputs":[],"outputs":[{"name":"","type":"address","internalType":"address"}],"stateMutability":"view"},{"type":"function","name":"releasable","inputs":[{"name":"token","type":"address","internalType":"address"}],"outputs":[{"name":"","type":"uint256","internalType":"uint256"}],"stateMutability":"view"},{"type":"function","name":"releasable","inputs":[],"outputs":[{"name":"","type":"uint256","internalType":"uint256"}],"stateMutability":"view"},{"type":"function","name":"release","inputs":[{"name":"token","type":"address","internalType":"address"}],"outputs":[],"stateMutability":"nonpayable"},{"type":"function","name":"release","inputs":[],"outputs":[],"stateMutability":"nonpayable"},{"type":"function","name":"released","inputs":[],"outputs":[{"name":"","type":"uint256","internalType":"uint256"}],"stateMutability":"view"},{"type":"function","name":"released","inputs":[{"name":"token","type":"address","internalType":"address"}],"outputs":[{"name":"","type":"uint256","internalType":"uint256"}],"stateMutability":"view"},{"type":"function","name":"renounceOwnership","inputs":[],"outputs":[],"stateMutability":"nonpayable"},{"type":"function","name":"start","inputs":[],"outputs":[{"name":"","type":"uint256","internalType":"uint256"}],"stateMutability":"view"},{"type":"function","name":"transferOwnership","inputs":[{"name":"newOwner","type":"address","internalType":"address"}],"outputs":[],"stateMutability":"nonpayable"},{"type":"function","name":"vestedAmount","inputs":[{"name":"timestamp","type":"uint64","internalType":"uint64"}],"outputs":[{"name":"","type":"uint256","internalType":"uint256"}],"stateMutability":"view"},{"type":"function","name":"vestedAmount","inputs":[{"name":"token","type":"address","internalType":"address"},{"name":"timestamp","type":"uint64","internalType":"uint64"}],"outputs":[{"name":"","type":"uint256","internalType":"uint256"}],"stateMutability":"view"},{"type":"event","name":"ERC20Released","inputs":[{"name":"token","type":"address","indexed":true,"internalType":"address"},{"name":"amount","type":"uint256","indexed":false,"internalType":"uint256"}],"anonymous":false},{"type":"event","name":"EtherReleased","inputs":[{"name":"amount","type":"uint256","indexed":false,"internalType":"uint256"}],"anonymous":false},{"type":"event","name":"OwnershipTransferred","inputs":[{"name":"previousOwner","type":"address","indexed":true,"internalType":"address"},{"name":"newOwner","type":"address","indexed":true,"internalType":"address"}],"anonymous":false},{"type":"error","name":"FailedCall","inputs":[]},{"type":"error","name":"InsufficientBalance","inputs":[{"name":"balance","type":"uint256","internalType":"uint256"},{"name":"needed","type":"uint256","internalType":"uint256"}]},{"type":"error","name":"OwnableInvalidOwner","inputs":[{"name":"owner","type":"address","internalType":"address"}]},{"type":"error","name":"OwnableUnauthorizedAccount","inputs":[{"name":"account","type":"address","internalType":"address"}]},{"type":"error","name":"SafeERC20FailedOperation","inputs":[{"name":"token","type":"address","internalType":"address"}]}],"bytecode":{"object":"0x60c0601f61097338819003918201601f19168301916001600160401b03831184841017610106578084926060946040528339810103126101025780516001600160a01b0391828216918290036101025761006760406100606020840161011a565b920161011a565b9180156100ea575f80546001600160a01b03198116831782556040519516907f8be0079c531659141344cd1fd0a4f28419497f9722a3daafe3b4186f6b6457e09080a360805260a052610844908161012f82396080518181816101d50152818161070f0152610743015260a05181818161053a015281816106ec01526107a40152f35b604051631e4fbdf760e01b81525f6004820152602490fd5b5f80fd5b634e487b7160e01b5f52604160045260245ffd5b51906001600160401b03821682036101025756fe60406080815260048036101561001e575b5050361561001c575f80fd5b005b5f3560e01c9081630a17b06b1461055e5781630fb5a6b41461051a578163191655871461043b578163715018a6146103e4578163810ec23b146103a957816386d1a69f1461029a5781638da5cb5b1461027357816396132521146102555781639852595c1461021e578163a3f8eace146101f9578163be9a6555146101b5578163efbe1c1c14610199578163f2fde38b1461010c575063fbccedae146100c45780610010565b34610108575f36600319011261010857602090610101476100fc600154916100f78367ffffffffffffffff4216926105ad565b610734565b610699565b9051908152f35b5f80fd5b90503461010857602036600319011261010857610127610597565b906101306107e3565b6001600160a01b039182169283156101835750505f54826bffffffffffffffffffffffff60a01b8216175f55167f8be0079c531659141344cd1fd0a4f28419497f9722a3daafe3b4186f6b6457e05f80a3005b905f6024925191631e4fbdf760e01b8352820152fd5b8234610108575f366003190112610108576020906101016106dd565b8234610108575f366003190112610108576020905167ffffffffffffffff7f0000000000000000000000000000000000000000000000000000000000000000168152f35b823461010857602036600319011261010857602090610101610219610597565b6106a6565b8234610108576020366003190112610108576020906001600160a01b03610243610597565b165f5260028252805f20549051908152f35b8234610108575f366003190112610108576020906001549051908152f35b8234610108575f366003190112610108575f5490516001600160a01b039091168152602090f35b905034610108575f3660031901126101085760015467ffffffffffffffff92906102d86102d1826100fc4288166100f783476105ad565b80926105ad565b6001557fda9d4e5f101b8b9b1c5b76d0c5a9f7923571acfc02376aa076b75a8c080c956b60208351838152a15f546001600160a01b031647821161038c575f80809381935af13d15610383573d93841161037057815193610343601f8201601f1916602001866105ce565b84523d5f602086013e5b1561035457005b82511561036357825160208401fd5b5163d6bda27560e01b8152fd5b604183634e487b7160e01b5f525260245ffd5b6060935061034d565b50604492914790519263cf47918160e01b84528301526024820152fd5b82346101085780600319360112610108576103c2610597565b906024359167ffffffffffffffff831683036101085760209261010191610604565b34610108575f366003190112610108576103fc6107e3565b5f80546001600160a01b0319811682556001600160a01b03167f8be0079c531659141344cd1fd0a4f28419497f9722a3daafe3b4186f6b6457e08280a3005b823461010857602036600319011261010857610455610597565b61045e816106a6565b9160018060a01b0380921691825f526002602052815f206104808582546105ad565b9055827fc0e523490dd523c33b1878c9eb14ff46991e3f5b2cd33710918618f2a39cba1b60208451878152a25f54169281519363a9059cbb60e01b5f5285526024528260205f60448180875af19160015f51148316156104f5575b52156104e357005b602492635274afe760e01b8352820152fd5b9190506001811516610511578390833b15153d151616916104db565b833d5f823e3d90fd5b8234610108575f366003190112610108576020905167ffffffffffffffff7f0000000000000000000000000000000000000000000000000000000000000000168152f35b90503461010857602036600319011261010857359067ffffffffffffffff82168203610108576101016020926100f747600154906105ad565b600435906001600160a01b038216820361010857565b919082018092116105ba57565b634e487b7160e01b5f52601160045260245ffd5b90601f8019910116810190811067ffffffffffffffff8211176105f057604052565b634e487b7160e01b5f52604160045260245ffd5b6040516370a0823160e01b81523060048201526001600160a01b03919091169190602081602481865afa90811561068e575f9161065a575b506100f790610657935f52600260205260405f2054906105ad565b90565b90506020813d602011610686575b81610675602093836105ce565b81010312610108575161065761063c565b3d9150610668565b6040513d5f823e3d90fd5b919082039182116105ba57565b610657906106be67ffffffffffffffff421682610604565b6001600160a01b039091165f9081526002602052604090205490610699565b61065767ffffffffffffffff807f000000000000000000000000000000000000000000000000000000000000000016907f0000000000000000000000000000000000000000000000000000000000000000166105ad565b9067ffffffffffffffff9081167f000000000000000000000000000000000000000000000000000000000000000082168082101561077457505050505f90565b61077c6106dd565b82106107885750505090565b61079191610699565b918281029281840414901517156105ba577f0000000000000000000000000000000000000000000000000000000000000000169081156107cf570490565b634e487b7160e01b5f52601260045260245ffd5b5f546001600160a01b031633036107f657565b60405163118cdaa760e01b8152336004820152602490fdfea2646970667358221220431e549b825c05e0e7ea94ad6cadd551eb20b6819043d5da334ff5ba19a2456f64736f6c63430008180033","linkReferences":{}},"methodIdentifiers":{"duration()":"0fb5a6b4","end()":"efbe1c1c","owner()":"8da5cb5b","releasable()":"fbccedae","releasable(address)":"a3f8eace","release()":"86d1a69f","release(address)":"19165587","released()":"96132521","released(address)":"9852595c","renounceOwnership()":"715018a6","start()":"be9a6555","transferOwnership(address)":"f2fde38b","vestedAmount(address,uint64)":"810ec23b","vestedAmount(uint64)":"0a17b06b"},"id":68}